:020000040800F2
:10000000180500209D010008BB1500086F140008AA
:10001000B9150008A9020008951B0008000000009F
:10002000000000000000000000000000211B00088C
:10003000AB02000800000000E1180008231B0008C4
:10004000B7010008B7010008B7010008B7010008B0
:10005000B7010008B7010008B7010008B7010008A0
:10006000B7010008B7010008B7010008B701000890
:10007000B7010008B7010008B7010008B701000880
:10008000B7010008B7010008B7010008B701000870
:10009000B7010008B7010008B7010008B701000860
:1000A000B7010008B7010008B7010008B701000850
:1000B000B7010008B701000800000000B701000800
:1000C000B70100080000000000000000B7010008B0
:1000D00000000000B7010008B7010008B7010008E0
:1000E000D5020008B7010008000000000000000071
:1000F0000000000000000000000000000000000000
:1001000000000000000000000000000000000000EF
:100110000000000000000000B7010008B70100085F
:1001200000000000000000000000000000000000CF
:1001300000000000000000000000000000000000BF
:10014000B7010008B701000800000000B70100086F
:10015000B7010008B7010008B7010008B70100089F
:10016000B7010008B701000800000000000000000F
:10017000000000000000000000000000000000007F
:1001800000000000B7010008DFF80CD000F07AF89A
:10019000004800476D2000081805002006488047E9
:1001A00006480047FEE7FEE7FEE7FEE7FEE7FEE75C
:1001B000FEE7FEE7FEE7FEE7851B00088901000871
:1001C0002DE9F05F0546002092469B46884606468C
:1001D000814640241BE0284641464746224600F01F
:1001E00020F853465A46C01A914110D3114618467A
:1001F000224600F038F82D1A67EB01084F462246D8
:100200000120002100F02FF817EB00094E41201EBD
:10021000A4F10104DFDC484631462A464346BDE8E6
:10022000F09F202A04DB203A21FA02F000217047D7
:1002300021FA02F3D040C2F120029140084319464E
:100240007047D2B201E000F8012B491EFBD2704783
:100250000022F6E710B513460A4604461946FFF792
:10026000F0FF204610BD202A04DB203A00FA02F1FC
:10027000002070479140C2F1200320FA03F3194394
:1002800090407047064C074D06E0E06840F00103DF
:1002900094E8070098471034AC42F6D3FFF778FF94
:1002A000E020000800210008FEE7704701B507487C
:1002B00007490068B0FBF1F0009948430090411EE7
:1002C000009101D30846FAE708BD000014000020A1
:1002D0004054890010B54FF4005000F01FF8BDE8FD
:1002E00010404FF4804000F019B8000070B504468B
:1002F00000F0F8F80546601C02D004480078044479
:1003000000F0F0F8401BA042FAD370BD08000020B6
:10031000022801D000BF704701F06AB9044910B546
:100320000A68024202D00860FFF7F2FF10BD000029
:10033000140401402DE9FC4FDFF884A100230125BE
:100340000AF1040B03244FF00F0C0BF1040EB0E084
:1003500005FA03F73A406ED04E68012E05D0022E02
:1003600003D0112E01D0122E17D1D0F808905E00C4
:1003700004FA06F829EA08090096D1F80C8008FA70
:1003800006F848EA0908C0F808804668BE430F79B5
:10039000C7F300179F4037434760C6684FEA4308DA
:1003A00004FA08F7BE4301978F6807FA08F7374346
:1003B000C7604E68022E01D0122E10D1DE0800EB6D
:1003C00086060096366A5F074FEAD7690CFA09F786
:1003D000BE430F6907FA09F73743009E3762066884
:1003E000019FBE430F7907F0030707FA08F7374369
:1003F00007604E68F6005BD5324EB76947F00107DB
:10040000B761B66923F0030706F0010600962E4E89
:100410003E44B146B6689F074FEA17780CFA08F7D2
:10042000BE43B0F1904F04D0284FB84204D1012709
:100430000DE000270BE03BE0254FB84201D1022739
:1004400005E0244FB84201D1032700E0052707FA51
:1004500008F73743C9F80870DAF800605746D1F852
:10046000048096435FEAC83800D516433E60DBF847
:1004700000605F46D1F8048096435FEA883800D573
:1004800016433E60DEF800607746D1F8048096435C
:100490005FEAC82800D516433E60094F0C373E6816
:1004A000D1F8048096435FEA882800D516433E6061
:1004B0005B1C0E683246DE407FF44AAFBDE8FC8F1D
:1004C0000004014000100240000001400004004808
:1004D00000080048000C00480AB181617047816241
:1004E0007047000001488068704700000800002045
:1004F000024881680278114481607047080000203A
:10050000074810B5016841F010010160032000F0B8
:100510006FF8002000F006F800F024F8002010BD6D
:100520000020024070B50D4D04464FF47A712878D2
:10053000B1FBF0F00A490968B1FBF0F000F083FF6D
:1005400048B9102C07D200222146501E00F030F886
:1005500000206C6070BD012070BD0000080000200C
:10056000140000200A4882B0816941F001018161D4
:10057000816901F001010091C16941F08051C161BF
:10058000C06900F080500090072002B000F030B841
:1005900000100240002809DB00F01F0201219140F9
:1005A0004009800000F1E020C0F800117047000011
:1005B000F0B40E4B1B680C46C3F30223C3F10705CE
:1005C000042D00D90425191D072901D2002300E0BC
:1005D000DB1E012606FA05F1491E214099409E4086
:1005E000761E16403143F0BC01F0EABA0CED00E093
:1005F000064900F0070208684FF6FF03184040EA7A
:100600000220034A10430860704700000CED00E030
:100610000000FA052DE9F0470F46050069D04A4E63
:10062000306800F00700B84209D2306820F00700B7
:1006300038433060306800F00700B84259D128785C
:10064000424C800705D56068A96820F0F000084397
:1006500060602878C0073DD06968012001290DD06D
:10066000022923D05FF0020393FAA3F2B2FA82F2D6
:1006700042F02002520904D0226803E04FF4003314
:10068000F2E7626A93FAA3F3B3FA83F303F01F036A
:10069000984002422DD0606820F00300084360605B
:1006A000FFF720FF804641F288390CE04FF00073DD
:1006B000DAE700BFFFF716FFA0EB0801494502D9B2
:1006C0000320BDE8F0876068696800F00C00B0EBBB
:1006D000810FEFD1306800F00700B8420BD93068C5
:1006E00020F0070038433060306800F00700B8425F
:1006F00001D00120E5E72878400705D56068E96862
:1007000020F4E060084360602878000706D5606840
:10071000296920F4605040EAC100606000F01EF8D2
:100720006168F02292FAA2F201F0F001B2FA82F2CC
:10073000D140074A515CC840064908600648006835
:10074000FFF7F0FE0020BCE700200240001002404E
:10075000D0200008140000200C000020164A10B51C
:100760005168164801F00C03042B20D0082B1ED131
:100770004FF4701494FAA4F401F47013B4FA84F4EE
:10078000E3400F4CD26AE45C0F2393FAA3F302F028
:100790000F02B3FA83F3DA40094B1033C9039A5CB2
:1007A00006D500231946FFF70BFDA0FB040110BD81
:1007B0000448A4FB000110BD0010024000127A00A2
:1007C000B020000800093D002DE9F84F050071D068
:1007D0002878FC4EC0074FF0010425D070686704EC
:1007E000C0F38100012807D07068C0F3810002289F
:1007F0001BD17068C00318D597FAA7F0B0FA80F043
:1008000040F02000400901D0306800E0706A97FA9B
:10081000A7F1B1FA81F101F01F0104FA01F10842D8
:1008200065D068680028D2D061E06868B0F5803F84
:100830000BD010B1B0F5A02F17D0306820F4803065
:100840003060306820F4802002E0306840F480306E
:100850003060F06AA96820F00F000843F062686811
:1008600020B3FFF73FFE80460AE0306840F4802066
:100870003060EAE7FFF736FEA0EB0800642871D885
:1008800097FAA7F0B0FA80F040F02000400901D0BC
:10089000306800E0706A97FAA7F1B1FA81F101F0CF
:1008A0001F0104FA01F10842E4D020E0FFF71AFE2C
:1008B000804607E0C2E000BFFFF714FEA0EB08008F
:1008C0006428DCD897FAA7F0B0FA80F040F0200056
:1008D000400901D0306800E0706A97FAA7F1B1FAD8
:1008E00081F101F01F0104FA01F10842E4D12878F6
:1008F000DFF8D48280074FF0000A4FF0020730D5AE
:1009000070684FF0F80B10F00C0F07D07068C0F350
:100910008100022827D17068C00324D497FAA7F079
:10092000B0FA80F040F02000400901D0306800E0CB
:10093000706A97FAA7F1B1FA81F101F01F0104FA88
:1009400001F1084202D02869012877D130689BFA6A
:10095000ABF220F0F8016869B2FA82F290400143EC
:1009600031605AE064E1286988B394FAA4F0B0FADF
:1009700080F048F82040FFF7B5FD814606E000BF53
:10098000FFF7B0FDA0EB090002289AD897FAA7F06C
:10099000B0FA80F040F02000400901D0306800E05B
:1009A000706A97FAA7F1B1FA81F101F01F0104FA18
:1009B00001F10842E4D030689BFAABF26969B2FAFF
:1009C00082F220F0F80091400843306025E0FFE714
:1009D00094FAA4F0B0FA80F048F820A0FFF782FD66
:1009E000814605E0FFF77EFDA0EB09000228CCD888
:1009F00097FAA7F0B0FA80F040F02000400901D04B
:100A0000306800E0706A97FAA7F1B1FA81F101F05D
:100A10001F0104FA01F10842E4D1287800076CD5DF
:100A2000A869A8B394FAA4F0B0FA80F008EB8000AB
:100A3000C0F88044FFF756FD814607E0A4E100BFFF
:100A4000FFF750FDA0EB090002289ED897FAA7F007
:100A5000B0FA80F040F06000B4EB501F01D1306874
:100A60000BE097FAA7F0B0FA80F040F06000B7EB27
:100A7000501F01D1306A00E0706A97FAA7F1B1FA0D
:100A800081F101F01F0104FA01F21042D8D034E0E4
:100A9000FFE794FAA4F1B1FA81F108EB8101C1F802
:100AA00080A4FFF71FFD814606E000BFFFF71AFD97
:100AB000A0EB090002289AD897FAA7F0B0FA80F0C4
:100AC00040F06000B4EB501F01D130680BE097FAA2
:100AD000A7F0B0FA80F040F06000B7EB501F01D1F2
:100AE000306A00E0706A97FAA7F1B1FA81F101F07B
:100AF0001F0104FA01F21042D8D12878400768D5C6
:100B0000F0694FF00009C00009D4F06940F080504E
:100B1000F061F0694FF0010900F0805000902B481F
:100B20000168C90512D4016841F480710160FFF7C2
:100B3000D9FC834606E000BFFFF7D4FCA0EB0B0016
:100B4000642875D821480068C005F5D5E8680128F3
:100B50000AD008B1052811D0306A20F001003062B7
:100B6000306A20F0040002E0306A40F00100306298
:100B7000E86868B3FFF7B6FC83460DE0306A40F0E2
:100B800004003062F0E700BFFFF7ACFCA0EB0B0104
:100B900041F2883081424BD897FAA7F0B0FA80F042
:100BA00040F04000B4EB501F01D1306813E097FAD9
:100BB000A7F0B0FA80F040F04000B7EB501F09D129
:100BC000306A08E00010024000004242007000401D
:100BD0000CE040E0706A97FAA7F1B1FA81F101F0F8
:100BE0001F0104FA01F21042CED02DE0FFF77AFC8B
:100BF000834607E0FFF776FCA0EB0B0141F288305B
:100C0000814215D897FAA7F0B0FA80F040F0400082
:100C1000B4EB501F01D130680CE097FAA7F0B0FA9E
:100C200080F040F04000B7EB501F02D1306A01E085
:100C300083E0706A97FAA7F1B1FA81F101F01F0120
:100C400004FA01F21042D5D1B9F1000F03D0F069D6
:100C500020F08050F061E86980B37168C1F38101D0
:100C6000022977D04FF080714F000228504609D0FA
:100C700091FAA1F1B1FA81F148F82100FFF732FCB5
:100C800005465DE0894691FAA1F1B1FA81F1C246CB
:100C900048F82100FFF726FC804605E0FFF722FC1C
:100CA000A0EB0800022848D897FAA7F0B0FA80F025
:100CB00040F02000400902D0306801E066E0706A30
:100CC00097FAA7F1B1FA81F101F01F0104FA01F1DD
:100CD0000842E3D1D5E908100843716821F4741182
:100CE0000843706099FAA9F0B0FA80F04AF8204001
:100CF000FFF7F8FB054604E0FFF7F4FB401B022872
:100D00001BD897FAA7F0B0FA80F040F02000400915
:100D100001D0306800E0706A97FAA7F1B1FA81F16A
:100D200001F01F0104FA01F10842E5D02EE000BFF6
:100D3000FFF7D8FB401B022802D90320BDE8F88F3B
:100D400097FAA7F0B0FA80F040F02000400902D0F6
:100D5000306801E00BE0706A97FAA7F1B1FA81F10F
:100D600001F01F0104FA01F10842E1D10EE001286F
:100D7000E4D070682A6A00F48031914204D1696A33
:100D800000F47010884201D00120D7E70020D5E799
:100D900070B5040009D0606A002540B12561656125
:100DA000A56294F85D0040B10CE0012070BD606860
:100DB000B0F5827FF4D0E561F2E784F85C5020461C
:100DC00000F056F8022084F85D002068016821F0E8
:100DD00040010160E1684FF4E062914201D90020D6
:100DE00001E04FF48050B1F5706F02D0914200D015
:100DF000A562A188228901F4827102F404421143A0
:100E0000227C02F002021143227D02F00102114312
:100E1000228B02F400721143227F02F03802114348
:100E200094F8202002F080021143228D02F4005237
:100E3000114322681160A169042202EA114194F869
:100E4000242000F4805002F01002114394F8342062
:100E500002F008021143A28902F4706211430143B7
:100E6000206841602566012084F85D00002070BD87
:100E700010B586B0044614216846FFF7E9F9124917
:100E8000206888421ED11148816941F480518161F6
:100E9000816901F480510591416941F480214161EA
:100EA0004069694600F480200590382000900220B7
:100EB0000190002002900320039005200490044834
:100EC000FFF738FA06B010BD0030014000100240B4
:100ED000000400482DE9F84F044640680025984674
:100EE00016460F464FF0040BB0F5827F01D1A06883
:100EF00088B194F85C00012818D0012084F85C00C7
:100F0000FFF7F0FA814694F85D004FF0000A0128DF
:100F10000ED0022599E084F85DB013460A462046BB
:100F2000CDF8008000F05EF9BDE8F88F0220FBE705
:100F3000002F77D0002E75D084F85DB0C4F860A083
:100F40002764A4F84460A4F84660C4F838A0A4F864
:100F50003CA0A4F83EA0C4F84CA0C4F850A0E0689F
:100F60004FF4E06188422068426802D922F480523E
:100F700001E042F480524260A068B0F5004F09D110
:100F80002068026822F0400202602068026822F4B1
:100F90008042026020680268520603D4026842F070
:100FA00040020260E06888421DD93FE02068816805
:100FB000C9070BD0017B206C0170206C401C2064A1
:100FC000B4F84600401EA4F846000CE0FFF78AFA89
:100FD000A0EB0901414503D3B8F1FF3F03D03BE04B
:100FE000B8F1000F38D0B4F846000028DED121E077
:100FF00020688168C9070BD0C068216C0880206C0C
:10100000801C2064B4F84600401EA4F846000DE0A1
:10101000FFF768FAA0EB0901414504D3B8F1FF3F9F
:1010200004D019E010E0B8F1000F15D0B4F8460074
:101030000028DDD14A464146204600F052FC08B166
:1010400020202066206E00B10125012084F85D007B
:1010500084F85CA0284667E70325F6E72DE9F84FFA
:10106000044690F85C0000271D4616468946012874
:101070000DD04FF0010B84F85CB0FFF733FA8046D7
:1010800094F85D00BA46012804D00227A4E00220AB
:10109000BDE8F88FB9F1000F74D0002E72D0032094
:1010A00084F85D00C4F860A0C4F83890A687E6878D
:1010B000C4F840A0A4F844A0A4F846A0C4F850A0E6
:1010C000C4F84CA0A068B0F5004F09D120680168B1
:1010D00021F0400101602068016841F48041016015
:1010E00020680168490603D4016841F040010160AD
:1010F000E068B0F5E06F606823D908B1012E1CD11B
:10110000A06B21680088C86006E0206881688907B4
:1011100009D5A16B0988C160A06B801CA063E08F1A
:10112000401EE08709E0FFF7DDF9A0EB0800A842C8
:1011300002D3681C01D046E0ADB3E08F0028E4D1B3
:1011400036E008B1012E30D1E08F0128A06B03D921
:1011500021680088C8600FE021680078087314E0F7
:10116000E08722E020688168890714D5E18F012992
:10117000A16B08D90988C160A06B801CA063E08FB7
:10118000801EEDE727E009780173A06B401CA06387
:10119000E08F401EE4E7FFF7A5F9A0EB0800A842A6
:1011A00002D3681C01D00EE06DB1E08F0028D9D1C8
:1011B00042462946204600F0CEFB08B1202020669A
:1011C000A06810B105E0032706E02068C1688068C8
:1011D0000090206E00B1012784F85DB084F85CA017
:1011E000384655E72DE9F05F044690F85C0000278B
:1011F0000A9E1D4692468B464FF0010901280ED0EB
:10120000012084F85C00FFF76DF9804694F85D00DA
:10121000616801280CD0B1F5827F07D102E002207D
:10122000BDE8F09FA16809B9042801D0022700E1B8
:10123000BBF1000F24D0BAF1000F21D005B394F810
:101240005D00042802D0052084F85D00002020669F
:10125000C4F840A0A4F84650A4F84450C4F838B0EC
:10126000E587A587E0642065E0684FF4E061884287
:1012700001D8012D06D92068426822F4805205E089
:101280000127D6E02068426842F48052426020681C
:101290000268520603D4026842F040020260E0682D
:1012A0008842606845D908B1012D3AD1A06B216808
:1012B0000088C860A06B801CA063E08F401EE087A0
:1012C0002FE02068816889070FD5E18F69B1B9F1F6
:1012D000010F0AD1A16B0988C160A06B801CA063BB
:1012E000E08F401EE0874FF0000920688168C90741
:1012F0000FD0B4F8461061B1C068216C0880206C32
:10130000801C2064B4F84600401EA4F846004FF04C
:101310000109FFF7E7F8A0EB0800B04201D3701C09
:1013200075D1E08F0028CCD1B4F846000028C8D190
:1013300076E008B1012D6CD1E08F0128A06B08D9AF
:1013400021680088C860A06B801CA063E08F801EAD
:1013500007E0216800780873A06B401CA063E08F51
:10136000401EE08755E02068816889071AD5E18F23
:10137000C1B1B9F1010F15D1E18F0129A16B07D9D5
:101380000988C160A06B801CA063E08F801E06E00E
:1013900009780173A06B401CA063E08F401EE087BA
:1013A0004FF0000920688168C90728D0B4F84610BA
:1013B00029B3B4F84610012914D9C068216C0880FB
:1013C000206C801C2064B4F84600801EA4F84600FF
:1013D000B4F84600012810D82068416841F48051D3
:1013E00041600AE0007B216C0870206C401C206486
:1013F000B4F84600401EA4F846004FF00109FFF77C
:1014000071F8A0EB0800B04202D3701C01D018E0C4
:10141000BEB1E08F0028A6D1B4F846000028A2D1C2
:1014200042463146204600F096FA10B101272020AE
:101430002066012084F85D00002084F85C003846B6
:10144000EEE60327F5E710B5401EB0F1807F01D32B
:10145000012010BD4FF0E02460610F21601700F003
:10146000AFFB0020A06107202061002010BDFEE737
:101470002DE9F04387B014216846FEF7E9FE3748AE
:10148000416941F400214161416901F40021059164
:10149000416941F480014161416901F48001059194
:1014A000416941F400314161416901F40031059124
:1014B000416941F48021416140694FF0904800F456
:1014C00080200590002220214046FFF705F8DFF834
:1014D000909048F2C007002239464846FEF7FCFFCC
:1014E000204D4FF40050CDE90005002469460294D8
:1014F0001D48FEF71FFF0C2000900220CDE90104DB
:10150000032003900720049069464046FEF712FF2F
:10151000202000900126CDE90164694640460394ED
:10152000FEF708FFB003CDE900056946029448467E
:10153000FEF700FF0097CDE9016469464846039431
:10154000FEF7F8FE002211462820FFF731F8282088
:10155000FFF720F807B0BDE8F0830000001002405C
:10156000000400480000211000080048114810B590
:101570000F4901604FF48271416000214FF44072C5
:10158000C0E902124FF400720161C0E90512202285
:10159000C0E9072107224162C0E90A12016308215C
:1015A0004163FFF7F5FB002801D072B6FEE710BDDE
:1015B00000300140B0000020FEE7FEE710B500203B
:1015C00000F074F840F00301002000F0EBF8012275
:1015D00040210648FEF780FF9620FEF767FE00F0E8
:1015E00025F8BDE8104000F041B8000000040048B4
:1015F00010B5072000F05AF840060FD50F20FEF76F
:1016000055FE01220849612000F080F80F20FEF706
:101610004DFE4021072000F0C5F8EAE702480249E4
:101620000078487010BD00000000002038B50CA004
:101630000C4C00680090002280212046FEF74CFFF1
:101640004FF47A73012269460748FFF707FD01202E
:10165000FEF72CFE012280212046FEF73DFF38BD1B
:10166000E200000000040048B000002038B50CA0E3
:101670000C4C00680090002280212046FEF72CFFD1
:101680004FF47A73012269460748FFF7E7FC01200F
:10169000FEF70CFE012280212046FEF71DFF38BD1B
:1016A000E100000000040048B000002031B584B023
:1016B0000020144D8DF80400024680212846FEF7D4
:1016C0000BFF4FF47A74012301AA04A90E48009479
:1016D000FFF788FD9DF81000072809D0FF208DF83E
:1016E0000800012301AA02A907480094FFF77AFD28
:1016F000012280212846FEF7EFFE9DF8040005B088
:1017000030BD000000040048B0000020F7B50E4CCA
:1017100016460F46002280212046FEF7DDFE4FF4DC
:101720007A752B46012269460848FFF797FC2B463D
:10173000324639460548FFF7CDFB0122802120467D
:10174000FEF7CAFEFEBD000000040048B000002005
:1017500038B511A0114C006800900022802120466D
:10176000FEF7BAFE4FF47A752B46012269460C4803
:10177000FFF774FC0120FEF799FD73208DF800003F
:101780002B46012269460648FFF768FC01228021AA
:101790002046FEF7A1FE38BD5000000000040048BE
:1017A000B000002073B5104C9DF80000002240F0FE
:1017B00020008DF8000080212046FEF78DFE4FF4BA
:1017C0007A752B46012269460848FFF747FC2B46ED
:1017D000012201A90548FFF741FC01228021204692
:1017E000FEF77AFE7CBD000000040048B000002037
:1017F000F7B5124C9DF80000164640F020000F4649
:101800008DF80000002280212046FEF765FE4FF48F
:101810007A752B46012269460948FFF71FFC012013
:10182000FEF744FD2B46324639460548FFF716FCC5
:10183000012280212046FEF74FFEFEBD0004004835
:10184000B000002010B5002240212348FEF744FEDE
:1018500041F288342046FEF729FD0A210020FFF7D7
:10186000A1FF2046FEF722FD02210120FFF79AFF8B
:1018700002210846FFF796FF01210320FFF792FFA0
:101880005F210420FFF78EFFFFF762FF00211D207C
:10189000FFF788FF00211C20FFF784FF702107203D
:1018A000FFF780FF4C210520FFF77CFF2E2106204B
:1018B000FFF778FF032209491020FFF799FF032261
:1018C00006490B20FFF794FF01211220FFF76AFF62
:1018D000BDE81040FFF772BE00040048020000207F
:1018E00070472DE9F843044640684FF48276154668
:1018F00089464FF400474FF48068B04209D1A06890
:10190000B84201D0404504D12068016821F040016F
:1019100001604B46002280212046009500F0A4F88B
:1019200080B96068B04214D1A068B84201D0404587
:101930000FD14B4600224FF4C0612046009500F0C5
:101940002FF830B1206E40F0200020660320BDE863
:10195000F8830020FBE7F8B515460E460B460092CB
:10196000044600224FF4C05100F01AF888B93346FB
:10197000002280212046009500F076F848B93346D1
:1019800000224FF4C0612046009500F009F80028BD
:1019900004D0206E40F0200020660320F8BD000037
:1019A0002DE9F84F994617460E4604460A9DFEF764
:1019B00099FD411BA9EB0105FEF794FD80462948DE
:1019C0004FF4C06A0068C0EBC00000EB8000000D5F
:1019D000684300903FE0564501D107B9007BB9F15B
:1019E000FF3F38D0FEF77EFDA0EB0800A84203D2EF
:1019F00015B1009860B32CE02068416821F0E00147
:101A000041606068B0F5827F0BD1A068B0F5004FEF
:101A100002D0B0F5806F04D12068016821F0400148
:101A20000160A06AB0F5005F09D12068016821F467
:101A3000005101602068016841F4005101600120FB
:101A400084F85D00002084F85C000320BDE8F88F76
:101A50000025401E0090206881683140B942BAD10B
:101A60000020F3E7140000202DE9F8431E469146BC
:101A700088460446089DFEF735FD401B351AFEF7E3
:101A800031FD074625480068C0F3CB30684338E095
:101A9000701C37D0FEF726FDC01BA84203D215B13B
:101AA000009860B32CE02068416821F0E0014160BB
:101AB0006068B0F5827F0BD1A068B0F5004F02D00E
:101AC000B0F5806F04D12068016821F04001016009
:101AD000A06AB0F5005F09D12068016821F40051C7
:101AE00001602068016841F400510160012084F820
:101AF0005D00002084F85C000320BDE8F883002529
:101B0000401E00902068816838EA010004D000215E
:101B10004945BDD10020F0E70121F9E7140000207C
:101B20007047FEF7E5BC30B58FB028216846FEF758
:101B30008FFB14210AA8FEF78BFB022501200490DD
:101B400000951020059000244FF46010CDE9084066
:101B500007956846FEF738FE08B172B6FEE70F201B
:101B6000CDE90A054FF48060CDE90C4002210AA8B6
:101B70000E94FEF74FFD002801D072B6FEE70FB0BD
:101B800030BD00000248016841F4700101607047F7
:101B900088ED00E0FEE700000FB4084B10B504A983
:101BA00002AA039800F02CF8044602A9002000F0D5
:101BB00058FA204610BC5DF814FB000063200008B2
:101BC0000907090E002804DB00F1E02080F800146A
:101BD000704700F00F0000F1E02080F8141D7047FE
:101BE00002E008C8121F08C1002AFAD170477047E6
:101BF000002001E001C1121F002AFBD17047000044
:101C00002DE9FF4F8DB00F460546002606E025283A
:101C10000BD0DDE90F1290476D1C761C2878002848
:101C2000F5D111B03046BDE8F08F0024A246A146A0
:101C30000122EC4900E0044315F8013F203B02FA81
:101C400003F00842F7D128782A2810D06FF02F022D
:101C50002878A0F13001092914D80AEB8A0102EB97
:101C6000410144F0020400EB010A6D1CF0E701CFD2
:101C70005FEA000A03D544F40054CAF1000A44F0B4
:101C800002046D1C28782E2817D115F8010F44F096
:101C900004042A280ED06FF02F022878A0F130011A
:101CA00009290AD809EB890102EB410100EB01097E
:101CB0006D1CF2E757F8049B6D1C28786C280FD038
:101CC00006DC4C2817D068280DD06A2814D104E00F
:101CD000742810D07A280FD10DE044F400140AE0E3
:101CE00044F4801401E044F440146978814202D144
:101CF00004F580146D1C6D1C2A786E2A1FD00CDC34
:101D0000632A31D004DC002A8BD0582A11D1A3E0F9
:101D1000642A68D0692A0CD165E0732A2ED004DCCD
:101D20006F2A73D0702A04D19BE0752A6FD0782A6D
:101D30006ED01046DDE90F129047761C50E1C4F3D7
:101D40000250022806D0032809D0042801CF09D068
:101D5000066045E101CFF117C0E9006140E101CF24
:101D600006803DE106703BE117F8040B8DF800009A
:101D700000208DF80100EB46012003E057F804BB7A
:101D80004FF0FF3061074FF0000102D40DE008F181
:101D90000101884649450FDA8045F8DB1BF8081039
:101DA0000029F4D108E008F1010188468142FADBFC
:101DB0001BF808100029F6D1DDE90F23AAEB080073
:101DC0008146214600F036F9304400EB080604E075
:101DD000DDE90F121BF8010B9047B8F10108F7D2AB
:101DE00021464846F7E00A21C4F302534FF0000BA6
:101DF0000891022B04D001CFC117032B09D00AE0B0
:101E0000FF1D27F00707F7E8020108E032E01FE0B6
:101E100020E000B2C117042B01D140B2C117031E4C
:101E200071F1000307DA4FF0000CD0EB0C006CEB03
:101E300001012D2302E0230504D52B238DF8243046
:101E4000012303E0E30701D02023F7E7984658E099
:101E50000A2110E010210EE010204FF0000B089036
:101E60000CE010214FF0000B44F004044FF008097F
:101E7000089103E008214FF0000B0891C4F30253CE
:101E8000022B04D001CF0021032B06D006E0FF1D5A
:101E900027F00707F7E8020103E080B2042B00D126
:101EA000C0B24FF0000823072BD5702A07D0DDF809
:101EB00020C08CF0100C5CEA0B0C05D00EE0402327
:101EC0008DF82430012308E050EA010306D03023C6
:101ED0008DF824308DF8252002239846DDF820C0A7
:101EE0008CF0080C5CEA0B0C0BD150EA010301D119
:101EF000630706D530238DF824304FF00108A9F18F
:101F00000109582A04D038A20B9208AA0A920BE0C1
:101F10003AA2F9E75B46089AFEF752F90B9B9B5CE5
:101F20000A9A521E0A92137050EA0102F2D10A98DC
:101F3000ADEB000000F1200B600702D524F48034E3
:101F400001E04FF00109D94502DDA9EB0B0000E0EB
:101F5000002000EB0B0141440890AAEB010AE003CA
:101F600006D4DDE90F232146504600F063F806440D
:101F70004FF0000908E009A911F80900DDE90F1286
:101F8000904709F10109761CC145F4DBE0030CD54B
:101F9000DDE90F232146504600F04CF8064404E0EA
:101FA000DDE90F1230209047761C0899481E0890F2
:101FB0000029F5DC08E00A980A990078491C0A9182
:101FC000DDE90F129047761CBBF10001ABF1010B6C
:101FD000F1DC21465046DDE90F2300F019F80644F4
:101FE0006D1C1BE609280100303132333435363799
:101FF0003839616263646566000000003031323355
:1020000034353637383941424344454600000000F4
:102010002DE9F041044600251E461746880404D4E5
:1020200005E039462020B0476D1C641EF9D52846CE
:10203000BDE8F0812DE9F041044600251E4690469A
:10204000C80301D5302700E02027880404D505E027
:1020500041463846B0476D1C641EF9D52846BDE898
:10206000F0810A68531C0B6010707047FEF748FA45
:10207000FFF759FDFFF7FCF9FFF778FAFFF7E2FBEE
:10208000C820FEF733F90020FFF710FB024602A13B
:102090000648FFF781FDF6E7434F4E4649473A2091
:1020A0003078253032580D0A00000000180000205A
:1020B00002030405060708090A0B0C0D0E0F101089
:1020C0000102030405060708090A0B0C0D0E0F1088
:1020D00000000000000000000102030406070809D8
:1020E000002100080000002018000000E01B00088C
:1020F000182100081800002000050000F01B00084F
:102100000001B3B401000000010000001000000055
:082110000000000000127A003B
:040000050800018965
:00000001FF
