:020000040800F2
:10000000C807002031020008B9290008BB270008F2
:10001000B52900081F0700085D3100080000000036
:10002000000000000000000000000000912F000808
:100030002307000800000000ED2C0008932F0008A3
:100040004B0200084B0200084B0200084B0200085C
:100050004B0200084B0200084B0200084B0200084C
:100060004B0200084B0200084B0200084B0200083C
:100070004B0200084B0200084B0200084B0200082C
:100080004B0200084B0200084B0200084B0200081C
:100090004B0200084B0200084B0200084B0200080C
:1000A0004B020008313000084B0200084B020008E8
:1000B0004B0200084B020008000000004B02000841
:1000C0004B02000800000000000000004B02000886
:1000D000000000004B0200084B0200084B02000821
:1000E000550700084B020008000000000000000057
:1000F0000000000000000000000000000000000000
:1001000000000000000000000000000000000000EF
:1001100000000000000000004B0200084B02000835
:1001200000000000000000000000000000000000CF
:1001300000000000000000000000000000000000BF
:100140004B0200084B020008000000004B020008B0
:100150004B0200084B0200084B0200084B0200084B
:100160004B0200084B0200080000000000000000E5
:10017000000000000000000000000000000000007F
:10018000000000004B02000800F002F800F041F807
:100190000AA090E8000C82448344AAF10107DA45E2
:1001A00001D100F036F8AFF2090EBAE80F0013F0F3
:1001B000010F18BFFB1A43F00103184788310000F4
:1001C000A8310000103A24BF78C878C1FAD8520785
:1001D00024BF30C830C144BF04680C6070470000C1
:1001E0000023002400250026103A28BF78C1FBD840
:1001F000520728BF30C148BF0B607047782900F014
:10020000EB80002070471FB503F05EF81FBD10B5EE
:1002100010BD00F04AFA1146FFF7F5FF02F0C4FFE7
:1002200000F068FA03B4FFF7F2FF03BC00F070FAC5
:100230000948804709480047FEE7FEE7FEE7FEE77A
:10024000FEE7FEE7FEE7FEE7FEE7FEE704480549B6
:10025000054A064B704700001D3000088901000860
:10026000C8010020C8070020C8030020C8030020E0
:1002700053EA020C00F069802DE9F04B4FF00006C4
:10028000002B1FBFB3FA83F503FA05F424FA05F631
:100290005E4012BF1643B2FA82F502FA05F4C5F1C8
:1002A00020051EBF22FA05FC44EA0C04203556EA5C
:1002B000044C4FEA144418BF641C4FF000084FF080
:1002C0000009904271EB030C39D3002919BFB1FA30
:1002D00081F701FA07F6B0FA80F700FA07F6C7F1DE
:1002E00020071EBF20FA07FC46EA0C062037B6FBA3
:1002F000F4FCA7EB0507103F07F01F0BCBF120061E
:100300000CFA0BFB2CFA06F644BFB3460026202F4E
:10031000A4BF5E464FF0000B5BEA060C08BF4FF02F
:10032000010B19EB0B09ABFB027C48EB0608C01B69
:1003300006FB02CC0BFB03CC71EB0C01C1E70B46B7
:10034000024641464846BDE8F08B13B54FF0000029
:100350004FF00001AFF30080BDE81C407047000083
:100360000FB41CB5074B06AA7B446946009005985C
:1003700000F083F90020694600F092F91CBC5DF89A
:1003800014FB00003503000070B504468569006861
:10039000C10601D5302600E02026C00707D070BD79
:1003A000D4E9012130469047206A401C20626D1E2E
:1003B000F6D570BD70B5044685690078C00707D1D1
:1003C00070BDD4E9012120209047206A401C2062A2
:1003D0006D1EF6D570BD000070B504460D46214671
:1003E0001068AFF300802188090502D50F4A7A44CE
:1003F00002E00E4A7A440E32002104F1240305E0A3
:1004000000F00F060009965D5E54491C0028F7D1E4
:1004100020780023000704D5702D02D009B10223F3
:1004200011322046BDE8704000F0C8B8182F000017
:100430002DE9F05F894604464FF0000ADFF824B149
:10044000FB44C0F820A02046E168884700287DD002
:10045000252806D0D4E901219047206A401C20625B
:10046000F1E700255F462046E168884720280646D8
:1004700007DB312E05D2B81910F8200C08B105435E
:10048000F1E7A80701D525F00405C4F81CA0002752
:10049000C4F818A02A2E09D0304602F07DFE38B3E9
:1004A00004EB8708303EC8F8186019E059F8041BBF
:1004B000204604EB87029161E1688847012F0646D8
:1004C00018D1E069002820DA25F020051DE0D8F8D1
:1004D000180000EB800006EB40003038C8F8180028
:1004E0002046E1688847064602F056FE0028EED115
:1004F000012F0AD02E2E08D12046E16888477F1CA4
:100500000646022F45F02005C4DBA069002803DA67
:10051000404245F00105A061E80701D025F0100533
:10052000A6B1A6F14100192802D8203645F400658D
:100530004A463146204625604D46FFF75FFE60B1D2
:10054000012807D0ED1D25F0070000E007E000F1CD
:10055000080978E705F1040975E730467AE7206A6B
:10056000BDE8F09FEE2E00004FF0000200B51346EC
:1005700094469646203922BFA0E80C50A0E80C50C3
:10058000B1F12001BFF4F7AF090728BFA0E80C5074
:1005900048BF0CC05DF804EB890028BF40F8042B6D
:1005A00008BF704748BF20F8022B11F0804F18BFDA
:1005B00000F8012B70477047704770472DE9F047EE
:1005C0000D4699469246044600F1240801688806C3
:1005D00004D5E06921F01001216000E00120A8426B
:1005E00001DD471B00E00027A1697A1902EB090031
:1005F000081AA0612078C00602D42046FFF7C4FE86
:10060000002608E0D4E901211AF806009047206A84
:10061000401C761C20624E45F4DB2078C0060AD5CB
:100620002046FFF7B1FE06E0D4E9012130209047D3
:10063000206A401C2062381EA7F10107F4DC07E0A5
:10064000D4E9012118F805009047206A401C206277
:10065000281EA5F10105F3DC2046FFF7ABFE20784C
:10066000000602D50220BDE8F0870120FBE700006C
:1006700001694A1C02610878704700B58FB0CDE966
:1006800001310021059105497944CDE90310114656
:100690006846FFF7CDFE0FB000BD0000E5FFFFFF8D
:1006A0000A6802F8010B0A607047754600F02CF8E2
:1006B000AE4605006946534620F00700854618B04F
:1006C00020B5FFF7C3FDBDE820404FF000064FF016
:1006D00000074FF000084FF0000B21F00701AC4677
:1006E000ACE8C009ACE8C009ACE8C009ACE8C00996
:1006F0008D46704710B50446AFF300802046BDE834
:100700001040FFF78FBD00000048704764010020D3
:1007100001491820ABBEFEE726000200704700BF6B
:10072000FEE7704701B5094800680949B0FBF1F0E0
:100730000921B0FBF1F000994843009000BF0098F8
:10074000411E00910028FAD108BD000018000020C9
:1007500040420F0010B54FF4005000F057F84FF42E
:10076000804000F053F810BD72B600BFFEE70000F5
:1007700070B5044600F04EF906462546681C10B1D7
:1007800004480078054400BF00F044F9801BA842EB
:10079000FAD370BD1400002070B50446184802F06A
:1007A000B3FCB4F5804F27D100250AE06420FFF7A1
:1007B000B9FF4FF48041134800F014F900B170BD47
:1007C0006D1C642DF2DB02F015F90F490870084624
:1007D00000786F2805D10122D1030A4800F014F9EE
:1007E0000BE009480078852807D100224FF400412A
:1007F000044800F009F900E000BF00BFDFE7000097
:10080000002C0140000400480B00002010B50446F5
:1008100004480068204020B1024804602046FFF7E9
:10082000BBFF10BD1404014078B503460022C6E0AA
:10083000012696400D6805EA0604002C72D04D682A
:10084000012D08D04D68022D05D04D68112D02D024
:100850004D68122D13D1986856000325B540A84362
:100860005600CD68B54028439860586801259540EA
:10087000A8430D79C5F30015954028435860D86802
:1008800056000325B540A84356008D68B54028435F
:10089000D8604D68022D02D04D68122D13D1D608B4
:1008A00003F1200555F826005507EE0E0F25B5403B
:1008B000A8435607F60E0D69B5402843D60803F144
:1008C000200545F82600186856000325B540A843C2
:1008D0000D7905F003055600B540284318604D68B2
:1008E00005F08055B5F1805F68D100BF374DAD6927
:1008F00045F00105354EB5613546AD6905F0010598
:10090000009500BF00BF4FEAB635960855F826009F
:1009100095072E0F0F25B540A843B3F1904F02D194
:10092000002510E04AE02A4DAB4201D101250AE042
:10093000284DAB4201D1022505E0274DAB4201D144
:10094000032500E005259607360FB5402843234DC3
:10095000960845F82600224D2868A0434D6805F406
:100960008035B5F5803F00D120431D4D28602D1DF9
:100970002868A0434D6805F40035B5F5003F00D167
:100980002043174D2D1D28602D1D2868A0434D685C
:1009900005F48015B5F5801F00D12043104D0835B2
:1009A00028602D1D2868A0434D6805F40015B5F595
:1009B000001F00D120430A4D0C352860521C0D68E1
:1009C000D540002D7FF434AF78BD00000010024008
:1009D0000004004800080048000C004808000140DE
:1009E00000040140024613690B400BB1012000E0F6
:1009F0000020704710B5426921EA020302EA0104AF
:100A000043EA0443836110BD0AB1816100E0816261
:100A10007047000001480068704700000C0000208B
:100A20000348006803490978084401490860704791
:100A30000C0000201400002010B50848006840F0A9
:100A4000100006490860032000F0A0F8002000F024
:100A500007F800F02BF8002010BD00000020024035
:100A600070B504460E4800784FF47A71B1FBF0F08F
:100A70000C490968B1FBF0F5284601F033FC08B1D8
:100A8000012070BD102C07D200222146501E00F01C
:100A90003FF80548046001E00120F2E70020F0E79C
:100AA00014000020180000201000002008B500BF2E
:100AB0000E48806940F001000C4988610846806951
:100AC00000F00100009000BF00BF00BF0846C069F1
:100AD00040F08050C8610846C06900F08050009026
:100AE00000BF00BF072000F051F808BD0010024011
:100AF00001460846002809DB00F01F0301229A4046
:100B000043099B0003F1E023C3F8002100BF7047B5
:100B10002DE9F05F80460D461646002702F020FBC7
:100B2000074639462A46334601F00700C0F1070A56
:100B3000BAF1040F02D94FF0040A01E0C0F1070A2C
:100B4000D14600F1040ABAF1070F02D24FF0000AB1
:100B500001E0A0F1030AD4464FF0010A0AFA09FAAB
:100B6000AAF1010A0AEA020A0AFA0CFA4FF0010B8A
:100B70000BFA0CFBABF1010B0BEA030B4AEA0B047B
:100B80002146404602F0F4FABDE8F09F00BF00F0B5
:100B90000702064B19684FF6FF031940044B0B433D
:100BA00043EA0221014B196000BF70470CED00E0E1
:100BB0000000FA05F8B50446002600250027206845
:100BC00000F48030B0F5803F73D17A48C06900F0FE
:100BD000805070B900BF7748C06940F080507549B7
:100BE000C8610846C06900F08050009000BF00BF97
:100BF00001277148006800F48070B0B96E48006841
:100C000040F480706C490860FFF704FF064606E078
:100C1000FFF700FF801B642801D90320F8BD664858
:100C2000006800F480700028F2D06248006A00F486
:100C30004075002D6BD0A08800F44070A84266D0AB
:100C40005C48006A20F440750121080490FAA0F085
:100C5000B0FA80F0594A02EB8000C0F8001400207E
:100C6000090491FAA1F1B1FA81F102EB8101C1F815
:100C700000045048056205F00100B8B3FFF7CAFE52
:100C8000064608E0FFF7C6FE801B41F28831884225
:100C900001D90320C2E74020022191FAA1F1B1FA63
:100CA00081F108430121B1EB601F03D14148006885
:100CB0001FE03BE04020022191FAA1F1B1FA81F15D
:100CC00008430221B1EB601F02D13A48006A10E0EC
:100CD0004020022191FAA1F1B1FA81F108430421E7
:100CE000B1EB601F03D13348406802E00FE03148A8
:100CF000406A4021022292FAA2F2B2FA82F2114331
:100D000001F01F020121914008400028BAD0294873
:100D1000006A20F440706168084326490862012F88
:100D200004D10846C06920F08050C861207800F0E6
:100D3000010038B11F48006B20F00300A168084390
:100D40001C490863207800F02000202807D11948AA
:100D5000006B20F01000E168084316490863207812
:100D600000F08000802807D11248C06A20F4F87093
:100D7000216908430F49C862208800F48050B0F50B
:100D8000805F07D10B48006B20F4807061690843D5
:100D900008490863208800F48040B0F5804F07D1EF
:100DA0000448006B20F48050A1690843014908639E
:100DB000002033E700100240007000400000424273
:100DC00070B504460D4600260CB9012070BDA2483E
:100DD000006800F00700A8420ED29F48006820F08B
:100DE000070028439C4908600846006800F0070097
:100DF000A84201D00120E9E7207800F00200022893
:100E000007D19648406820F0F000A1680843934954
:100E10004860207800F0010000287CD0606801283C
:100E20003BD12020010391FAA1F1B1FA81F10843ED
:100E30000121B1EB601F02D1884800681DE020202D
:100E4000010391FAA1F1B1FA81F108430221B1EB5A
:100E5000601F02D18148006A0FE02020010391FA4F
:100E6000A1F1B1FA81F108430421B1EB601F02D175
:100E70007A48406801E07948406A20210A0392FAE2
:100E8000A2F2B2FA82F2114301F01F020121914055
:100E9000084000287CD1012098E7606802283BD1F7
:100EA0002020010591FAA1F1B1FA81F10843012155
:100EB000B1EB601F02D1694800681DE020200105E8
:100EC00091FAA1F1B1FA81F108430221B1EB601F5F
:100ED00002D16248006A0FE02020010591FAA1F1D9
:100EE000B1FA81F108430421B1EB601F02D15B48E4
:100EF000406801E05948406A20210A0592FAA2F2AE
:100F0000B2FA82F2114301F01F0201219140084020
:100F1000E8BB01205AE758E02020022191FAA1F114
:100F2000B1FA81F108430121B1EB601F02D14B48B6
:100F300000681DE02020022191FAA1F1B1FA81F1AF
:100F400008430221B1EB601F02D14448006A0FE060
:100F50002020022191FAA1F1B1FA81F10843042184
:100F6000B1EB601F02D13D48406801E03B48406A58
:100F70002021022292FAA2F2B2FA82F2114301F087
:100F80001F0201219140084008B901201EE7FFE738
:100F90003248406820F00300616808432F494860E8
:100FA000FFF738FD064608E0FFF734FD801B41F2ED
:100FB0008831884201D9032008E72848406800F0BA
:100FC0000C006168B0EB810FEED12348006800F09F
:100FD0000700A8420ED92048006820F007002843E7
:100FE0001D4908600846006800F00700A84201D0CB
:100FF0000120EBE6207800F00400042807D1174810
:10100000406820F4E060E1680843144948602078B3
:1010100000F00800082808D11048406820F460500B
:10102000216940EAC1000D49486000F01FF80B49F2
:10103000496801F0F001F02292FAA2F2B2FA82F2CB
:10104000D140074A515CC84006490860064800681C
:10105000FFF706FD0020B9E6002002400010024024
:10106000F232000818000020100000202DE9F041A5
:101070000024002500270026A0461F48446804F0ED
:101080000C0078B3042802D008282CD102E0DFF845
:101090006C802CE004F470104FF4701191FAA1F1FF
:1010A000B1FA81F1C84016490E5C1348C06A00F0DD
:1010B0000F000F2191FAA1F1B1FA81F1C840114955
:1010C0000D5C04F4803040B12A4600230B481946D9
:1010D000FFF7CEF8A0FB067102E00B48A0FB0671FB
:1010E000B84604E000E000BFDFF8108000BF00BF9A
:1010F0004046BDE8F08100000010024000127A0076
:10110000D2320008E232000800093D00F8B504467A
:101110000CB90120F8BD207800F0010000287BD038
:10112000FA48406800F00C0004280CD0F7484068EA
:1011300000F00C00082845D1F448406800F48030E5
:10114000B0F5803F3ED12020010391FAA1F1B1FA20
:1011500081F108430121B1EB601F02D1EB48006827
:101160001DE02020010391FAA1F1B1FA81F10843B9
:101170000221B1EB601F02D1E448006A0FE0202099
:10118000010391FAA1F1B1FA81F108430421B1EB15
:10119000601F02D1DD48406801E0DC48406A202140
:1011A0000A0392FAA2F2B2FA82F2114301F01F028C
:1011B0000121914008400028B1D0606800282BD15F
:1011C0000120A7E700BF6068B0F5803F06D1CF4897
:1011D000006840F48030CD49086029E0606858B963
:1011E000CA48006820F48030C84908600846006892
:1011F00020F4802008601BE06068B0F5A02F0CD1BF
:10120000C248006840F48020C04908600846006871
:1012100040F4803008600BE0A1E0BC48006820F496
:101220008030BA4908600846006820F480200860D1
:1012300000BFB648C06A20F00F00A1680843B34958
:10124000C8626068A0B3FFF7E5FB054606E0FFF75C
:10125000E1FB401B642801D903205BE72020010348
:1012600091FAA1F1B1FA81F108430121B1EB601FBC
:1012700002D1A64800681EE02020010391FAA1F1E6
:10128000B1FA81F108430221B1EB601F02D19F48FE
:10129000006A10E02020010391FAA1F1B1FA81F176
:1012A00008430421B1EB601F03D19848406802E075
:1012B00010E09648406A20210A0392FAA2F2B2FA9C
:1012C00082F2114301F01F020121914008400028E1
:1012D000BDD044E0FFF79EFB054606E0FFF79AFB12
:1012E000401B642801D9032014E72020010391FA50
:1012F000A1F1B1FA81F108430121B1EB601F02D1E4
:10130000824800681DE02020010391FAA1F1B1FAA2
:1013100081F108430221B1EB601F02D17B48006AD2
:101320000FE02020010391FAA1F1B1FA81F1084305
:101330000421B1EB601F02D17448406801E073489A
:10134000406A20210A0392FAA2F2B2FA82F2114311
:1013500001F01F020121914008400028BED12078F1
:1013600000F0020002285CD16848406800F00C00E0
:1013700050B16648406800F00C00082852D163481C
:10138000406800F48030E8BB2020022191FAA1F1EE
:10139000B1FA81F108430121B1EB601F02D15B4832
:1013A00000681DE02020022191FAA1F1B1FA81F13B
:1013B00008430221B1EB601F02D15448006A0FE0DC
:1013C0002020022191FAA1F1B1FA81F10843042110
:1013D000B1EB601F02D14D48406801E04B48406AC4
:1013E0002021022292FAA2F2B2FA82F2114301F013
:1013F0001F0201219140084028B12069012802D034
:10140000012087E60EE04148006820F0F800F8224D
:1014100092FAA2F2B2FA82F26169914008433B4922
:101420000860B1E0206970B3012191FAA1F0B0FA2F
:1014300080F0374A42F82010FFF7ECFA054606E044
:10144000FFF7E8FA401B022801D9032062E62020BA
:10145000022191FAA1F1B1FA81F108430121B1EB26
:10146000601F02D1294800681EE02020022191FA65
:10147000A1F1B1FA81F108430221B1EB601F03D160
:101480002248006A10E02CE02020022191FAA1F10C
:10149000B1FA81F108430421B1EB601F02D11B486E
:1014A000406801E01948406A2021022292FAA2F223
:1014B000B2FA82F2114301F01F020121914008406B
:1014C0000028BDD01148006820F0F800F82292FAF8
:1014D000A2F2B2FA82F26169914008430B490860B6
:1014E00052E00020012191FAA1F1B1FA81F1084AFC
:1014F00042F82100FFF78EFA05460BE0FFF78AFA63
:10150000401B022806D9032004E600000010024018
:10151000000042422020022191FAA1F1B1FA81F1AA
:1015200008430121B1EB601F02D1FB4800681DE0B8
:101530002020022191FAA1F1B1FA81F108430221A0
:10154000B1EB601F02D1F448006A0FE020200221B5
:1015500091FAA1F1B1FA81F108430421B1EB601FC6
:1015600002D1ED48406801E0EB48406A20210222A8
:1015700092FAA2F2B2FA82F2114301F01F020121A3
:10158000914008400028B9D1207800F008000828D0
:1015900051D1A06980B3012191FAA1F0B0FA80F095
:1015A000DE4A02EB8000C0F88014FFF733FA0546EC
:1015B00006E0FFF72FFA401B022801D90320A9E516
:1015C0006020022191FAA1F1B1FA81F108430121D1
:1015D000B1EB601F02D1D04800681EE060200221FC
:1015E00091FAA1F1B1FA81F108430221B1EB601F38
:1015F00003D1C948006A10E01EE06020022191FA80
:10160000A1F1B1FA81F108430421B1EB601F02D1CD
:10161000C148406801E0C048406A6021022292FA55
:10162000A2F2B2FA82F2114301F01F0201219140AD
:1016300008400028BDD04FE00020012191FAA1F11F
:10164000B1FA81F1B54A02EB8101C1F88004FFF7DC
:10165000E1F9054606E0FFF7DDF9401B022801D954
:10166000032057E56020022191FAA1F1B1FA81F13E
:1016700008430121B1EB601F02D1A74800681DE0BB
:101680006020022191FAA1F1B1FA81F1084302210F
:10169000B1EB601F02D1A048006A0FE06020022178
:1016A00091FAA1F1B1FA81F108430421B1EB601F75
:1016B00002D19948406801E09748406A60210222BF
:1016C00092FAA2F2B2FA82F2114301F01F02012152
:1016D000914008400028BED1207800F00400042882
:1016E00073D100278C48C06900F0805070B900BFEA
:1016F0008948C06940F080508749C8610846C06980
:1017000000F08050009000BF00BF012784480068AF
:1017100000F48070B0B98248006840F4807080495D
:101720000860FFF777F9054606E0FFF773F9401BFD
:10173000642801D90320EDE47948006800F4807042
:101740000028F2D000BFE068012806D17248006A84
:1017500040F001007049086227E0E06858B96E481F
:10176000006A20F001006C4908620846006A20F017
:101770000400086219E0E06805280BD16648006A99
:1017800040F00400644908620846006A40F0010025
:1017900008620AE06048006A20F001005E490862C1
:1017A0000846006A20F00400086200BFE068B8B391
:1017B000FFF730F9054609E0FFF72CF9401B41F22D
:1017C0008831884202D90320A4E48BE04020022122
:1017D00091FAA1F1B1FA81F108430121B1EB601F47
:1017E00002D14D4800681EE04020022191FAA1F18B
:1017F000B1FA81F108430221B1EB601F02D14648E2
:10180000006A10E04020022191FAA1F1B1FA81F1C1
:1018100008430421B1EB601F03D13F48406802E058
:1018200010E03D48406A4021022292FAA2F2B2FA48
:1018300082F2114301F01F0201219140084000286B
:10184000BAD046E0FFF7E6F8054608E0FFF7E2F811
:10185000401B41F28831884201D903205AE44020DC
:10186000022191FAA1F1B1FA81F108430121B1EB12
:10187000601F02D1284800681DE04020022191FA33
:10188000A1F1B1FA81F108430221B1EB601F02D14D
:101890002148006A0FE04020022191FAA1F1B1FA3B
:1018A00081F108430421B1EB601F02D11A4840685E
:1018B00001E01948406A4021022292FAA2F2B2FAEB
:1018C00082F2114301F01F020121914008400028DB
:1018D000BCD1012F05D11048C06920F080500E49BD
:1018E000C86100BFE069002874D00B48406800F070
:1018F0000C0008286FD0E06902286DD100204FF05D
:10190000807191FAA1F1B1FA81F1044A42F8210003
:10191000FFF780F805460CE000100240000042424C
:1019200000700040FFF776F8401B022801D9032021
:1019300047E42020010591FAA1F1B1FA81F10843B1
:101940000121B1EB601F02D1774800681DE0202023
:10195000010591FAA1F1B1FA81F108430221B1EB3D
:10196000601F02D17048006A0FE02020010591FA43
:10197000A1F1B1FA81F108430421B1EB601F02D15A
:101980006948406801E06848406A20210A0592FAE7
:10199000A2F2B2FA82F2114301F01F02012191403A
:1019A00008400028BED1D4E9081008435E494968C0
:1019B00021F4741108435C4948600120010691FA42
:1019C000A1F1B1FA81F1594A42F82100FFF722F85A
:1019D000054609E0A5E092E041E0FFF71BF8401B57
:1019E000022801D9032038E42020010591FAA1F151
:1019F000B1FA81F108430121B1EB601F02D14A48DD
:101A000000681DE02020010591FAA1F1B1FA81F1F1
:101A100008430221B1EB601F02D14348006A0FE086
:101A20002020010591FAA1F1B1FA81F108430421C6
:101A3000B1EB601F02D13C48406801E03A48406A7F
:101A400020210A0592FAA2F2B2FA82F2114301F0C1
:101A50001F020121914008400028BED061E0002013
:101A60004FF0807191FAA1F1B1FA81F12F4A42F859
:101A70002100FEF7CFFF054606E0FEF7CBFF401B37
:101A8000022801D903202FE42020010591FAA1F1B9
:101A9000B1FA81F108430121B1EB601F02D1224864
:101AA00000681DE02020010591FAA1F1B1FA81F151
:101AB00008430221B1EB601F02D11B48006A0FE00E
:101AC0002020010591FAA1F1B1FA81F10843042126
:101AD000B1EB601F02D11448406801E01248406A2F
:101AE00020210A0592FAA2F2B2FA82F2114301F021
:101AF0001F020121914008400028BED111E0E06999
:101B0000012800D17DE40848466806F48031206A47
:101B1000814204D106F47011606A814201D0012033
:101B20006FE400206DE4000000100240000042421B
:101B300070B504460CB9012070BD606A38B96068A0
:101B4000B0F5827F00D105E00021E16102E00021D3
:101B5000216161610021A16294F85D0028B9002033
:101B600084F85C00204600F05BF8022084F85D00F9
:101B70002068006820F0400021680860E068B0F547
:101B8000E06F01D9002501E04FF48055E068B0F521
:101B9000706F05D0E068B0F5E06F01D00021A16260
:101BA000A08800F48270218901F404410843217C5B
:101BB00001F002010843217D01F001010843218B5E
:101BC00001F400710843217F01F03801084320210E
:101BD000095D01F080010843218D01F400510843A3
:101BE000216808600421A06901EA104094F82410DB
:101BF00001F01001084394F8341001F00801084383
:101C0000A18901F47061084305F4805108432168FB
:101C1000486000202066012084F85D0000208BE7EA
:101C200010B586B00446142101A8FEF79DFC1749A3
:101C30002068884228D100BF1548806940F4805050
:101C4000134988610846806900F48050009000BF05
:101C500000BF00BF0846406940F480204861084644
:101C6000406900F48020009000BF00BF3820019040
:101C7000022002900020039003200490052005908C
:101C800001A90448FEF7D0FD06B010BD00300140A8
:101C900000100240000400482DE9F843044688463D
:101CA00016461D464FF000096068B0F5827F0DD1E1
:101CB000A06858B9042084F85D0033464246414686
:101CC0002046009500F0B0F9BDE8F88300BF94F815
:101CD0005C00012801D10220F6E7012084F85C00B5
:101CE00000BFFEF797FE074694F85D00012802D07A
:101CF0004FF0020999E0B8F1000F00D016B94FF08B
:101D0000010992E0042084F85D0000202066C4F8F8
:101D10004080A4F84460A4F84660A063A087E087F0
:101D2000E0642065E068B0F5E06F06D9206840689F
:101D300020F480502168486005E02068406840F445
:101D4000805021684860A068B0F5004F0BD1206832
:101D5000006820F04000216808602068006820F4D6
:101D60008040216808602068006800F0400040283A
:101D700005D02068006840F0400021680860E068F5
:101D8000B0F5E06F22D81CE02068806800F0010008
:101D900060B12068007B216C0870206C401C2064BE
:101DA000B4F84600401EA4F846000AE0FEF732FEF2
:101DB000C01BA84201D3681C00B915B94FF0030934
:101DC00033E0B4F846000028DED121E01CE02068B2
:101DD000806800F0010060B12068C068216C088054
:101DE000206C801C2064B4F84600401EA4F8460015
:101DF0000AE0FEF70FFEC01BA84201D3681C00B921
:101E000015B94FF0030910E0B4F846000028DED100
:101E10003A462946204600F06AFF08B12020206695
:101E2000206E08B14FF0010900BF012084F85D0069
:101E300000BF002084F85C0000BF484644E72DE95D
:101E4000F84F0446884616461D464FF0000A00BF6C
:101E500094F85C00012802D10220BDE8F88F01202F
:101E600084F85C0000BFFEF7D5FD0746B14694F844
:101E70005D00012802D04FF0020ACBE0B8F1000F5C
:101E800000D016B94FF0010AC4E0032084F85D00C9
:101E900000202066C4F83880A687E6872064A4F86E
:101EA0004400A4F846002065E064A068B0F5004F47
:101EB0000BD12068006820F040002168086020688D
:101EC000006840F48040216808602068006800F0E5
:101ED0004000402805D02068006840F0400021689C
:101EE0000860E068B0F5E06F2FD9606810B1B9F113
:101EF000010F09D1A06B00882168C860A06B801C0D
:101F0000A063E08F401EE0871BE02068806800F03F
:101F1000020002280AD1A06B00882168C860A06B6B
:101F2000801CA063E08F401EE0870AE0FEF772FD90
:101F3000C01BA84201D3681C00B915B94FF0030AB1
:101F400068E0E08F0028E0D14AE0606810B1B9F1A4
:101F5000010F17D1E08F01280AD9A06B00882168F2
:101F6000C860A06B801CA063E08F801EE08709E042
:101F7000A06B007821680873A06B401CA063E08F01
:101F8000401EE08729E02068806800F002000228F7
:101F900018D1E08F01280AD9A06B00882168C86099
:101FA000A06B801CA063E08F801EE08715E0A06B13
:101FB000007821680873A06B401CA063E08F401E6E
:101FC000E0870AE0FEF726FDC01BA84201D3681C8B
:101FD00000B915B94FF0030A1CE0E08F0028D2D1F8
:101FE0003A462946204600F0C3FE08B1202020666C
:101FF000A06850B900BF002000902068C068009021
:1020000020688068009000BF00BF206E08B14FF0CC
:10201000010A00BF012084F85D0000BF002084F8A1
:102020005C0000BF504618E72DE9FF5F0446894673
:1020300092461D460E9E012001900020009000BF98
:1020400094F85C00012803D1022004B0BDE8F09FA1
:10205000012084F85C0000BFFEF7DCFC074694F822
:102060005D00029060680390A846AB460298012884
:102070000BD00398B0F5827F04D1A06810B9029804
:10208000042802D00220009022E1B9F1000F03D011
:10209000BAF1000F00D015B90120009018E194F8B2
:1020A0005D00042802D0052084F85D000020206631
:1020B000C4F840A0A4F84650A4F84450C4F838909E
:1020C000E587A587E0642065E068B0F5E06F02D899
:1020D000BBF1010F06D92068406820F480502168C8
:1020E000486005E02068406840F4805021684860FE
:1020F0002068006800F04000402805D02068006893
:1021000040F0400021680860E068B0F5E06F4ED90B
:10211000606810B1B8F1010F09D1A06B0088216887
:10212000C860A06B801CA063E08F401EE08736E093
:102130002068806800F00200022810D1E08F70B1A2
:10214000019801280BD1A06B00882168C860A06BA2
:10215000801CA063E08F401EE08700200190206873
:10216000806800F0010080B1B4F8460068B12068D2
:10217000C068216C0880206C801C2064B4F8460084
:10218000401EA4F8460001200190FEF743FCC01B4E
:10219000B04204D3701C10B10320009098E0E08F8F
:1021A0000028C5D1B4F846000028C1D185E0606898
:1021B00010B1B8F1010F17D1E08F01280AD9A06B37
:1021C00000882168C860A06B801CA063E08F801E1F
:1021D000E08709E0A06B007821680873A06B401CC1
:1021E000A063E08F401EE08760E02068806800F018
:1021F000020002281ED1E08FE0B10198012819D118
:10220000E08F01280AD9A06B00882168C860A06B04
:10221000801CA063E08F801EE08709E0A06B00783F
:1022200021680873A06B401CA063E08F401EE0870C
:10223000002001902068806800F0010058B3B4F8D5
:10224000460040B3B4F84600012816D92068C0689B
:10225000216C0880206C801C2064B4F84600801E2D
:10226000A4F84600B4F84600012812D82068406857
:1022700040F48050216848600BE02068007B216CAE
:102280000870206C401C2064B4F84600401EA4F87E
:10229000460001200190FEF7BDFBC01BB04201D3F8
:1022A000701C00B916B90320009011E0E08F0028DF
:1022B0009BD1B4F84600002897D13A4631462046D3
:1022C00000F056FD18B1012000902020206600BFCC
:1022D000012084F85D0000BF002084F85C0000BF8E
:1022E0000098B2E670B504462546681EB0F1807FBE
:1022F00001D301200FE0681E4FF0E02148610F215B
:102300004FF0FF3000F034FF00204FF0E0218861F3
:1023100007200861002070BD7047704770470000BB
:1023200030B502460B4600BF92F83C00012801D1AF
:10233000022030BD012082F83C0000BF022082F85C
:102340003D001068416810688468174D1068A84205
:1023500003D121F470015868014321F0700118681D
:10236000014310684160104D1068A8420BD01068FE
:10237000B0F1804F07D00D4D1068A84203D00C4D2E
:102380001068A84205D124F08004986804431068BE
:102390008460012082F83D0000BF002082F83C00EC
:1023A00000BF00BFC5E70000002C01400004004052
:1023B0000040014010B504460CB9012010BD94F84E
:1023C0003D0028B9002084F83C00204600F02AF89F
:1023D000022084F83D00211D206800F037FE012016
:1023E00084F8480000BF84F83E0001213F200155D9
:1023F00040200155412001554220015543200155FF
:1024000000BF00BF012084F844004520015546204C
:1024100001554720015500BF012084F83D000020F0
:10242000CCE7000038B504460D492068884215D134
:1024300000BF0C48806940F400600A498861084682
:10244000806900F40060009000BF00BF00221146C8
:102450001920FEF75DFB1920FEF74AFB38BD00008E
:10246000002C014000100240014691F83D00012877
:1024700001D001207047022081F83D000868C06843
:1024800040F001000B68D860144B086898420BD0EC
:102490000868B0F1804F07D0114B0868984203D00C
:1024A000104B0868984210D1086880680E4B00EA0B
:1024B0000302062A0FD0B2F5803F0CD008680068EE
:1024C00040F001000B68186005E00868006840F003
:1024D00001000B6818600020CCE70000002C0140D0
:1024E0000004004000400140070001002DE9F041D8
:1024F00004460D4600BF94F83C00012802D102209A
:10250000BDE8F081012084F83C0000BF022084F87F
:102510003D00206886683748064026F47F462068DC
:1025200086602868502833D00CDC202850D004DC8A
:1025300000284BD0102851D149E0302849D04028FC
:102540004CD139E060282DD0702807D0B0F5805FDD
:1025500003D0B0F5005F41D10DE040E0D5E90213B2
:102560006A68206800F0BCFD2068866846F077063F
:102570002068866033E0D5E902136A68206800F0BD
:10258000AFFD2068806840F480402168886026E0C4
:10259000EA686968206800F0BAFD5021206800F000
:1025A000AAFD1CE0EA686968206800F0C3FD6021AC
:1025B000206800F0A0FD12E0EA686968206800F079
:1025C000A6FD4021206800F096FD08E000BF00BF96
:1025D00000BF2968206800F08EFD00E000BF00BF4A
:1025E000012084F83D0000BF002084F83C0000BFBB
:1025F00000BF85E788FFFEFF704710B504462068DE
:102600000069C0F34000D8B12068C068C0F3400042
:10261000B0B16FF0020021680861012020772068C6
:10262000806900F0030018B12046FFF7E5FF05E0E0
:10263000204600F0BEF8204600F0BCF800202077CD
:1026400020680069C0F38000D8B12068C068C0F37A
:102650008000B0B16FF0040021680861022020778B
:102660002068806900F4407018B12046FFF7C4FF6D
:1026700005E0204600F09DF8204600F09BF8002081
:10268000207720680069C0F3C000D8B12068C06816
:10269000C0F3C000B0B16FF00800216808610420E9
:1026A00020772068C06900F0030018B12046FFF7CA
:1026B000A3FF05E0204600F07CF8204600F07AF801
:1026C0000020207720680069C0F30010D8B120688E
:1026D000C068C0F30010B0B16FF01000216808614D
:1026E000082020772068C06900F4407018B12046A7
:1026F000FFF782FF05E0204600F05BF8204600F07F
:1027000059F8002020772068006900F0010058B1D6
:102710002068C06800F0010030B16FF0010021684E
:102720000861204600F047F820680069C0F3C01037
:1027300058B12068C068C0F3C01030B16FF080009D
:10274000216808612046FFF7E8FD20680069C0F3B2
:10275000002058B12068C068C0F3C01030B16FF4D9
:102760008070216808612046FFF7D6FD2068006967
:10277000C0F3801058B12068C068C0F3801030B139
:102780006FF0400021680861204600F015F82068CD
:102790000069C0F3401058B12068C068C0F3401011
:1027A00030B16FF02000216808612046FFF7B6FDC8
:1027B00010BD704770477047704700BFFEE70000CC
:1027C00000B587B0142102A8FDF7CEFE00BF434834
:1027D000406940F40020414948610846406900F4DE
:1027E0000020019000BF00BF00BF0846406940F4D0
:1027F000800048610846406900F48000019000BFF5
:1028000000BF00BF0846406940F4003048610846F8
:10281000406900F40030019000BF00BF00BF0846CF
:10282000406940F4802048610846406900F48020F7
:10283000019000BF00BF002220214FF09040FEF722
:10284000E3F8002248F2C0012548FEF7DDF84FF416
:1028500000500290234803900020049002A92248CF
:10286000FDF7E2FF0C20029002200390002004906C
:10287000032005900720069002A94FF09040FDF735
:10288000D3FF2020029001200390002004900590A7
:1028900002A94FF09040FDF7C7FF4FF4804002902F
:1028A000104803900120049002A90D48FDF7BCFFD9
:1028B00048F2C0000290012003900020049005908F
:1028C00002A90748FDF7B0FF002211462820FEF7B5
:1028D0001FF92820FEF70CF907B000BD00100240D8
:1028E00000040048000021100008004810B51248FC
:1028F000124908604FF48270486000210F488160DF
:102900004FF4E061C1600021016141614FF4007149
:1029100081612021C1610021016241628162072140
:10292000C1620021016308214163FFF701F908B189
:10293000FDF71AFF10BD0000003001401C00002010
:1029400000B587B000200390049005900690009099
:102950000190029015481649086041F6FF00486052
:1029600000211348816040F6B831C1600021016147
:1029700041618161FFF71EFD08B1FDF7F5FE4FF4DF
:102980008050039003A90A48FFF7B0FD08B1FDF796
:10299000EBFE002000900190029069460448FFF78A
:1029A000BFFC08B1FDF7E0FE07B000BD002C014000
:1029B0008000002000BFFEE700BFFEE710B5002446
:1029C000002000F083F8044644F003042146002070
:1029D00000F0F2F8012240210548FEF715F8962094
:1029E000FDF7A0FE00F032F800F050F810BD000036
:1029F0000004004870B501240125072000F066F8A6
:102A0000044604F04000B8B100BF0F20FDF78AFE75
:102A100005220C49612000F087F80F20FDF782FEA7
:102A20004021072000F0C8F8072000F04FF80446C6
:102A300004F040000028E8D10248057802480570FB
:102A4000284670BD030000200900002008B50CA036
:102A500000680090002280210A48FDF7D5FF4FF45E
:102A60007A73012269460848FFF7E9F90120FDF76A
:102A700059FE012280210348FDF7C6FF08BD000072
:102A8000E2000000000400481C00002008B50CA073
:102A900000680090002280210A48FDF7B5FF4FF43E
:102AA0007A73012269460848FFF7C9F90120FDF74A
:102AB00039FE012280210348FDF7A6FF08BD000072
:102AC000E1000000000400481C00002001B584B0B3
:102AD00000200390002280211148FDF795FF4FF45C
:102AE0007A70012303AA04A900900E48FFF79CFA0C
:102AF0009DF8100007280AD0FF2002904FF47A704A
:102B0000012303AA02A900900648FFF78DFA0122CB
:102B100080210348FDF778FF9DF80C0005B000BD4B
:102B2000000400481C00002037B50C461546002262
:102B300080210B48FDF768FF4FF47A730122694644
:102B40000848FFF77CF94FF47A732A462146054876
:102B5000FFF7A2F8012280210148FDF755FF3EBD95
:102B6000000400481C00002008B510A00068009078
:102B7000002280210E48FDF747FF4FF47A730122AF
:102B800069460C48FFF75BF90120FDF7CBFD732088
:102B900000904FF47A73012269460648FFF74FF917
:102BA000012280210248FDF72FFF08BD50000000E0
:102BB000000400481C00002013B59DF8000040F000
:102BC00020000090002280210B48FDF71DFF4FF4EC
:102BD0007A73012269460948FFF731F94FF47A7395
:102BE000012201A90548FFF72AF9012280210248A4
:102BF000FDF70AFF1CBD0000000400481C00002077
:102C000037B50C4615469DF8000040F020000090B6
:102C1000002280210C48FDF7F7FE4FF47A73012261
:102C200069460A48FFF70BF90120FDF77BFD4FF4D9
:102C30007A732A4621460548FFF701F901228021CF
:102C40000148FDF7E1FE3EBD000400481C000020E5
:102C500010B5002240212348FDF7D6FE41F288300E
:102C6000FDF760FD3A210020FFF7A6FF41F2883012
:102C7000FDF758FD02210120FFF79EFF02210846C3
:102C8000FFF79AFF01210320FFF796FF5F21042041
:102C9000FFF792FFFFF768FF00211D20FFF78CFF71
:102CA00000211C20FFF788FF70210720FFF784FF19
:102CB0004C210520FFF780FF06210846FFF77CFF27
:102CC000032209491020FFF79BFF032206490B202E
:102CD000FFF796FF05211220FFF76EFFFFF76EFE4C
:102CE00010BD000000040048000000207047F8B547
:102CF00004460E4615466068B0F5827F0DD1A06887
:102D0000B0F5004F03D0A068B0F5806F05D1206802
:102D1000006820F0400021680860334600228021CE
:102D20002046009500F0C8F828B1206E40F0200041
:102D300020660320F8BD6068B0F5827F16D1A068D8
:102D4000B0F5004F03D0A068B0F5806F0ED13346C8
:102D500000224FF4C0612046009500F03BF828B1F6
:102D6000206E40F0200020660320E3E70020E1E72A
:102D7000F8B504460E461546334600224FF4C051BE
:102D80002046009500F026F828B1206E40F0200083
:102D900020660320F8BD334600228021204600959E
:102DA00000F08AF828B1206E40F020002066032051
:102DB000F0E7334600224FF4C0612046009500F052
:102DC00009F828B1206E40F0200020660320E1E7DA
:102DD0000020DFE72DE9F84F04460D4616469846D9
:102DE000DDF82890FDF716FEA0EB0900A8EB000720
:102DF000FDF710FE82462F480068C0EBC00000EBD4
:102E00008000000D784300904CE0B5F5C06F02D112
:102E10000EB92068007B08F10100002842D0FDF7C0
:102E2000F9FDA0EB0A00B84200D2A7BB20684068B9
:102E300020F0E000216848606068B0F5827F0DD125
:102E4000A068B0F5004F03D0A068B0F5806F05D141
:102E50002068006820F0400021680860A06AB0F592
:102E6000005F0DD100BF2068006820F40050216889
:102E700008602068006840F400502168086000BFC6
:102E8000012084F85D0000BF002084F85C0000BFD2
:102E90000320BDE8F88FFFE7009800B900270098ED
:102EA000401E0090206880682840B042ADD10020CC
:102EB000EFE70000180000202DE9F84F04460D460A
:102EC00090461E46DDF82890FDF7A4FDA0EB090012
:102ED000371AFDF79FFD82462C480068C0F3CB30BF
:102EE0007843009045E0701C002842D0FDF792FD29
:102EF000A0EB0A00B84200D2A7BB2068406820F0CF
:102F0000E000216848606068B0F5827F0DD1A0685C
:102F1000B0F5004F03D0A068B0F5806F05D12068F0
:102F2000006820F0400021680860A06AB0F5005FEA
:102F30000DD100BF2068006820F4005021680860AF
:102F40002068006840F400502168086000BF01203C
:102F500084F85D0000BF002084F85C0000BF0320FF
:102F6000BDE8F88FFFE7009800B900270098401EE1
:102F70000090206880682840A84201D1012000E02C
:102F800000204045AFD10020EAE7000018000020F3
:102F9000704710B5FDF744FD10BD00B597B028216E
:102FA0000DA8FDF7E1FA142108A8FDF7DDFA1C21B0
:102FB00001A8FDF7D9FA02200D90012011901020F0
:102FC000129002201490002115914FF46011169177
:102FD0000DA8FEF79BF808B1FDF7C6FB0F2008907F
:102FE0000220099000200A904FF480600B9000208E
:102FF0000C90022108A8FDF7E3FE08B1FDF7B4FB31
:103000004FF4805001900020069001A8FDF7D2FDFA
:1030100008B1FDF7A9FB17B000BD00000348006828
:1030200040F47000014908607047000088ED00E03E
:1030300010B520214FF09040FDF7DCFCFFF708FEB3
:103040000148FFF7DAFA10BD8000002010B50268D1
:103050001E4B984205D0B0F1804F02D01C4B9842D5
:1030600003D122F070024B681A43184B98420ED0DD
:10307000B0F1804F0BD0164B984208D0154B9842B8
:1030800005D0154B984202D0144B984203D122F43C
:103090004072CB681A4322F080034C6943EA040271
:1030A00002608B68C3620B688362084B984208D049
:1030B000084B984205D0084B984202D0074B9842E3
:1030C00001D10B6903630123436110BD002C014052
:1030D000000400400040014000440140004801401D
:1030E00030B50C46816821F47F4142EA032525432F
:1030F0002943816030BD0A46816821F0700142F0A9
:10310000070319438160704700214162704730B561
:103110000B461446026A056A25F0010505628169BD
:1031200021F0F00141EA041122F00A021A43816100
:10313000026230BD30B50B461446056A25F0100515
:1031400005628169026A21F4704141EA043122F08A
:10315000A00242EA03128161026230BD00BFFEE7B5
:1031600002480068C0F30220704700000CED00E048
:1031700010B5002804DB0A07130E054A135406E0B5
:103180000A07140E034A00F00F031B1FD45410BD8E
:1031900000E400E018ED00E030380A2801D20120F8
:1031A000704700207047000000BFFDF745FCFFF7A7
:1031B000F4FEFFF705FBFFF799FBFFF7C1FB26487D
:1031C000FFF752F9FFF744FDC820FDF7D1FA41E0BF
:1031D00000BF4FF49670FDF7CBFA0020FFF776FCA6
:1031E0001E490870084602781DA12248FDF7B8F86C
:1031F0001A4802781AA11F48FDF7B2F80120FFF71C
:1032000065FC164908701C4802781CA11948FDF796
:10321000A7F80220FFF75AFC104908700846027808
:103220001AA11448FDF79CF80720FFF74FFC0B4943
:103230000870084602781AA10E48FDF791F806209A
:10324000FFF744FC054908700846027819A10948AF
:10325000FDF786F8BCE70000800000200A0000208F
:10326000434F4E4649473A203078253032580D0AB0
:1032700000000000CC0000200B000020454E5F4104
:10328000413A203078253032580D0A00454E5F52C1
:1032900058414444523A203078253032580D0A00C3
:1032A0005354415455533A203078253032580D0A42
:1032B0000000000052465F53455455503A20307884
:1032C000253032580D0A00004FF04070E1EE100A30
:1032D000704702030405060708090A0B0C0D0E0FC0
:1032E00010100102030405060708090A0B0C0D0E55
:1032F0000F10000000000000000001020304060798
:103300000809000000000102030430313233343573
:103310003637383941424344454640305800303111
:10332000323334353637383961626364656640302C
:103330007800040000080000000000000002000106
:103340000000100064330008000000201C00000092
:10335000C4010008803300081C000020AC070000F6
:10336000E0010008B3B40100000000000001000308
:1033700000000000100000000100000000127A00B0
:040000050800018965
:00000001FF
