:020000040800F2
:10000000000800203102000855220008AD20000839
:10001000512200081F0700089D2900080000000069
:100020000000000000000000000000001D29000882
:100030008D07000800000000C52400081F290008E3
:100040004B0200084B0200084B0200084B0200085C
:100050004B0200084B0200084B0200084B0200084C
:100060004B0200084B0200084B0200084B0200083C
:1000700025070008350700084B0200084B0200085E
:100080004B0200084B0200084B0200084B0200081C
:100090004B0200084B0200084B0200084B0200080C
:1000A0004B0200084B0200084B0200084B020008FC
:1000B0004B0200084B020008000000004B02000841
:1000C0004B02000800000000000000004B02000886
:1000D000000000004B0200084B0200084B02000821
:1000E000C10700084B0200080000000000000000EB
:1000F0000000000000000000000000000000000000
:1001000000000000000000000000000000000000EF
:1001100000000000000000004B0200084B02000835
:1001200000000000000000000000000000000000CF
:1001300000000000000000000000000000000000BF
:100140004B0200084B020008000000004B020008B0
:100150004B0200084B0200084B0200084B0200084B
:100160004B0200084B0200080000000000000000E5
:10017000000000000000000000000000000000007F
:10018000000000004B02000800F002F800F041F807
:100190000AA090E8000C82448344AAF10107DA45E2
:1001A00001D100F036F8AFF2090EBAE80F0013F0F3
:1001B000010F18BFFB1A43F001031847C4290000C0
:1001C000E4290000103A24BF78C878C1FAD8520751
:1001D00024BF30C830C144BF04680C6070470000C1
:1001E0000023002400250026103A28BF78C1FBD840
:1001F000520728BF30C148BF0B607047782900F014
:10020000EB80002070471FB502F07CFC1FBD10B5CD
:1002100010BD00F04AFA1146FFF7F5FF02F0E4FBCB
:1002200000F068FA03B4FFF7F2FF03BC00F070FAC5
:100230000948804709480047FEE7FEE7FEE7FEE77A
:10024000FEE7FEE7FEE7FEE7FEE7FEE704480549B6
:10025000054A064B704700008929000889010008FB
:1002600000020020000800200004002000040020FC
:1002700053EA020C00F069802DE9F04B4FF00006C4
:10028000002B1FBFB3FA83F503FA05F424FA05F631
:100290005E4012BF1643B2FA82F502FA05F4C5F1C8
:1002A00020051EBF22FA05FC44EA0C04203556EA5C
:1002B000044C4FEA144418BF641C4FF000084FF080
:1002C0000009904271EB030C39D3002919BFB1FA30
:1002D00081F701FA07F6B0FA80F700FA07F6C7F1DE
:1002E00020071EBF20FA07FC46EA0C062037B6FBA3
:1002F000F4FCA7EB0507103F07F01F0BCBF120061E
:100300000CFA0BFB2CFA06F644BFB3460026202F4E
:10031000A4BF5E464FF0000B5BEA060C08BF4FF02F
:10032000010B19EB0B09ABFB027C48EB0608C01B69
:1003300006FB02CC0BFB03CC71EB0C01C1E70B46B7
:10034000024641464846BDE8F08B13B54FF0000029
:100350004FF00001AFF30080BDE81C407047000083
:100360000FB41CB5074B06AA7B446946009005985C
:1003700000F083F90020694600F092F91CBC5DF89A
:1003800014FB00003503000070B504468569006861
:10039000C10601D5302600E02026C00707D070BD79
:1003A000D4E9012130469047206A401C20626D1E2E
:1003B000F6D570BD70B5044685690078C00707D1D1
:1003C00070BDD4E9012120209047206A401C2062A2
:1003D0006D1EF6D570BD000070B504460D46214671
:1003E0001068AFF300802188090502D50F4A7A44CE
:1003F00002E00E4A7A440E32002104F1240305E0A3
:1004000000F00F060009965D5E54491C0028F7D1E4
:1004100020780023000704D5702D02D009B10223F3
:1004200011322046BDE8704000F0C8B854270000E3
:100430002DE9F05F894604464FF0000ADFF824B149
:10044000FB44C0F820A02046E168884700287DD002
:10045000252806D0D4E901219047206A401C20625B
:10046000F1E700255F462046E168884720280646D8
:1004700007DB312E05D2B81910F8200C08B105435E
:10048000F1E7A80701D525F00405C4F81CA0002752
:10049000C4F818A02A2E09D0304602F09DFA38B3CD
:1004A00004EB8708303EC8F8186019E059F8041BBF
:1004B000204604EB87029161E1688847012F0646D8
:1004C00018D1E069002820DA25F020051DE0D8F8D1
:1004D000180000EB800006EB40003038C8F8180028
:1004E0002046E1688847064602F076FA0028EED1F9
:1004F000012F0AD02E2E08D12046E16888477F1CA4
:100500000646022F45F02005C4DBA069002803DA67
:10051000404245F00105A061E80701D025F0100533
:10052000A6B1A6F14100192802D8203645F400658D
:100530004A463146204625604D46FFF75FFE60B1D2
:10054000012807D0ED1D25F0070000E007E000F1CD
:10055000080978E705F1040975E730467AE7206A6B
:10056000BDE8F09F2A2700004FF0000200B51346B7
:1005700094469646203922BFA0E80C50A0E80C50C3
:10058000B1F12001BFF4F7AF090728BFA0E80C5074
:1005900048BF0CC05DF804EB890028BF40F8042B6D
:1005A00008BF704748BF20F8022B11F0804F18BFDA
:1005B00000F8012B70477047704770472DE9F047EE
:1005C0000D4699469246044600F1240801688806C3
:1005D00004D5E06921F01001216000E00120A8426B
:1005E00001DD471B00E00027A1697A1902EB090031
:1005F000081AA0612078C00602D42046FFF7C4FE86
:10060000002608E0D4E901211AF806009047206A84
:10061000401C761C20624E45F4DB2078C0060AD5CB
:100620002046FFF7B1FE06E0D4E9012130209047D3
:10063000206A401C2062381EA7F10107F4DC07E0A5
:10064000D4E9012118F805009047206A401C206277
:10065000281EA5F10105F3DC2046FFF7ABFE20784C
:10066000000602D50220BDE8F0870120FBE700006C
:1006700001694A1C02610878704700B58FB0CDE966
:1006800001310021059105497944CDE90310114656
:100690006846FFF7CDFE0FB000BD0000E5FFFFFF8D
:1006A0000A6802F8010B0A607047754600F02CF8E2
:1006B000AE4605006946534620F00700854618B04F
:1006C00020B5FFF7C3FDBDE820404FF000064FF016
:1006D00000074FF000084FF0000B21F00701AC4677
:1006E000ACE8C009ACE8C009ACE8C009ACE8C00996
:1006F0008D46704710B50446AFF300802046BDE834
:100700001040FFF78FBD000000487047A001002097
:1007100001491820ABBEFEE726000200704700BF6B
:10072000FEE7000010B5024800F057F810BD0000C9
:100730008000002010B5024800F04FF810BD000006
:10074000C4000020054A0168891A1422B1FBF2F1A5
:100750008900016401490839C163704708000240FB
:1007600030B590F840500124AC40C56B6C60046813
:1007700063604468102C04D10468A2600468E160DE
:1007800003E00468A1600468E26030BD70470000C7
:1007900001B5094800680949B0FBF1F00921B0FB37
:1007A000F1F000994843009000BF0098411E00916D
:1007B0000028FAD108BD00001800002040420F00B8
:1007C00010B54FF4005000F00BF94FF4804000F0EA
:1007D00007F910BD72B600BFFEE770B50446E06BC6
:1007E00005682068066894F8401004208840284076
:1007F000D0B106F00400B8B12068006800F0200015
:1008000028B92068006820F004002168086094F886
:10081000401004208840E16B4860E06A00284ED018
:100820002046E16A88474AE094F840100220884058
:10083000284008B306F00200F0B12068006800F01C
:10084000200040B92068006820F00A002168086094
:10085000012084F8210094F8401002208840E16BC8
:10086000486000BF002084F8200000BFA06A30B3B9
:100870002046A16A884722E094F84010082088406A
:100880002840E0B106F00800C8B12068006820F0F8
:100890000E002168086094F8401001208840E16B48
:1008A00048600120A06384F8210000BF002084F884
:1008B000200000BF206B10B12046216B884770BD1F
:1008C00070B5044600250CB9012070BD022084F8E3
:1008D00021002068056843F6F0708543D4E90101E2
:1008E0000843E16808432169084361690843A16935
:1008F0000843E16908430543206805602046FFF787
:1009000021FF0020A063012084F82100002084F84A
:10091000200000BFD9E72DE9F04104460D461646F8
:100920001F464FF0000800BF94F82000012802D1B4
:100930000220BDE8F081012084F8200000BF94F877
:10094000210001282CD1022084F821000020A0637E
:100950002068006820F00100216808603B463246AC
:1009600029462046FFF7FCFEE06A30B120680068A7
:1009700040F00E00216808600BE02068006840F03D
:100980000A00216808602068006820F004002168DF
:1009900008602068006840F001002168086006E0F7
:1009A00000BF002084F8200000BF4FF0020840463E
:1009B000BFE7000070B5044600F004F9064625467E
:1009C000681C10B104480078054400BF00F0FAF834
:1009D000801BA842FAD370BD1400002070470000AD
:1009E00010B5044604480068204020B10248046065
:1009F0002046FFF7F3FF10BD1404014078B503460D
:100A00000022C6E0012696400D6805EA0604002C87
:100A100072D04D68012D08D04D68022D05D04D686B
:100A2000112D02D04D68122D13D198685600032560
:100A3000B540A8435600CD68B54028439860586833
:100A400001259540A8430D79C5F30015954028432D
:100A50005860D86856000325B540A84356008D68F5
:100A6000B5402843D8604D68022D02D04D68122D44
:100A700013D1D60803F1200555F826005507EE0ED0
:100A80000F25B540A8435607F60E0D69B54028431B
:100A9000D60803F1200545F82600186856000325FE
:100AA000B540A8430D7905F003055600B54028432D
:100AB00018604D6805F08055B5F1805F68D100BFC2
:100AC000374DAD6945F00105354EB5613546AD6927
:100AD00005F00105009500BF00BF4FEAB635960846
:100AE00055F8260095072E0F0F25B540A843B3F102
:100AF000904F02D1002510E04AE02A4DAB4201D1CF
:100B000001250AE0284DAB4201D1022505E0274D21
:100B1000AB4201D1032500E005259607360FB5400D
:100B20002843234D960845F82600224D2868A04307
:100B30004D6805F48035B5F5803F00D120431D4D4B
:100B400028602D1D2868A0434D6805F40035B5F5D3
:100B5000003F00D12043174D2D1D28602D1D286812
:100B6000A0434D6805F48015B5F5801F00D12043E2
:100B7000104D083528602D1D2868A0434D6805F4E8
:100B80000015B5F5001F00D120430A4D0C35286033
:100B9000521C0D68D540002D7FF434AF78BD0000A5
:100BA000001002400004004800080048000C004803
:100BB00008000140000401400AB1816100E0816247
:100BC0007047000001480068704700000C000020DA
:100BD00003480068034909780844014908607047E0
:100BE0000C0000201400002010B50848006840F0F8
:100BF000100006490860032000F0A0F8002000F073
:100C000007F800F02BF8002010BD00000020024083
:100C100070B504460E4800784FF47A71B1FBF0F0DD
:100C20000C490968B1FBF0F5284601F025FA08B136
:100C3000012070BD102C07D200222146501E00F06A
:100C40003FF80548046001E00120F2E70020F0E7EA
:100C500014000020180000201000002008B500BF7C
:100C60000E48806940F001000C498861084680699F
:100C700000F00100009000BF00BF00BF0846C0693F
:100C800040F08050C8610846C06900F08050009074
:100C900000BF00BF072000F051F808BD001002405F
:100CA00001460846002809DB00F01F0301229A4094
:100CB00043099B0003F1E023C3F8002100BF704704
:100CC0002DE9F05F80460D461646002701F068FECC
:100CD000074639462A46334601F00700C0F1070AA5
:100CE000BAF1040F02D94FF0040A01E0C0F1070A7B
:100CF000D14600F1040ABAF1070F02D24FF0000A00
:100D000001E0A0F1030AD4464FF0010A0AFA09FAF9
:100D1000AAF1010A0AEA020A0AFA0CFA4FF0010BD8
:100D20000BFA0CFBABF1010B0BEA030B4AEA0B04C9
:100D30002146404601F03CFEBDE8F09F00BF00F0B8
:100D40000702064B19684FF6FF031940044B0B438B
:100D500043EA0221014B196000BF70470CED00E02F
:100D60000000FA0570B504460D4600260CB90120B6
:100D700070BDA248006800F00700A8420ED29F484C
:100D8000006820F0070028439C4908600846006876
:100D900000F00700A84201D00120E9E7207800F028
:100DA0000200022807D19648406820F0F000A168B0
:100DB000084393494860207800F0010000287CD067
:100DC000606801283BD12020010391FAA1F1B1FA1A
:100DD00081F108430121B1EB601F02D1884800680E
:100DE0001DE02020010391FAA1F1B1FA81F108433D
:100DF0000221B1EB601F02D18148006A0FE0202080
:100E0000010391FAA1F1B1FA81F108430421B1EB98
:100E1000601F02D17A48406801E07948406A202189
:100E20000A0392FAA2F2B2FA82F2114301F01F020F
:100E300001219140084000287CD1012098E760689A
:100E400002283BD12020010591FAA1F1B1FA81F1EC
:100E500008430121B1EB601F02D1694800681DE021
:100E60002020010591FAA1F1B1FA81F10843022194
:100E7000B1EB601F02D16248006A0FE0202001053B
:100E800091FAA1F1B1FA81F108430421B1EB601F9D
:100E900002D15B48406801E05948406A20210A05B8
:100EA00092FAA2F2B2FA82F2114301F01F0201217A
:100EB00091400840E8BB01205AE758E02020022179
:100EC00091FAA1F1B1FA81F108430121B1EB601F60
:100ED00002D14B4800681DE02020022191FAA1F1C7
:100EE000B1FA81F108430221B1EB601F02D14448FD
:100EF000006A0FE02020022191FAA1F1B1FA81F1FC
:100F000008430421B1EB601F02D13D48406801E075
:100F10003B48406A2021022292FAA2F2B2FA82F2FF
:100F2000114301F01F0201219140084008B901203E
:100F30001EE7FFE73248406820F00300616808437D
:100F40002F494860FFF73EFE064608E0FFF73AFEED
:100F5000801B41F28831884201D9032008E72848E4
:100F6000406800F00C006168B0EB810FEED12348BF
:100F7000006800F00700A8420ED92048006820F061
:100F8000070028431D4908600846006800F0070074
:100F9000A84201D00120EBE6207800F004000428EC
:100FA00007D11748406820F4E060E168084314491D
:100FB0004860207800F00800082808D110484068F0
:100FC00020F46050216940EAC1000D49486000F0FA
:100FD0001FF80B49496801F0F001F02292FAA2F2E1
:100FE000B2FA82F2D140074A515CC8400649086013
:100FF00006480068FFF70CFE0020B9E6002002401A
:10100000001002402E2B00081800002010000020C5
:101010002DE9F0410024002500270026A0461F48A6
:10102000446804F00C0078B3042802D008282CD1BE
:1010300002E0DFF86C802CE004F470104FF47011C3
:1010400091FAA1F1B1FA81F1C84016490E5C13483A
:10105000C06A00F00F000F2191FAA1F1B1FA81F1FD
:10106000C84011490D5C04F4803040B12A46002389
:101070000B481946FFF7FCF8A0FB067102E00B488D
:10108000A0FB0671B84604E000E000BFDFF8108066
:1010900000BF00BF4046BDE8F081000000100240E4
:1010A00000127A000E2B00081E2B000800093D00DC
:1010B000F8B504460CB90120F8BD207800F0010015
:1010C00000287BD0FA48406800F00C0004280CD0BF
:1010D000F748406800F00C00082845D1F448406803
:1010E00000F48030B0F5803F3ED12020010391FA1A
:1010F000A1F1B1FA81F108430121B1EB601F02D1E6
:10110000EB4800681DE02020010391FAA1F1B1FA3B
:1011100081F108430221B1EB601F02D1E448006A6B
:101120000FE02020010391FAA1F1B1FA81F1084307
:101130000421B1EB601F02D1DD48406801E0DC48CA
:10114000406A20210A0392FAA2F2B2FA82F2114313
:1011500001F01F020121914008400028B1D06068D1
:1011600000282BD10120A7E700BF6068B0F5803FC1
:1011700006D1CF48006840F48030CD49086029E0AE
:10118000606858B9CA48006820F48030C8490860CF
:101190000846006820F4802008601BE06068B0F515
:1011A000A02F0CD1C248006840F48020C0490860DC
:1011B0000846006840F4803008600BE0A1E0BC48BD
:1011C000006820F48030BA4908600846006820F4BE
:1011D0008020086000BFB648C06A20F00F00A168F8
:1011E0000843B349C8626068A0B3FFF7EBFC05464B
:1011F00006E0FFF7E7FC401B642801D903205BE70A
:101200002020010391FAA1F1B1FA81F108430121F3
:10121000B1EB601F02D1A64800681EE02020010348
:1012200091FAA1F1B1FA81F108430221B1EB601FFB
:1012300002D19F48006A10E02020010391FAA1F139
:10124000B1FA81F108430421B1EB601F03D1984842
:10125000406802E010E09648406A20210A0392FAB2
:10126000A2F2B2FA82F2114301F01F020121914071
:1012700008400028BDD044E0FFF7A4FC054606E086
:10128000FFF7A0FC401B642801D9032014E72020AD
:10129000010391FAA1F1B1FA81F108430121B1EB07
:1012A000601F02D1824800681DE02020010391FAEE
:1012B000A1F1B1FA81F108430221B1EB601F02D123
:1012C0007B48006A0FE02020010391FAA1F1B1FAF6
:1012D00081F108430421B1EB601F02D174484068DA
:1012E00001E07348406A20210A0392FAA2F2B2FA9E
:1012F00082F2114301F01F020121914008400028B1
:10130000BED1207800F0020002285CD16848406815
:1013100000F00C0050B16648406800F00C0008284E
:1013200052D16348406800F48030E8BB202002219D
:1013300091FAA1F1B1FA81F108430121B1EB601FEB
:1013400002D15B4800681DE02020022191FAA1F142
:10135000B1FA81F108430221B1EB601F02D1544878
:10136000006A0FE02020022191FAA1F1B1FA81F187
:1013700008430421B1EB601F02D14D48406801E0F1
:101380004B48406A2021022292FAA2F2B2FA82F27B
:10139000114301F01F0201219140084028B120694A
:1013A000012802D0012087E60EE04148006820F0C5
:1013B000F800F82292FAA2F2B2FA82F26169914040
:1013C00008433B490860B1E0206970B3012191FAFC
:1013D000A1F0B0FA80F0374A42F82010FFF7F2FB94
:1013E000054606E0FFF7EEFB401B022801D903206B
:1013F00062E62020022191FAA1F1B1FA81F10843BD
:101400000121B1EB601F02D1294800681EE02020B5
:10141000022191FAA1F1B1FA81F108430221B1EB65
:10142000601F03D12248006A10E02CE02020022136
:1014300091FAA1F1B1FA81F108430421B1EB601FE7
:1014400002D11B48406801E01948406A202102226D
:1014500092FAA2F2B2FA82F2114301F01F020121C4
:10146000914008400028BDD01148006820F0F800E5
:10147000F82292FAA2F2B2FA82F26169914008432C
:101480000B49086052E00020012191FAA1F1B1FA64
:1014900081F1084A42F82100FFF794FB05460BE072
:1014A000FFF790FB401B022806D9032004E600004A
:1014B00000100240000042422020022191FAA1F1D6
:1014C000B1FA81F108430121B1EB601F02D1FB4861
:1014D00000681DE02020022191FAA1F1B1FA81F10A
:1014E00008430221B1EB601F02D1F448006A0FE00B
:1014F0002020022191FAA1F1B1FA81F108430421DF
:10150000B1EB601F02D1ED48406801E0EB48406A52
:101510002021022292FAA2F2B2FA82F2114301F0E1
:101520001F020121914008400028B9D1207800F025
:101530000800082851D1A06980B3012191FAA1F0D7
:10154000B0FA80F0DE4A02EB8000C0F88014FFF7AA
:1015500039FB054606E0FFF735FB401B022801D9A1
:101560000320A9E56020022191FAA1F1B1FA81F1ED
:1015700008430121B1EB601F02D1D04800681EE092
:101580006020022191FAA1F1B1FA81F10843022110
:10159000B1EB601F03D1C948006A10E01EE0602073
:1015A000022191FAA1F1B1FA81F108430421B1EBD2
:1015B000601F02D1C148406801E0C048406A602114
:1015C000022292FAA2F2B2FA82F2114301F01F0251
:1015D0000121914008400028BDD04FE000200121AA
:1015E00091FAA1F1B1FA81F1B54A02EB8101C1F89A
:1015F0008004FFF7E7FA054606E0FFF7E3FA401B31
:10160000022801D9032057E56020022191FAA1F1B7
:10161000B1FA81F108430121B1EB601F02D1A74863
:1016200000681DE06020022191FAA1F1B1FA81F178
:1016300008430221B1EB601F02D1A048006A0FE00D
:101640006020022191FAA1F1B1FA81F1084304214D
:10165000B1EB601F02D19948406801E09748406AA9
:101660006021022292FAA2F2B2FA82F2114301F050
:101670001F020121914008400028BED1207800F0CF
:101680000400042873D100278C48C06900F0805002
:1016900070B900BF8948C06940F080508749C8616F
:1016A0000846C06900F08050009000BF00BF0127CD
:1016B0008448006800F48070B0B98248006840F443
:1016C000807080490860FFF77DFA054606E0FFF765
:1016D00079FA401B642801D90320EDE479480068B9
:1016E00000F480700028F2D000BFE068012806D125
:1016F0007248006A40F001007049086227E0E06823
:1017000058B96E48006A20F001006C49086208462A
:10171000006A20F00400086219E0E06805280BD197
:101720006648006A40F00400644908620846006A9E
:1017300040F0010008620AE06048006A20F0010001
:101740005E4908620846006A20F00400086200BF93
:10175000E068B8B3FFF736FA054609E0FFF732FA5A
:10176000401B41F28831884202D90320A4E48BE077
:101770004020022191FAA1F1B1FA81F1084301213F
:10178000B1EB601F02D14D4800681EE040200221ED
:1017900091FAA1F1B1FA81F108430221B1EB601F86
:1017A00002D14648006A10E04020022191FAA1F1DE
:1017B000B1FA81F108430421B1EB601F03D13F4826
:1017C000406802E010E03D48406A4021022292FA5F
:1017D000A2F2B2FA82F2114301F01F0201219140FC
:1017E00008400028BAD046E0FFF7ECF9054608E0CB
:1017F000FFF7E8F9401B41F28831884201D9032004
:101800005AE44020022191FAA1F1B1FA81F1084392
:101810000121B1EB601F02D1284800681DE0402083
:10182000022191FAA1F1B1FA81F108430221B1EB51
:10183000601F02D12148006A0FE04020022191FA86
:10184000A1F1B1FA81F108430421B1EB601F02D18B
:101850001A48406801E01948406A4021022292FA81
:10186000A2F2B2FA82F2114301F01F02012191406B
:1018700008400028BCD1012F05D11048C06920F0D4
:1018800080500E49C86100BFE069002874D00B4841
:10189000406800F00C0008286FD0E06902286DD184
:1018A00000204FF0807191FAA1F1B1FA81F1044A60
:1018B00042F82100FFF786F905460CE000100240CF
:1018C0000000424200700040FFF77CF9401B0228F4
:1018D00001D9032047E42020010591FAA1F1B1FAD2
:1018E00081F108430121B1EB601F02D17748006804
:1018F0001DE02020010591FAA1F1B1FA81F1084320
:101900000221B1EB601F02D17048006A0FE0202075
:10191000010591FAA1F1B1FA81F108430421B1EB7B
:10192000601F02D16948406801E06848406A202190
:101930000A0592FAA2F2B2FA82F2114301F01F02F2
:101940000121914008400028BED1D4E90810084385
:101950005E49496821F4741108435C4948600120DC
:10196000010691FAA1F1B1FA81F1594A42F8210038
:10197000FFF728F9054609E0A5E092E041E0FFF70E
:1019800021F9401B022801D9032038E42020010559
:1019900091FAA1F1B1FA81F108430121B1EB601F85
:1019A00002D14A4800681DE02020010591FAA1F10A
:1019B000B1FA81F108430221B1EB601F02D1434823
:1019C000006A0FE02020010591FAA1F1B1FA81F13E
:1019D00008430421B1EB601F02D13C48406801E09C
:1019E0003A48406A20210A0592FAA2F2B2FA82F23B
:1019F000114301F01F020121914008400028BED090
:101A000061E000204FF0807191FAA1F1B1FA81F10B
:101A10002F4A42F82100FFF7D5F8054606E0FFF708
:101A2000D1F8401B022801D903202FE42020010512
:101A300091FAA1F1B1FA81F108430121B1EB601FE4
:101A400002D1224800681DE02020010591FAA1F191
:101A5000B1FA81F108430221B1EB601F02D11B48AA
:101A6000006A0FE02020010591FAA1F1B1FA81F19D
:101A700008430421B1EB601F02D11448406801E023
:101A80001248406A20210A0592FAA2F2B2FA82F2C2
:101A9000114301F01F020121914008400028BED1EE
:101AA00011E0E069012800D17DE40848466806F4A9
:101AB0008031206A814204D106F47011606A81424B
:101AC00001D001206FE400206DE40000001002400E
:101AD00000004242704770B504460CB9012070BD49
:101AE000606A38B96068B0F5827F00D105E00021F6
:101AF000E16102E00021216161610021A16294F8AD
:101B00005D0028B9002084F85C00204600F05CF8F5
:101B1000022084F85D002068006820F04000216801
:101B20000860E068B0F5E06F01D9002501E04FF4EE
:101B30008055E068B0F5706F05D0E068B0F5E06FF3
:101B400001D00021A162A08800F48270218901F4F3
:101B500004410843217C01F002010843217D01F08A
:101B600001010843218B01F400710843217F01F03A
:101B7000380108432021095D01F080010843218DCF
:101B800001F400510843216808600421A06901EABA
:101B9000104094F8241001F01001084394F8341018
:101BA00001F008010843A18901F47061084305F4BC
:101BB000805108432168486000202066012084F895
:101BC0005D0000208BE7000010B586B004461421AC
:101BD00001A8FEF7C9FC3F492068884277D100BFC1
:101BE0003D48806940F480503B49886108468069DF
:101BF00000F48050009000BF00BF00BF084640695D
:101C000040F4003048610846406900F4003000901C
:101C100000BF00BF00BF0846406940F48020486113
:101C20000846406900F48020009000BF00BF2020DB
:101C300001900220029000200390032004900520D0
:101C4000059001A94FF09040FEF7D8FE302001909A
:101C500002200290002003900320049005200590AC
:101C600001A91E48FEF7CAFE1D481E490860002053
:101C7000486000211B4881608021C1600021016112
:101C800041618161C161FEF71BFE08B1FEF7A2FD53
:101C900000BF1448A065446200BF114814301249C7
:101CA00008601020486000210F4881608021C160D9
:101CB0000021016141618161C161FEF701FE08B14E
:101CC000FEF788FD00BF08486065446200BF06B0AB
:101CD00010BD000000300140001002400004004828
:101CE0001C00024080000020C400002070477047A4
:101CF0002DE9F04704460E4617461D464FF0000AF0
:101D000000BF94F85C00012802D10220BDE8F087F2
:101D1000012084F85C0000BF94F85D80D4F8049042
:101D2000B8F1010F0AD0B9F5827F04D1A06810B9CB
:101D3000B8F1040F02D04FF0020ADFE00EB107B194
:101D400015B94FF0010AD9E094F85D00042802D0DB
:101D5000052084F85D0000202066A663A587E5873E
:101D60002764A4F84450A4F84650E0642065206835
:101D7000406820F4C04021684860E068B0F5E06F3A
:101D800006D92068406820F48050216848604DE002
:101D90002068406840F4805021684860606D406968
:101DA000B0F5806F19D194F83C0000F0010048B9FB
:101DB0002068406820F4804021684860E08F40102F
:101DC000E0870AE02068406840F48040216848606D
:101DD000E08F012101EB6000E087A06D4069B0F564
:101DE000806F23D12068406820F4805021684860CB
:101DF000B4F8460000F0010058B92068406820F4AB
:101E0000005021684860B4F846004010A4F846002D
:101E10000CE02068406840F4005021684860B4F845
:101E20004600012101EB6000A4F8460094F85D0033
:101E3000042806D13548A16DC8623548A16D886275
:101E400005E03448A16DC8623348A16D886233480B
:101E5000A16D08630020A16D4863B4F84630D4F842
:101E600000C00CF10C01226CA06DFEF754FD48B1CE
:101E7000206E40F0100020664FF0010A012084F827
:101E80005D003BE02068406840F001002168486048
:101E90000020616DC862616D8862616D0863616D6B
:101EA0004863E38FD4F800C00CF10C02A16B606DA5
:101EB000FEF731FD48B1206E40F0100020664FF073
:101EC000010A012084F85D0018E02068006800F035
:101ED0004000402805D02068006840F0400021689C
:101EE00008602068406840F0200021684860206851
:101EF000406840F002002168486000BF00BF002039
:101F000084F85C0000BF504600E70000EF240008A2
:101F1000192500080B25000813260008C72400080F
:101F20002DE9F04104460E461546002700BF94F8FF
:101F30005C00012802D10220BDE8F081012084F874
:101F40005C0000BF94F85D00012801D0022782E008
:101F500006B10DB901277EE0032084F85D00002062
:101F60002066A663A587E58720642065E064A4F861
:101F70004400A4F84600A068B0F5004F0BD12068DB
:101F8000006820F04000216808602068006840F484
:101F90008040216808603348616DC8623248616DD5
:101FA00088623248616D08630020616D4863206873
:101FB000406820F4804021684860E068B0F5E06F38
:101FC0001DD8606D4069B0F5806F18D1E08F00F0CA
:101FD000010048B92068406820F4804021684860CA
:101FE000E08F4010E0870AE02068406840F48040BD
:101FF00021684860E08F012101EB6000E087E38FFA
:10200000D4F800C00CF10C02A16B606DFEF783FCEC
:1020100040B1206E40F0100020660127012084F8B6
:102020005D0018E02068006800F04000402805D0FE
:102030002068006840F0400021680860206840681F
:1020400040F02000216848602068406840F00200AD
:102050002168486000BF00BF002084F85C0000BF1A
:10206000384669E7FD24000895250008C7240008C4
:10207000704770477047704770B504462546681E24
:10208000B0F1807F01D301200FE0681E4FF0E02106
:1020900048610F214FF0FF3000F08AFC00204FF024
:1020A000E021886107200861002070BD00BFFEE7C5
:1020B00008B500BF0E48406940F001000C49486176
:1020C0000846406900F00100009000BF00BF0022F8
:1020D00011460C20FEF7F4FD0C20FEF7E1FD002276
:1020E00011460D20FEF7ECFD0D20FEF7D9FD08BDD1
:1020F0000010024000B587B0142102A8FEF734FAA0
:1021000000BF3A48406940F4002038494861084619
:10211000406900F40020019000BF00BF00BF0846E6
:10212000406940F4800048610846406900F480003E
:10213000019000BF00BF00BF0846406940F4003076
:1021400048610846406900F40030019000BF00BFBC
:1021500000BF0846406940F4802048610846406955
:1021600000F48020019000BF00BF002248F2C001AF
:102170001F48FEF721FD4FF4005002901D480390C8
:102180000020049002A91C48FEF738FC0C200290A5
:102190000220039000200490032005900720069061
:1021A00002A94FF09040FEF729FC4FF480400290C6
:1021B000104803900020049002A90D48FEF71EFC71
:1021C00048F2C00002900120039000200490059086
:1021D00002A90748FEF712FC002211462820FEF74C
:1021E0006FFD2820FEF75CFD07B000BD0010024027
:1021F00000040048000021100008004810B51248F3
:10220000124908604FF48270486000210F488160D5
:102210004FF4E061C1600021016141614FF4007140
:1022200081612021C1610021016241628162072137
:10223000C1620021016308214163FFF74CFC08B132
:10224000FEF7C8FA10BD0000003001401C0000205D
:1022500000BFFEE700BFFEE710B50024002000F03D
:1022600053F8044644F003042146002000F098F897
:10227000012240210548FEF79FFC9620FEF788FAD0
:1022800000F006F800F022F810BD0000000400483D
:1022900008B50BA000680090002280210948FEF7D5
:1022A0008BFC012269460848FFF73AFE0120FEF741
:1022B0006FFA012280210348FEF77EFC08BD000072
:1022C000E2000000000400481C00002008B50BA03C
:1022D00000680090002280210948FEF76DFC012271
:1022E00069460848FFF71CFE0120FEF751FA01225B
:1022F00080210348FEF760FC08BD0000E1000000FB
:10230000000400481C00002001B582B000200190AC
:10231000002280210E48FEF74FFC012301AA02A9EA
:102320000C48FFF7E5FC9DF80800072807D0FF20C0
:102330000090012301AA69460648FFF7D9FC012253
:1023400080210348FEF738FC9DF804000EBD000014
:10235000000400481C00002008B50EA00068009092
:10236000002280210C48FEF727FC012269460B4819
:10237000FFF7D6FD0120FEF70BFA73200090012233
:1023800069460648FFF7CCFD012280210248FEF78E
:1023900013FC08BD50000000000400481C00002091
:1023A00013B59DF8000040F020000090002280212D
:1023B0000948FEF701FC012269460848FFF7B0FD15
:1023C000012201A90548FFF7ABFD01228021024847
:1023D000FEF7F2FB1CBD0000000400481C000020BA
:1023E00037B50C4615469DF8000040F020000090DF
:1023F000002280210A48FEF7DFFB012269460948D6
:10240000FFF78EFD0120FEF7C3F92A462146054855
:10241000FFF786FD012280210148FEF7CDFB3EBD7E
:10242000000400481C00002010B500224021234871
:10243000FEF7C2FB41F28830FEF7AAF93A210020EC
:10244000FFF7AEFF41F28830FEF7A2F9022101202A
:10245000FFF7A6FF02210846FFF7A2FF0121032094
:10246000FFF79EFF5F210420FFF79AFFFFF774FF3D
:1024700000211D20FFF794FF00211C20FFF790FF93
:1024800070210720FFF78CFF4C210520FFF788FF04
:1024900006210846FFF784FF032209491020FFF7B1
:1024A0009FFF032206490B20FFF79AFF0521122008
:1024B000FFF776FFFFF7D0FE10BD000000040048D4
:1024C00000000020704770B505466C6A20684068BF
:1024D00020F0030021684860206E40F01000206664
:1024E000012084F85D002046FFF7F4FA70BD70B556
:1024F0000446656A2846FFF7FAFB70BD70B50446CE
:10250000656A2846FFF7B5FD70BD70B50446656A7B
:102510002846FFF7B0FD70BD70B505466C6AFEF742
:1025200051FB06462868006800F0200020282CD0C7
:102530002068406820F0200021684860A06850B9F9
:102540006068B0F5827F06D12068406820F0030003
:102550002168486005E02068406820F0010021689B
:10256000486032466421204600F087F808B12020F8
:1025700020660020A4F84600012084F85D00206E4B
:1025800018B12046FFF7A6FA70BD2046FFF7AEFB54
:1025900000BFF9E7F8B505466C6AFEF713FB06467F
:1025A0002868006800F0200020282DD020684068AE
:1025B00020F02000216848602068406820F0020078
:1025C0002168486032466421204600F097F818B12F
:1025D000206E40F020002066A06850B900BF0020A7
:1025E00000902068C068009020688068009000BF5C
:1025F00000BF0020E087012084F85D00206E18B144
:102600002046FFF767FAF8BD2046FFF731FD00BF0F
:10261000F9E770B505466C6AFEF7D4FA06462868F5
:10262000006800F02000202822D02068406820F0B8
:1026300020002168486032466421204600F05EF8A0
:1026400018B1206E40F0200020662068406820F01D
:102650000300216848600020E087A4F846000120BC
:1026600084F85D00206E18B12046FFF733FA70BD84
:102670002046FFF7FFFC00BFF9E7F8B504460E4619
:1026800015466068B0F5827F0DD1A068B0F5004FA7
:1026900003D0A068B0F5806F05D12068006820F0F5
:1026A00040002168086033460022802120460095C2
:1026B00000F0C8F828B1206E40F02000206603200A
:1026C000F8BD6068B0F5827F16D1A068B0F5004F04
:1026D00003D0A068B0F5806F0ED1334600224FF4CE
:1026E000C0612046009500F03BF828B1206E40F014
:1026F000200020660320E3E70020E1E7F8B5044668
:102700000E461546334600224FF4C0512046009530
:1027100000F026F828B1206E40F02000206603204B
:10272000F8BD3346002280212046009500F08AF84B
:1027300028B1206E40F0200020660320F0E73346E9
:1027400000224FF4C0612046009500F009F828B13E
:10275000206E40F0200020660320E1E70020DFE744
:102760002DE9F84F04460D4616469846DDF82890A8
:10277000FEF728FAA0EB0900A8EB0007FEF722FA03
:1027800082462F480068C0EBC00000EB8000000DBF
:10279000784300904CE0B5F5C06F02D10EB92068C7
:1027A000007B08F10100002842D0FEF70BFAA0EBF5
:1027B0000A00B84200D2A7BB2068406820F0E000C1
:1027C000216848606068B0F5827F0DD1A068B0F5DF
:1027D000004F03D0A068B0F5806F05D12068006875
:1027E00020F0400021680860A06AB0F5005F0DD1BC
:1027F00000BF2068006820F400502168086020684D
:10280000006840F400502168086000BF012084F88F
:102810005D0000BF002084F85C0000BF0320BDE81D
:10282000F88FFFE7009800B900270098401E00903D
:10283000206880682840B042ADD10020EFE700005A
:10284000180000202DE9F84F04460D4690461E461C
:10285000DDF82890FEF7B6F9A0EB0900371AFEF76D
:10286000B1F982462C480068C0F3CB307843009021
:1028700045E0701C002842D0FEF7A4F9A0EB0A0046
:10288000B84200D2A7BB2068406820F0E000216871
:1028900048606068B0F5827F0DD1A068B0F5004F48
:1028A00003D0A068B0F5806F05D12068006820F0E3
:1028B000400021680860A06AB0F5005F0DD100BF3C
:1028C0002068006820F400502168086020680068D3
:1028D00040F400502168086000BF012084F85D00CA
:1028E00000BF002084F85C0000BF0320BDE8F88F23
:1028F000FFE7009800B900270098401E009020686C
:1029000080682840A84201D1012000E00020404515
:10291000AFD10020EAE7000018000020704710B592
:10292000FEF756F910BD00B58FB0282105A8FDF7B8
:102930001BFE14216846FDF717FE022005900120BA
:10294000099010200A9002200C9000210D914FF464
:1029500060110E9105A8FEF7ABFB08B1FDF73AFF39
:102960000F20009002200190002002904FF4806020
:1029700003900020049002216846FEF7F3F908B1A5
:10298000FDF728FF0FB000BD0348006840F4700059
:10299000014908607047000088ED00E000BFFEE7D5
:1029A00002480068C0F30220704700000CED00E010
:1029B00010B5002804DB0A07130E054A135406E07D
:1029C0000A07140E034A00F00F031B1FD45410BD56
:1029D00000E400E018ED00E030380A2801D20120C0
:1029E000704700207047000000BFFEF7FDF8FFF7BA
:1029F0009AFFFFF77FFBFFF701FCFFF759FBFFF79B
:102A000013FDC820FDF7D6FF45E000BF4FF49670D8
:102A1000FDF7D0FF4FF49670FDF7CCFF0020FFF7D5
:102A200073FC1D490870084602781CA12048FDF778
:102A300097FC1948027819A11D48FDF791FC012067
:102A4000FFF762FC144908701A4802781AA1184866
:102A5000FDF786FC0220FFF757FC0F490870084677
:102A6000027819A11248FDF77BFC0720FFF74CFC08
:102A7000094908700846027818A10D48FDF770FC56
:102A80000620FFF741FC044908700846027818A1A7
:102A90000748FDF765FCB8E70A000020434F4E46A3
:102AA00049473A203078253032580D0A000000009E
:102AB000080100200B000020454E5F41413A2030C4
:102AC00078253032580D0A00454E5F525841444433
:102AD000523A203078253032580D0A005354415470
:102AE00055533A203078253032580D0A0000000046
:102AF00052465F53455455503A203078253032586D
:102B00000D0A00004FF04070E1EE100A704702031A
:102B10000405060708090A0B0C0D0E0F1010010220
:102B2000030405060708090A0B0C0D0E0F10000020
:102B3000000000000000010203040607080900006D
:102B4000000001020304303132333435363738396E
:102B500041424344454640305800303132333435E9
:102B60003637383961626364656640307800040046
:102B7000000800000000000000020001000010003A
:102B8000A02B0008000000201C000000C401000869
:102B9000BC2B00081C000020E4070000E001000836
:102BA000B3B40100000000000001000300000000B9
:0C2BB000100000000100000000127A007C
:040000050800018965
:00000001FF
