:020000040800F2
:10000000780700202902000891210008E51F000858
:100010008D2100081F040008552D00080000000075
:10002000000000000000000000000000C1270008E0
:10003000230400080000000089250008C3270008E9
:10004000430200084302000843020008430200087C
:10005000430200084302000843020008430200086C
:10006000430200084302000843020008430200085C
:10007000430200084302000843020008430200084C
:10008000430200084302000843020008430200083C
:10009000430200084302000843020008430200082C
:1000A000430200084302000843020008430200081C
:1000B000430200084302000843020008430200080C
:1000C00043020008430200084302000843020008FC
:1000D00043020008430200084302000843020008EC
:1000E00043020008430200084302000843020008DC
:1000F00043020008430200084302000843020008CC
:1001000000000000000000000000000043020008A2
:1001100043020008430200084302000843020008AB
:10012000430200084302000843020008430200089B
:100130004302000843020008000000000000000025
:1001400043020008430200084302000800000000C8
:10015000000000000000000000000000000000009F
:1001600000000000000000004302000843020008F5
:100170004302000800000000000000000000000032
:10018000000000004302000800F002F800F03CF814
:100190000AA090E8000C82448344AAF10107DA45E2
:1001A00001D100F031F8AFF2090EBAE80F0013F0F8
:1001B000010F18BFFB1A43F0010318479C2C0000E5
:1001C000BC2C0000103A24BF78C878C1FAD8520776
:1001D00024BF30C830C144BF04680C6070470000C1
:1001E0000023002400250026103A28BF78C1FBD840
:1001F000520728BF30C148BF0B6070471FB502F0DF
:1002000009FE1FBD10B510BD00F0CFF81146FFF775
:10021000F5FF02F0BDFD00F0EDF803B4FFF7F2FFCB
:1002200003BC00F0F5F80000094880470948004782
:10023000FEE7FEE7FEE7FEE7FEE7FEE7FEE7FEE796
:10024000FEE7FEE704480549054A064B70470000F3
:100250005128000889010008780100207807002053
:10026000780300207803002053EA020C00F0698034
:100270002DE9F04B4FF00006002B1FBFB3FA83F5BA
:1002800003FA05F424FA05F65E4012BF1643B2FAEB
:1002900082F502FA05F4C5F120051EBF22FA05FC1D
:1002A00044EA0C04203556EA044C4FEA144418BFC3
:1002B000641C4FF000084FF00009904271EB030CF2
:1002C00039D3002919BFB1FA81F701FA07F6B0FA5C
:1002D00080F700FA07F6C7F120071EBF20FA07FCD7
:1002E00046EA0C062037B6FBF4FCA7EB0507103FE7
:1002F00007F01F0BCBF120060CFA0BFB2CFA06F6CD
:1003000044BFB3460026202FA4BF5E464FF0000B2B
:100310005BEA060C08BF4FF0010B19EB0B09ABFBB6
:10032000027C48EB0608C01B06FB02CC0BFB03CC8F
:1003300071EB0C01C1E70B46024641464846BDE859
:10034000F08B13B54FF000004FF00001AFF30080C9
:10035000BDE81C4070474FF0000200B513469446BC
:100360009646203922BFA0E80C50A0E80C50B1F10D
:100370002001BFF4F7AF090728BFA0E80C5048BF21
:100380000CC05DF804EB890028BF40F8042B08BFBF
:10039000704748BF20F8022B11F0804F18BF00F8BB
:1003A000012B7047704770477047754600F02CF876
:1003B000AE4605006946534620F00700854618B052
:1003C00020B5FFF73FFFBDE820404FF000064FF09B
:1003D00000074FF000084FF0000B21F00701AC467A
:1003E000ACE8C009ACE8C009ACE8C009ACE8C00999
:1003F0008D46704710B50446AFF300802046BDE837
:100400001040FFF70ABF00000048704718010020A5
:1004100001491820ABBEFEE726000200704700BF6E
:10042000FEE7704701B5094800680949B0FBF1F0E3
:100430000921B0FBF1F000994843009000BF0098FB
:10044000411E00910028FAD108BD000018000020CC
:1004500040420F0072B600BFFEE7000070B50446D0
:1004600000F006F906462546681C10B104480078DD
:10047000054400BF00F0FCF8801BA842FAD370BD11
:100480001400002078B503460A460021C4E0012686
:100490008E40156805EA0604002C73D0157905F026
:1004A0000305012D04D0157905F00305022D13D1A4
:1004B00098684E000325B540A8434E00D568B54066
:1004C00028439860586801258D40A8431579C5F3E5
:1004D00000158D4028435860157905F00305032D5C
:1004E00009D0D8684E000325B540A8434E00956852
:1004F000B5402843D860157905F00305022D13D1C6
:10050000CE0803F1200555F826004D07EE0E0F2505
:10051000B540A8434E07F60E1569B5402843CE08EE
:1005200003F1200545F8260018684E000325B54064
:10053000A843157905F003054E00B540284318601F
:10054000556805F44035002D65D000BF354DAD69C7
:1005500045F00105334EB5613546AD6905F001053D
:10056000009500BF00BF4FEAB6358E0855F826004B
:100570008D072E0F0F25B540A843B3F1904F02D140
:10058000002515E047E0284DAB4201D101250FE0E1
:10059000264DAB4201D102250AE0254DAB4201D1E7
:1005A000032505E0234DAB4201D1042500E00525DC
:1005B0008E07360FB54028431F4D8E0845F826009C
:1005C0001E4D2868A043556805F4803505B12043C9
:1005D0001A4D28602D1D2868A043556805F4003584
:1005E00005B12043154D2D1D28602D1D2868A04301
:1005F000556805F4801505B12043104D0835286075
:100600002D1D2868A043556805F4001505B1204349
:100610000A4D0C352860491C1568CD40002D7FF42B
:1006200036AF78BD001002400004004800080048C2
:10063000000C004800100048080001400004014080
:10064000024613690B400BB1012000E00020704707
:1006500010B5426921EA020302EA010443EA0443B5
:10066000836110BD0AB1816100E0816270470000C2
:1006700001480068704700000C0000200348006833
:100680000349097808440149086070470C000020BC
:100690001400002010B50848006840F0100006491A
:1006A0000860032000F090F8002000F007F800F048
:1006B0002BF8002010BD00000020024070B5044659
:1006C0000E4800784FF47A71B1FBF0F00C490968DC
:1006D000B1FBF0F5284601F0F4FB08B1012070BD34
:1006E000102C07D200222146501E00F02FF805489A
:1006F000046001E00120F2E70020F0E71400002090
:10070000180000201000002008B500BF0E488069C6
:1007100040F001000C4988610846806900F0010042
:10072000009000BF00BF00BF0846C06940F0805085
:10073000C8610846C06900F08050009000BF00BF4B
:10074000072000F041F808BD001002402DE9F05FDD
:1007500080460D461646002702F0FEFA0746394647
:100760002A46334601F00700C0F1070ABAF1040F28
:1007700002D94FF0040A01E0C0F1070AD14600F1A6
:10078000040ABAF1070F02D24FF0000A01E0A0F10B
:10079000030AD4464FF0010A0AFA09FAAAF1010A3B
:1007A0000AEA020A0AFA0CFA4FF0010B0BFA0CFBE8
:1007B000ABF1010B0BEA030B4AEA0B04214640465E
:1007C00002F0D2FABDE8F09F00BF00F00702064B2E
:1007D00019684FF6FF031940044B0B4343EA02210B
:1007E000014B196000BF70470CED00E00000FA05F6
:1007F000F8B50446002600250027206800F4803064
:10080000B0F5803F73D1B048C06900F0805070B936
:1008100000BFAD48C06940F08050AB49C861084690
:10082000C06900F08050009000BF00BF0127A748BA
:10083000006800F48070B0B9A448006840F480708B
:10084000A2490860FFF714FF064606E0FFF710FF15
:10085000801B642801D90320F8BD9C48006800F47F
:1008600080700028F2D09848006A00F44075002D8E
:100870006BD0A08800F44070A84266D09248006A0D
:1008800020F440750121080490FAA0F0B0FA80F03D
:100890008F4A02EB8000C0F800140020090491FA8E
:1008A000A1F1B1FA81F102EB8101C1F8000486489F
:1008B000056205F00100B8B3FFF7DAFE064608E06E
:1008C000FFF7D6FE801B41F28831884201D9032010
:1008D000C2E74020022191FAA1F1B1FA81F1084367
:1008E0000121B1EB601F03D1774800681FE03BE0B6
:1008F0004020022191FAA1F1B1FA81F108430221CD
:10090000B1EB601F02D17048006A10E04020022164
:1009100091FAA1F1B1FA81F108430421B1EB601F12
:1009200003D16948406802E00FE06748406A40210F
:10093000022292FAA2F2B2FA82F2114301F01F02ED
:100940000121914008400028BAD05F48006A20F495
:100950004070616808435C490862012F04D1084671
:10096000C06920F08050C861207800F0010038B1E3
:100970005548006B20F00300A16808435249086302
:10098000207800F00200022807D14F48006B20F4C5
:100990004030E16808434C490863207800F00400C7
:1009A000042807D14848006B20F4402021690843FF
:1009B00045490863207800F02000202807D14248EC
:1009C000006B20F01000E16908433F49086320688C
:1009D00000F40030B0F5003F07D13B48406820F4F8
:1009E0008000A16B084338494860207800F040003F
:1009F000402807D13448006B20F02000216A0843CA
:100A000031490863207800F00800082807D12E48F3
:100A1000006B20F44010616908432B49086320787B
:100A200000F01000102807D12748006B20F4400088
:100A3000A169084324490863208800F40070B0F5D8
:100A4000007F07D12048406820F40000E16A084395
:100A50001D494860207800F08000802807D11A489E
:100A6000C06A20F4F870616A08431749C862208898
:100A700000F48070B0F5807F07D11348C06A20F47D
:100A80007850A16A08431049C862208800F4805059
:100A9000B0F5805F07D10C48006B20F48070216BAB
:100AA000084309490863208800F40050B0F5005F4E
:100AB00007D10548006B20F40070616B08430249C0
:100AC00008630020C8E600000010024000700040EB
:100AD0000000424270B504460D4600260CB90120C4
:100AE00070BDA248006800F00700A8420ED29F48DF
:100AF000006820F0070028439C4908600846006809
:100B000000F00700A84201D00120E9E7207800F0BA
:100B10000200022807D19648406820F0F000A16842
:100B2000084393494860207800F0010000287CD0F9
:100B3000606801283BD12020010391FAA1F1B1FAAC
:100B400081F108430121B1EB601F02D188480068A0
:100B50001DE02020010391FAA1F1B1FA81F10843CF
:100B60000221B1EB601F02D18148006A0FE0202012
:100B7000010391FAA1F1B1FA81F108430421B1EB2B
:100B8000601F02D17A48406801E07948406A20211C
:100B90000A0392FAA2F2B2FA82F2114301F01F02A2
:100BA00001219140084000287CD1012098E760682D
:100BB00002283BD12020010591FAA1F1B1FA81F17F
:100BC00008430121B1EB601F02D1694800681DE0B4
:100BD0002020010591FAA1F1B1FA81F10843022127
:100BE000B1EB601F02D16248006A0FE020200105CE
:100BF00091FAA1F1B1FA81F108430421B1EB601F30
:100C000002D15B48406801E05948406A20210A054A
:100C100092FAA2F2B2FA82F2114301F01F0201210C
:100C200091400840E8BB01205AE758E0202002210B
:100C300091FAA1F1B1FA81F108430121B1EB601FF2
:100C400002D14B4800681DE02020022191FAA1F159
:100C5000B1FA81F108430221B1EB601F02D144488F
:100C6000006A0FE02020022191FAA1F1B1FA81F18E
:100C700008430421B1EB601F02D13D48406801E008
:100C80003B48406A2021022292FAA2F2B2FA82F292
:100C9000114301F01F0201219140084008B90120D1
:100CA0001EE7FFE73248406820F003006168084310
:100CB0002F494860FFF7DCFC064608E0FFF7D8FC48
:100CC000801B41F28831884201D9032008E7284877
:100CD000406800F00C006168B0EB810FEED1234852
:100CE000006800F00700A8420ED92048006820F0F4
:100CF000070028431D4908600846006800F0070007
:100D0000A84201D00120EBE6207800F0040004287E
:100D100007D11748406820F4E060E16808431449AF
:100D20004860207800F00800082808D11048406882
:100D300020F46050216940EAC1000D49486000F08C
:100D400051F80B49496801F0F001F02292FAA2F241
:100D5000B2FA82F2D140074A515CC84006490860A5
:100D600006480068FFF7AAFC0020B9E60020024010
:100D7000001002403E2E0008180000201000002045
:100D800001480068704700001800002000B5FFF718
:100D9000F7FF0749496801F4E0614FF4E06292FA15
:100DA000A2F2B2FA82F2D140024A515CC84000BDC0
:100DB000001002404E2E000800B5FFF7E1FF074982
:100DC000496801F460514FF4605292FAA2F2B2FA0B
:100DD00082F2D140024A515CC84000BD001002407E
:100DE0004E2E00082DE9F0410024002500270026A2
:100DF000A0461F48446804F00C0078B3042802D0D1
:100E000008282CD102E0DFF86C802CE004F470108C
:100E10004FF4701191FAA1F1B1FA81F1C84016496D
:100E20000E5C1348C06A00F00F000F2191FAA1F187
:100E3000B1FA81F1C84011490D5C04F4803040B131
:100E40002A4600230B481946FFF70EFAA0FB06714D
:100E500002E00B48A0FB0671B84604E000E000BFCA
:100E6000DFF8108000BF00BF4046BDE8F081000001
:100E70000010024000127A001E2E00082E2E0008DC
:100E800000093D00F8B504460CB90120F8BD2078F2
:100E900000F0010000287BD0FA48406800F00C0008
:100EA00004280CD0F748406800F00C00082845D111
:100EB000F448406800F48030B0F5803F3ED12020F7
:100EC000010391FAA1F1B1FA81F108430121B1EBDB
:100ED000601F02D1EB4800681DE02020010391FA59
:100EE000A1F1B1FA81F108430221B1EB601F02D1F7
:100EF000E448006A0FE02020010391FAA1F1B1FA61
:100F000081F108430421B1EB601F02D1DD48406844
:100F100001E0DC48406A20210A0392FAA2F2B2FA08
:100F200082F2114301F01F02012191400840002884
:100F3000B1D0606800282BD10120A7E700BF60680E
:100F4000B0F5803F06D1CF48006840F48030CD49ED
:100F5000086029E0606858B9CA48006820F4803009
:100F6000C84908600846006820F4802008601BE03B
:100F70006068B0F5A02F0CD1C248006840F4802012
:100F8000C04908600846006840F4803008600BE003
:100F9000A1E0BC48006820F48030BA4908600846E7
:100FA000006820F48020086000BFB648C06A20F0C6
:100FB0000F00A1680843B349C8626068A0B3FFF797
:100FC00057FB054606E0FFF753FB401B642801D999
:100FD00003205BE72020010391FAA1F1B1FA81F12E
:100FE00008430121B1EB601F02D1A64800681EE052
:100FF0002020010391FAA1F1B1FA81F10843022105
:10100000B1EB601F02D19F48006A10E0202001036D
:1010100091FAA1F1B1FA81F108430421B1EB601F0B
:1010200003D19848406802E010E09648406A2021C9
:101030000A0392FAA2F2B2FA82F2114301F01F02FD
:101040000121914008400028BDD044E0FFF710FB8B
:10105000054606E0FFF70CFB401B642801D903207E
:1010600014E72020010391FAA1F1B1FA81F10843BC
:101070000121B1EB601F02D1824800681DE02020F1
:10108000010391FAA1F1B1FA81F108430221B1EB18
:10109000601F02D17B48006A0FE02020010391FA13
:1010A000A1F1B1FA81F108430421B1EB601F02D133
:1010B0007448406801E07348406A20210A0392FAAC
:1010C000A2F2B2FA82F2114301F01F020121914013
:1010D00008400028BED1207800F0020002285CD130
:1010E0006848406800F00C0050B16648406800F065
:1010F0000C00082852D16348406800F48030E8BBF7
:101100002020022191FAA1F1B1FA81F108430121D5
:10111000B1EB601F02D15B4800681DE02020022176
:1011200091FAA1F1B1FA81F108430221B1EB601FFC
:1011300002D15448006A0FE02020022191FAA1F167
:10114000B1FA81F108430421B1EB601F02D14D488F
:10115000406801E04B48406A2021022292FAA2F244
:10116000B2FA82F2114301F01F02012191400840BE
:1011700028B12069012802D0012087E60EE041480D
:10118000006820F0F800F82292FAA2F2B2FA82F295
:101190006169914008433B490860B1E0206970B340
:1011A000012191FAA1F0B0FA80F0374A42F82010FC
:1011B000FFF75EFA054606E0FFF75AFA401B0228E1
:1011C00001D9032062E62020022191FAA1F1B1FAAF
:1011D00081F108430121B1EB601F02D12948006869
:1011E0001EE02020022191FAA1F1B1FA81F1084319
:1011F0000221B1EB601F03D12248006A10E02CE00D
:101200002020022191FAA1F1B1FA81F108430421D1
:10121000B1EB601F02D11B48406801E01948406AE9
:101220002021022292FAA2F2B2FA82F2114301F0D4
:101230001F020121914008400028BDD011480068DC
:1012400020F0F800F82292FAA2F2B2FA82F2616972
:10125000914008430B49086052E00020012191FAB7
:10126000A1F1B1FA81F1084A42F82100FFF700FA32
:1012700005460BE0FFF7FCF9401B022806D90320C6
:1012800004E600000010024000004242202002213B
:1012900091FAA1F1B1FA81F108430121B1EB601F8C
:1012A00002D1FB4800681DE02020022191FAA1F143
:1012B000B1FA81F108430221B1EB601F02D1F44879
:1012C000006A0FE02020022191FAA1F1B1FA81F128
:1012D00008430421B1EB601F02D1ED48406801E0F2
:1012E000EB48406A2021022292FAA2F2B2FA82F27C
:1012F000114301F01F020121914008400028B9D19B
:10130000207800F00800082851D1A06980B301219D
:1013100091FAA1F0B0FA80F0DE4A02EB8000C0F84A
:101320008014FFF7A5F9054606E0FFF7A1F9401B79
:10133000022801D90320A9E56020022191FAA1F138
:10134000B1FA81F108430121B1EB601F02D1D0480D
:1013500000681EE06020022191FAA1F1B1FA81F14A
:1013600008430221B1EB601F03D1C948006A10E0B5
:101370001EE06020022191FAA1F1B1FA81F1084347
:101380000421B1EB601F02D1C148406801E0C048B0
:10139000406A6021022292FAA2F2B2FA82F211436A
:1013A00001F01F020121914008400028BDD04FE00C
:1013B0000020012191FAA1F1B1FA81F1B54A02EBC5
:1013C0008101C1F88004FFF753F9054606E0FFF7F5
:1013D0004FF9401B022801D9032057E56020022164
:1013E00091FAA1F1B1FA81F108430121B1EB601F3B
:1013F00002D1A74800681DE06020022191FAA1F106
:10140000B1FA81F108430221B1EB601F02D1A0487B
:10141000006A0FE06020022191FAA1F1B1FA81F196
:1014200008430421B1EB601F02D19948406801E0F4
:101430009748406A6021022292FAA2F2B2FA82F23E
:10144000114301F01F020121914008400028BED144
:10145000207800F00400042873D100278C48C0696C
:1014600000F0805070B900BF8948C06940F08050DA
:101470008749C8610846C06900F08050009000BFED
:1014800000BF01278448006800F48070B0B982482A
:10149000006840F4807080490860FFF7E9F805466D
:1014A00006E0FFF7E5F8401B642801D90320EDE4CE
:1014B0007948006800F480700028F2D000BFE0682E
:1014C000012806D17248006A40F0010070490862A4
:1014D00027E0E06858B96E48006A20F001006C49C6
:1014E00008620846006A20F00400086219E0E0681B
:1014F00005280BD16648006A40F004006449086280
:101500000846006A40F0010008620AE06048006A8C
:1015100020F001005E4908620846006A20F00400DD
:10152000086200BFE068B8B3FFF7A2F8054609E01B
:10153000FFF79EF8401B41F28831884202D9032010
:10154000A4E48BE04020022191FAA1F1B1FA81F1EB
:1015500008430121B1EB601F02D14D4800681EE035
:101560004020022191FAA1F1B1FA81F10843022150
:10157000B1EB601F02D14648006A10E04020022112
:1015800091FAA1F1B1FA81F108430421B1EB601F96
:1015900003D13F48406802E010E03D48406A4021E6
:1015A000022292FAA2F2B2FA82F2114301F01F0271
:1015B0000121914008400028BAD046E0FFF758F8D2
:1015C000054608E0FFF754F8401B41F28831884295
:1015D00001D903205AE44020022191FAA1F1B1FA85
:1015E00081F108430121B1EB601F02D12848006856
:1015F0001DE04020022191FAA1F1B1FA81F10843E6
:101600000221B1EB601F02D12148006A0FE04020A7
:10161000022191FAA1F1B1FA81F108430421B1EB61
:10162000601F02D11A48406801E01948406A402111
:10163000022292FAA2F2B2FA82F2114301F01F02E0
:101640000121914008400028BCD1012F05D110484C
:10165000C06920F080500E49C86100BFE0690028D1
:1016600074D00B48406800F00C0008286FD0E06987
:1016700002286DD100204FF0807191FAA1F1B1FAEA
:1016800081F1044A42F82100FEF7F2FF05460CE022
:10169000001002400000424200700040FEF7E8FFE8
:1016A000401B022801D9032047E42020010591FABC
:1016B000A1F1B1FA81F108430121B1EB601F02D120
:1016C000774800681DE02020010591FAA1F1B1FAE8
:1016D00081F108430221B1EB601F02D17048006A1A
:1016E0000FE02020010591FAA1F1B1FA81F1084340
:1016F0000421B1EB601F02D16948406801E06848ED
:10170000406A20210A0592FAA2F2B2FA82F211434B
:1017100001F01F020121914008400028BED1D4E908
:10172000081008435E49496821F4741108435C4974
:1017300048600120010691FAA1F1B1FA81F1594AFC
:1017400042F82100FEF794FF054609E0A5E092E08B
:1017500041E0FEF78DFF401B022801D9032038E449
:101760002020010591FAA1F1B1FA81F1084301218C
:10177000B1EB601F02D14A4800681DE0202001053E
:1017800091FAA1F1B1FA81F108430221B1EB601F96
:1017900002D14348006A0FE02020010591FAA1F12F
:1017A000B1FA81F108430421B1EB601F02D13C483A
:1017B000406801E03A48406A20210A0592FAA2F204
:1017C000B2FA82F2114301F01F0201219140084058
:1017D0000028BED061E000204FF0807191FAA1F1A5
:1017E000B1FA81F12F4A42F82100FEF741FF054688
:1017F00006E0FEF73DFF401B022801D903202FE43D
:101800002020010591FAA1F1B1FA81F108430121EB
:10181000B1EB601F02D1224800681DE020200105C5
:1018200091FAA1F1B1FA81F108430221B1EB601FF5
:1018300002D11B48006A0FE02020010591FAA1F1B6
:10184000B1FA81F108430421B1EB601F02D11448C1
:10185000406801E01248406A20210A0592FAA2F28B
:10186000B2FA82F2114301F01F02012191400840B7
:101870000028BED111E0E069012800D17DE40848CC
:10188000466806F48031206A814204D106F4701162
:10189000606A814201D001206FE400206DE4000005
:1018A000001002400000424270B504460CB901200D
:1018B00070BD606A38B96068B0F5827F00D105E01C
:1018C0000021E16102E00021216161610021A1624A
:1018D00094F85D0028B9002084F85C00204600F0F0
:1018E00061F8022084F85D002068006820F0400064
:1018F00021680860E068B0F5E06F01D9002501E0DB
:101900004FF48055E068B0F5706F05D0E068B0F531
:10191000E06F01D00021A162A08800F482702189CB
:1019200001F404410843217C01F002010843217DB8
:1019300001F001010843218B01F400710843217F6C
:1019400001F0380108432021095D01F080010843BE
:10195000218D01F400510843216808600421A06929
:1019600001EA104094F8241001F01001084394F8A3
:10197000341001F008010843A18901F470610843A3
:1019800005F480510843216848602068C06920F44C
:1019900000602168C86100202066012084F85D0095
:1019A000002085E710B586B00446142101A8FEF793
:1019B000D2FC18492068884229D100BF16488069A6
:1019C00040F48050144988610846806900F48050D2
:1019D000009000BF00BF00BF0846406940F40030DF
:1019E00048610846406900F40030009000BF00BF25
:1019F000E020019002200290002003900320049038
:101A00000520059001A94FF09040FEF73BFD06B080
:101A100010BD000000300140001002402DE9F84FD9
:101A20000446884616461D464FF0000A00BF94F84B
:101A30005C00012802D10220BDE8F88F012084F863
:101A40005C0000BFFEF714FE0746B14694F85D0047
:101A5000012802D04FF0020ACBE0B8F1000F00D00D
:101A600016B94FF0010AC4E0032084F85D0000209D
:101A70002066C4F83880A687E6872064A4F844006E
:101A8000A4F846002065E064A068B0F5004F0BD1D3
:101A90002068006820F04000216808602068006825
:101AA00040F48040216808602068006800F0400031
:101AB000402805D02068006840F040002168086098
:101AC000E068B0F5E06F2FD9606810B1B9F1010F8F
:101AD00009D1A06B00882168C860A06B801CA0633E
:101AE000E08F401EE0871BE02068806800F0020065
:101AF00002280AD1A06B00882168C860A06B801CF6
:101B0000A063E08F401EE0870AE0FEF7B1FDC01B36
:101B1000A84201D3681C00B915B94FF0030A68E068
:101B2000E08F0028E0D14AE0606810B1B9F1010F00
:101B300017D1E08F01280AD9A06B00882168C860FE
:101B4000A06B801CA063E08F801EE08709E0A06B83
:101B5000007821680873A06B401CA063E08F401ED2
:101B6000E08729E02068806800F00200022818D190
:101B7000E08F01280AD9A06B00882168C860A06B9B
:101B8000801CA063E08F801EE08715E0A06B0078CA
:101B900021680873A06B401CA063E08F401EE087A3
:101BA0000AE0FEF765FDC01BA84201D3681C00B91E
:101BB00015B94FF0030A1CE0E08F0028D2D13A4655
:101BC0002946204600F0E1FC08B120202066A068EC
:101BD00050B900BF002000902068C06800902068C5
:101BE0008068009000BF00BF206E08B14FF0010A6E
:101BF00000BF012084F85D0000BF002084F85C0075
:101C000000BF504618E72DE9FF5F0446894692461B
:101C10001D460E9E012001900020009000BF94F808
:101C20005C00012803D1022004B0BDE8F09F012030
:101C300084F85C0000BFFEF71BFD074694F85D00CA
:101C4000029060680390A846AB46029801280BD02A
:101C50000398B0F5827F04D1A06810B902980428D7
:101C600002D00220009022E1B9F1000F03D0BAF1B6
:101C7000000F00D015B90120009018E194F85D0024
:101C8000042802D0052084F85D0000202066C4F8F6
:101C900040A0A4F84650A4F84450C4F83890E58712
:101CA000A587E0642065E068B0F5E06F02D8BBF17D
:101CB000010F06D92068406820F4805021684860F0
:101CC00005E02068406840F4805021684860206842
:101CD000006800F04000402805D02068006840F00F
:101CE000400021680860E068B0F5E06F4ED9606898
:101CF00010B1B8F1010F09D1A06B00882168C8604C
:101D0000A06B801CA063E08F401EE08736E0206857
:101D1000806800F00200022810D1E08F70B10198B5
:101D200001280BD1A06B00882168C860A06B801CC3
:101D3000A063E08F401EE08700200190206880684B
:101D400000F0010080B1B4F8460068B12068C068B6
:101D5000216C0880206C801C2064B4F84600401E72
:101D6000A4F8460001200190FEF782FCC01BB0429F
:101D700004D3701C10B10320009098E0E08F00287D
:101D8000C5D1B4F846000028C1D185E0606810B123
:101D9000B8F1010F17D1E08F01280AD9A06B008894
:101DA0002168C860A06B801CA063E08F801EE08764
:101DB00009E0A06B007821680873A06B401CA06349
:101DC000E08F401EE08760E02068806800F002003D
:101DD00002281ED1E08FE0B10198012819D1E08FCF
:101DE00001280AD9A06B00882168C860A06B801CFC
:101DF000A063E08F801EE08709E0A06B0078216877
:101E00000873A06B401CA063E08F401EE087002099
:101E100001902068806800F0010058B3B4F84600D3
:101E200040B3B4F84600012816D92068C068216C78
:101E30000880206C801C2064B4F84600801EA4F842
:101E40004600B4F84600012812D82068406840F4E3
:101E50008050216848600BE02068007B216C08708E
:101E6000206C401C2064B4F84600401EA4F84600D4
:101E700001200190FEF7FCFBC01BB04201D3701C97
:101E800000B916B90320009011E0E08F00289BD123
:101E9000B4F84600002897D13A463146204600F073
:101EA00074FB18B1012000902020206600BF0120A3
:101EB00084F85D0000BF002084F85C0000BF00983B
:101EC000B2E670B504462546681EB0F1807F01D3A6
:101ED00001200FE0681E4FF0E02148610F214FF014
:101EE000FF3000F041FF00204FF0E0218861072023
:101EF0000861002070BD10B504460CB9012010BD6A
:101F0000A06900B100E000BFA06F28B9002084F8EC
:101F10007400204600F02AF82420A067206800689A
:101F200020F0010021680860204600F051FD0128E2
:101F300000D1E4E7606A10B1204600F093FC20680D
:101F4000406820F49040216848602068806820F054
:101F50002A00216888602068006840F0010021683C
:101F60000860204600F0FAFCC9E7000010B586B012
:101F70000446142101A8FEF7EEF9184920688842AA
:101F80002AD100BF1648806940F480401449886116
:101F90000846806900F48040009000BF00BF00BF89
:101FA0000846406940F4003048610846406900F442
:101FB0000030009000BF00BF4FF4C06001900220CD
:101FC000029000200390032004900720059001A9AF
:101FD0004FF09040FEF756FA06B010BD00380140B1
:101FE0000010024000BFFEE700B587B0142102A830
:101FF000FEF7B1F900BF3E48406940F400103C498B
:1020000048610846406900F40010019000BF00BF1D
:1020100000BF0846406940F4002048610846406916
:1020200000F40020019000BF00BF00BF08464069D7
:1020300040F4800048610846406900F48000019047
:1020400000BF00BF00BF0846406940F4003048614F
:102050000846406900F40030019000BF00BF00BF97
:102060000846406940F4802048610846406900F411
:102070008020019000BF00BF00224FF608711D486C
:10208000FEF7F0FA002218214FF09040FEF7EAFA2E
:10209000372002904FF4901003900020049002A982
:1020A0001448FEF7EFF94FF60870029001200390F4
:1020B00000200490059002A90E48FEF7E3F940F2D3
:1020C0000110029000200390049002A94FF090406C
:1020D000FEF7D8F918200290012003900020049008
:1020E000059002A94FF09040FEF7CCF907B000BD73
:1020F000001002400010004810B512481249086054
:102100004FF48270486000210F4881604FF4E06115
:10211000C1600021016141614FF4007181612021A2
:10212000C16100210162416281620721C162002117
:10213000016308214163FFF7B7FB08B1FEF78AF995
:1021400010BD0000003001401C00002010B50D48FB
:102150000D4908604FF41640486000210A4881602C
:10216000C16001610C21416100218161C161016295
:102170000020054948620846FFF7BDFE08B1FEF79A
:1021800069F910BD003801408000002000BFFEE763
:1021900000BFFEE710B50024002000F0C3F804469D
:1021A00044F003042146002000F042F901220821F6
:1021B0004FF09040FEF756FA9620FEF733F900F004
:1021C00071F800F08FF810BD70B505462E78002428
:1021D000284600F053F8002000F0A4F8044644F02C
:1021E000020424F001042146002000F021F9962089
:1021F000FEF718F905222946A02000F0E9F801228F
:1022000008214FF09040FEF72DFA0F20FEF70AF953
:10221000002208214FF09040FEF724FA00BF4FF44F
:1022200080714FF09040FEF70BFA0128F7D00F2095
:10223000FEF7F8F8072000F075F8064606F02000D3
:1022400048B14FF480710C48FEF702FA20210720B4
:1022500000F0EEF808E006F0100028B11021072089
:1022600000F0E6F800F03EF8082000F05BF80446C5
:10227000FFF790FF204670BD0010004810B50446DF
:1022800003220749102000F0F7F8002208214FF040
:102290009040FEF7E7F900F005F800F023F810BDD4
:1022A0000000002008B50DA0006800900022102159
:1022B0004FF09040FEF7D6F94FF47A730122694649
:1022C0000748FFF7ABFB0120FEF7ACF80122102115
:1022D0004FF09040FEF7C6F908BD0000E200000094
:1022E0001C00002008B50DA00068009000221021FD
:1022F0004FF09040FEF7B6F94FF47A730122694629
:102300000748FFF78BFB0120FEF78CF80122102114
:102310004FF09040FEF7A6F908BD0000E100000074
:102320001C00002001B584B0002003900022102181
:102330004FF09040FEF796F94FF47A70012303AA0C
:1023400004A900900D48FFF75EFC9DF810000728D7
:102350000AD0FF2002904FF47A70012303AA02A949
:1023600000900648FFF74FFC012210214FF09040EB
:10237000FEF778F99DF80C0005B000BD1C000020A8
:1023800008B511A000680090002210214FF0904085
:10239000FEF768F94FF47A73012269460B48FFF79C
:1023A0003DFB0120FEF73EF8732000904FF47A7356
:1023B000012269460548FFF731FB012210214FF049
:1023C0009040FEF74FF908BD500000001C000020AF
:1023D00037B50C461546002208214FF09040FEF715
:1023E00041F9002210214FF09040FEF73BF94FF4E5
:1023F0007A73012269460D48FFF710FB0120FEF7B2
:1024000011F84FF47A732A4621460848FFF706FB75
:10241000012210214FF09040FEF724F901220821FB
:102420004FF09040FEF71EF93EBD00001C0000205A
:1024300013B59DF8000040F020000090002210210C
:102440004FF09040FEF70EF94FF47A73012269467F
:102450000848FFF7E3FA4FF47A73012201A905480F
:10246000FFF7DCFA012210214FF09040FEF7FAF856
:102470001CBD00001C00002037B50C4615469DF819
:10248000000040F020000090002210214FF090400A
:10249000FEF7E8F84FF47A73012269460948FFF71E
:1024A000BDFA0120FDF7BEFF4FF47A732A4621469C
:1024B0000448FFF7B3FA012210214FF09040FEF7D5
:1024C000D1F83EBD1C00002010B5002400220821D8
:1024D0004FF09040FEF7C6F841F28830FDF7A2FFBA
:1024E0003A210020FFF7A4FF41F28830FDF79AFF60
:1024F00001210846FFF79CFF41F28830FDF792FF6B
:102500000120FFF70FFF044641F28830FDF78AFFF4
:1025100001210220FFF78CFF01210320FFF788FF34
:102520005F210420FFF784FFFFF72AFF00211D2011
:10253000FFF77EFF00211C20FFF77AFF70210720A4
:10254000FFF776FF4C210520FFF772FF2E210620B2
:10255000FFF76EFF03220A491020FFF78DFF0322C9
:1025600007490A20FFF788FF05211120FFF760FFC8
:10257000FFF710FE012211020248FEF773F810BDAA
:1025800000000020001000487047F8B504460E46D1
:102590001546334600224FF4C0512046009500F006
:1025A00027F828B1206E40F0200020660320F8BDF7
:1025B0003346002280212046009500F095F828B18E
:1025C000206E40F0200020660320F0E73346002212
:1025D0004FF4C0612046009500F00AF828B1206E43
:1025E00040F0200020660320E1E70020DFE7000044
:1025F0002DE9FC5F04460D4616461F46DDF8309077
:1026000000200090FEF734F8A0EB0900A7EB0008CB
:10261000FEF72EF88246206800F10C0B3148006866
:10262000C0EBC00000EB8000000D00FB08F0019043
:1026300050E0B5F5C06F05D126B99BF800000090B9
:102640009DF80000781C002844D0FEF711F8A0EB9C
:102650000A00404502D2B8F1000F34D1206840682A
:1026600020F0E000216848606068B0F5827F0DD1FD
:10267000A068B0F5004F03D0A068B0F5806F05D119
:102680002068006820F0400021680860A06AB0F56A
:10269000005F0DD100BF2068006820F40050216861
:1026A00008602068006840F400502168086000BF9E
:1026B000012084F85D0000BF002084F85C0000BFAA
:1026C0000320BDE8FC9F019808B94FF0000801986D
:1026D000401E0190206880682840B042A9D10020A7
:1026E000EFE70000180000202DE9F84F04460D46E2
:1026F00090461E46DDF82890FDF7BAFFA0EB0900D2
:10270000371AFDF7B5FF82462C480068C0F3CB307E
:102710007843009045E0701C002842D0FDF7A8FFE8
:10272000A0EB0A00B84200D2A7BB2068406820F0A6
:10273000E000216848606068B0F5827F0DD1A06834
:10274000B0F5004F03D0A068B0F5806F05D12068C8
:10275000006820F0400021680860A06AB0F5005FC2
:102760000DD100BF2068006820F400502168086087
:102770002068006840F400502168086000BF012014
:1027800084F85D0000BF002084F85C0000BF0320D7
:10279000BDE8F88FFFE7009800B900270098401EB9
:1027A0000090206880682840A84201D1012000E004
:1027B00000204045AFD10020EAE7000018000020CB
:1027C000704710B5FDF75AFF10BD00B59FB0282126
:1027D00015A8FDF7C0FD142110A8FDF7BCFD3C2194
:1027E00001A8FDF7B8FD012015904FF4A020169028
:1027F000002017900120199002201C90C1031D9108
:102800004FF4E0111E9115A8FEF73CFB08B1FDF74F
:1028100021FE0F20109002201190002012904FF402
:102820008060139000201490022110A8FEF752F946
:1028300008B1FDF70FFE012001900020039001A8D0
:10284000FDF7D6FF08B1FDF705FE1FB000BD000083
:102850000348006840F470000149086070470000B8
:1028600088ED00E090F8241001F0010139B1016811
:10287000496821F40031826A11430268516090F87E
:10288000241001F00201022907D10168496821F4EE
:102890008031C26A11430268516090F8241001F03F
:1028A0000401042907D10168496821F48021026BE1
:1028B00011430268516090F8241001F008010829C2
:1028C00007D10168496821F40041426B1143026855
:1028D000516090F8241001F01001102907D101680F
:1028E000896821F48051826B11430268916090F8ED
:1028F000241001F02001202907D10168896821F402
:102900000051C26B11430268916090F8241001F0ED
:102910004001402913D10168496821F48011026CFB
:10292000114302685160016CB1F5801F07D1016845
:10293000496821F4C001426C11430268516090F86B
:10294000241001F08001802907D10168496821F431
:102950000021826C114302685160704738B504460B
:102960000020C4F88000FDF783FE0546206800685B
:1029700000F0080008280CD16FF07E402B460022A2
:102980004FF400110090204600F068F908B10320D0
:1029900038BD2068006800F0040004280CD16FF0F6
:1029A0007E402B4600224FF480010090204600F02C
:1029B00055F908B10320EBE72020A067E06700206D
:1029C000206600BF84F8740000BF00BFE0E700008D
:1029D0002DE9F04705464FF0000A2969A868084329
:1029E00069690843E96940EA01082868006849F212
:1029F0000C61884340EA080029680860286840683C
:102A000020F44050E968084329684860D5F81880E8
:102A1000286A40EA08082868806820F4306040EAA4
:102A200008002968886000BF85492868884216D157
:102A30008448006B00F0030030B1012808D0022860
:102A400008D0032808D101E0012407E0022405E0B2
:102A5000042403E0082401E0102400BF78E07A4950
:102A60002868884219D17748006B00F4403048B19B
:102A7000B0F5803F0AD0B0F5003F09D0B0F5403F37
:102A800008D101E0002407E0022405E0042403E06B
:102A9000082401E0102400BF5AE06C4928688842ED
:102AA00019D16848006B00F4402048B1B0F5802F80
:102AB0000AD0B0F5002F09D0B0F5402F08D101E0C1
:102AC000002407E0022405E0042403E0082401E0D8
:102AD000102400BF3CE05E492868884219D159485B
:102AE000006B00F4401048B1B0F5801F0AD0B0F57B
:102AF000001F09D0B0F5401F08D101E0002407E015
:102B0000022405E0042403E0082401E0102400BFAF
:102B10001EE050492868884219D14A48006B00F4E9
:102B2000400048B1B0F5800F0AD0B0F5000F09D0D1
:102B3000B0F5400F08D101E0002407E0022405E0D1
:102B4000042403E0082401E0102400BF00E0102466
:102B500000BFE869B0F5004F3AD1092C17D2DFE881
:102B600004F005090D160F1616161300FEF70EF9E0
:102B7000064610E0FEF720F906460CE0364E0AE065
:102B8000FEF730F9064606E04FF4004603E0002663
:102B90004FF0010A00BF00BF8EB37000696800EB00
:102BA0005100B0FBF1F087B2102F0ED3B7F5803F84
:102BB0000BD24FF6F07007EA0009C7F3420049EA6A
:102BC00000092868C0F80C9034E04FF0010A31E0A9
:102BD000092C18D2DFE804F005090D170F17171795
:102BE0001400FEF7D3F8064611E0FEF7E5F80646B6
:102BF0000DE0194E0BE0FEF7F5F8064607E019E088
:102C00004FF4004603E000264FF0010A00BF00BF6A
:102C100086B1686806EB50006968B0FBF1F087B2D6
:102C2000102F05D3B7F5803F02D22868C76001E0B6
:102C30004FF0010A00206866A8665046BDE8F0879C
:102C400000380140001002400044004000480040AD
:102C5000004C00400050004000127A002DE9F04185
:102C600004460D4617469846069E67E0701C0028ED
:102C700064D0FDF7FDFCA0EB0800B04200D836BBE5
:102C800000BF00BF216851E8001F21F4D070226806
:102C900042E800010029F5D100BF00BF00BF216854
:102CA000083151E8001F21F001002168083141E896
:102CB0000002002AF3D100BF2020A067E06700BF18
:102CC000002084F8740000BF0320BDE8F081206874
:102CD000006800F0040080B32068C069C0F3C02021
:102CE00058B34FF400602168086200BF00BF21683C
:102CF00051E8001F21F4D070226842E80001002949
:102D0000F5D100BF00BF00BF2168083151E8001FA6
:102D100021F001002168083141E80002002AF3D1C6
:102D200000BF2020A067E067C4F8800000BF00203B
:102D300084F8740000BF0320C7E7FFE72068C0697C
:102D40002840A84201D1012000E00020B8428DD0E7
:102D50000020BAE700BFFEE702480068C0F3022087
:102D6000704700000CED00E010B5002804DB0A07F6
:102D7000130E054A135406E00A07140E034A00F026
:102D80000F031B1FD45410BD00E400E018ED00E059
:102D90001CB56F20019085200090FDF77BFCFFF7AC
:102DA00014FDFFF721F9FFF7A7F9FFF7CFF9FFF7B8
:102DB0008BFBC820FDF752FB26E01E20FDF74EFBE3
:102DC00001214FF09040FDF73BFC58B10F489DF8B2
:102DD00004100170FFF7F8F9012211020C48FDF709
:102DE00041FC11E001214FF09040FDF729FC58B95A
:102DF00006489DF800100170FFF7E6F900224FF435
:102E000080710348FDF72EFCD7E700000800002082
:102E1000001000484FF04070E1EE100A70470203C6
:102E20000405060708090A0B0C0D0E0F101001020D
:102E3000030405060708090A0B0C0D0E0F1000000D
:102E4000000000000000010203040607080900005A
:102E50000000010203040000782E0008000000209A
:102E60001C000000C4010008942E00081C00002073
:102E70005C070000E0010008B3B40100000000009E
:102E80000000000000000000100000000100000031
:042E900000127A00B2
:040000050800018965
:00000001FF
