:020000040800F2
:100000003807002091010008D11E0008391D0008A2
:10001000CD1E00088F0500083D25000800000000E7
:10002000000000000000000000000000BD230008E8
:10003000930500080000000019220008BF230008F3
:10004000AB010008AB010008AB010008AB010008E0
:10005000AB010008AB010008C5050008AB010008B2
:10006000AB010008AB010008AB010008AB010008C0
:10007000AB010008AB010008AB010008AB010008B0
:10008000AB010008AB010008AB010008AB010008A0
:10009000AB010008AB010008AB010008AB01000890
:1000A000AB0100082D240008AB010008AB010008DB
:1000B000AB010008AB010008AB010008AB01000870
:1000C000AB010008AB010008AB010008AB01000860
:1000D000AB010008AB010008AB010008AB01000850
:1000E000AB010008AB010008AB01000800F002F80A
:1000F00000F03FF80AA090E8000C82448344AAF183
:100100000107DA4501D100F034F8AFF2090EBAE880
:100110000F0013F0010F18BFFB1A43F0010318473B
:10012000E425000004260000103A24BF78C878C1F6
:10013000FAD8520724BF30C830C144BF04680C60ED
:10014000704700000023002400250026103A28BF35
:1001500078C1FBD8520728BF30C148BF0B60704739
:10016000782900F07180002070471FB51FBD10B5C1
:1001700010BD00F0D2F91146FFF7F7FF02F004FAC4
:1001800000F0F0F903B4FFF7F2FF03BC00F0F8F958
:100190000948804709480047FEE7FEE7FEE7FEE71B
:1001A000FEE7FEE7FEE7FEE7FEE7FEE70448054957
:1001B000054A064B7047000029240008ED0000089E
:1001C00038010020380700203803002038030020C1
:1001D0000FB41CB5074B06AA7B44694600900598EE
:1001E00000F083F90020694600F092F91CBC5DF82C
:1001F00014FB00003503000070B5044685690068F3
:10020000C10601D5302600E02026C00707D070BD0A
:10021000D4E9012130469047206A401C20626D1EBF
:10022000F6D570BD70B5044685690078C00707D162
:1002300070BDD4E9012120209047206A401C206233
:100240006D1EF6D570BD000070B504460D46214602
:100250001068AFF300802188090502D50F4A7A445F
:1002600002E00E4A7A440E32002104F1240305E034
:1002700000F00F060009965D5E54491C0028F7D176
:1002800020780023000704D5702D02D009B1022385
:1002900011322046BDE8704000F0C8B86624000066
:1002A0002DE9F05F894604464FF0000ADFF824B1DB
:1002B000FB44C0F820A02046E168884700287DD094
:1002C000252806D0D4E901219047206A401C2062ED
:1002D000F1E700255F462046E1688847202806466A
:1002E00007DB312E05D2B81910F8200C08B10543F0
:1002F000F1E7A80701D525F00405C4F81CA00027E4
:10030000C4F818A02A2E09D0304602F035F938B3C7
:1003100004EB8708303EC8F8186019E059F8041B50
:10032000204604EB87029161E1688847012F064669
:1003300018D1E069002820DA25F020051DE0D8F862
:10034000180000EB800006EB40003038C8F81800B9
:100350002046E1688847064602F00EF90028EED1F3
:10036000012F0AD02E2E08D12046E16888477F1C35
:100370000646022F45F02005C4DBA069002803DAF9
:10038000404245F00105A061E80701D025F01005C5
:10039000A6B1A6F14100192802D8203645F400651F
:1003A0004A463146204625604D46FFF7D9FE60B1EA
:1003B000012807D0ED1D25F0070000E007E000F15F
:1003C000080978E705F1040975E730467AE7206AFD
:1003D000BDE8F09F3C2400004FF0000200B513463A
:1003E00094469646203922BFA0E80C50A0E80C5055
:1003F000B1F12001BFF4F7AF090728BFA0E80C5006
:1004000048BF0CC05DF804EB890028BF40F8042BFE
:1004100008BF704748BF20F8022B11F0804F18BF6B
:1004200000F8012B70477047704770472DE9F0477F
:100430000D4699469246044600F124080168880654
:1004400004D5E06921F01001216000E00120A842FC
:1004500001DD471B00E00027A1697A1902EB0900C2
:10046000081AA0612078C00602D42046FFF7C4FE17
:10047000002608E0D4E901211AF806009047206A16
:10048000401C761C20624E45F4DB2078C0060AD55D
:100490002046FFF7B1FE06E0D4E901213020904765
:1004A000206A401C2062381EA7F10107F4DC07E037
:1004B000D4E9012118F805009047206A401C206209
:1004C000281EA5F10105F3DC2046FFF7ABFE2078DE
:1004D000000602D50220BDE8F0870120FBE70000FE
:1004E00001694A1C02610878704700B58FB0CDE9F8
:1004F00001310021059105497944CDE903101146E8
:100500006846FFF7CDFE0FB000BD0000E5FFFFFF1E
:100510000A6802F8010B0A607047754600F02CF873
:10052000AE4605006946534620F00700854618B0E0
:1005300020B5FFF73BFEBDE820404FF000064FF02E
:1005400000074FF000084FF0000B21F00701AC4608
:10055000ACE8C009ACE8C009ACE8C009ACE8C00927
:100560008D46704710B50446AFF300802046BDE8C5
:100570001040FFF707BE000000487047D40000207D
:1005800001491820ABBEFEE726000200704700BFFD
:10059000FEE7704701B5094800680949B0FBF1F072
:1005A0000921B0FBF1F000994843009000BF00988A
:1005B000411E00910028FAD108BD00001C00002057
:1005C00040420F0010B5012000F05CF810BD72B67B
:1005D00000BFFEE770B5044600F00AFA064625465D
:1005E000681C10B104480078054400BF00F000FA10
:1005F000801BA842FAD370BD1800002070B50446D5
:100600001C4801F071FF012C30D1002509E0642065
:10061000FFF7C0FF0121184800F0D2F900B170BD0A
:100620006D1C642DF3DB01F071FC14490870084661
:1006300000786F280AD1012202210F4800F0D2F978
:100640000122D1030E4800F0CDF910E00B480078EC
:1006500085280CD100220221074800F0C3F90022AE
:100660004FF40041064800F0BDF900E000BF00BFB4
:10067000D5E70000002C0140000C01400D000020D7
:100680000008014010B5044604480068204020B12D
:10069000024804602046FFF7B1FF10BD140401407A
:1006A0002DE9F8470346002294466EE14FF0010819
:1006B00008FA02F4D1F8008008EA0400A0427DD1D3
:1006C000DFF8DCA2D1F80480A8EB0A09D0453AD0C3
:1006D00014DCB8F1030F50D009DCB8F1000F31D0B1
:1006E000B8F1010F1CD0B8F1020F49D120E0B8F1E8
:1006F000110F18D0B8F1120F42D11EE0B9F5881FC2
:1007000025D006DCB9F5803F20D0B9F5801F37D160
:100710001AE0B9F5001F18D0B9F5041F30D117E061
:10072000D1F80CC02DE0D1F80C8008F1040C28E0C1
:10073000D1F80C8008F1080C23E0D1F80C8008F106
:100740000C0C1EE000BF00BF00BF00BF00BF00BF19
:10075000D1F80880B8F1000F02D14FF0040C0BE083
:10076000D1F80880B8F1010F03D14FF0080C1C61DB
:1007700002E04FF0080C5C6103E04FF0000C00E079
:1007800000BF00BFFF2801D8984601E003F104082C
:100790004646FF2802D84FEA820803E0A2F1080883
:1007A0004FEA88084746D6F800804FF00F0909FA4B
:1007B00007F928EA09080CFA07F900E088E048EA96
:1007C0000908C6F80080D1F8048008F08058B8F114
:1007D000805F7DD100BFDFF8CC81D8F8188048F069
:1007E0000108DFF8C091C9F81880C846D8F8188009
:1007F00008F00108CDF8008000BF00BF4FEAB9380B
:100800004FEA920958F829504FEA82784FEA18794E
:100810004FF00F0808FA09F825EA0805DFF8888183
:10082000434502D14FF0000816E0DFF880814345D0
:1008300002D14FF001080FE0DFF87481434502D187
:100840004FF0020808E0DFF86C81434502D14FF019
:10085000030801E04FF004084FEA82794FEA197962
:1008600008FA09F848EA0505DFF84C814FEA9209D1
:1008700048F82950D1F8048008F48038B8F5803F52
:100880000AD1DFF83881D8F8008048EA0008DFF89C
:100890002C91C9F8008009E0DFF82081D8F80080A9
:1008A00028EA0008DFF81491C9F80080D1F8048024
:1008B00008F40038B8F5003F10D1DFF8008108F1E6
:1008C0000408D8F8008048EA0008DFF8F09000E05B
:1008D0005AE009F10409C9F800800DE0DFF8DC8076
:1008E00008F10408D8F8008028EA0008DFF8CC9066
:1008F00009F10409C9F80080D1F8048008F48018CF
:10090000B8F5801F0ED1DFF8B48008F10808D8F8D8
:10091000008048EA0008DFF8A49009F10809C9F846
:1009200000800DE0DFF8948008F10808D8F8008016
:1009300028EA0008DFF8849009F10809C9F8008066
:10094000D1F8048008F40018B8F5001F0ED1DFF8C4
:100950006C8008F10C08D8F8008048EA0008DFF83D
:100960005C9009F10C09C9F800800DE0DFF84C80BB
:1009700008F10C08D8F8008028EA0008DFF83C905D
:1009800009F10C09C9F80080521CD1F8008028FA3E
:1009900002F8B8F1000F7FF489AEBDE8F8870000D7
:1009A000000011100010024000080140000C01403E
:1009B0000010014000140140080001400004014003
:1009C000024693680B400BB1012000E00020704705
:1009D00010B5C26821EA020302EA010443EA0443B3
:1009E000036110BD0AB1016101E00B0403617047AE
:1009F00001480068704700001000002003480068AC
:100A00000349097808440149086070471000002034
:100A10001800002010B50848006840F01000064992
:100A20000860032000F0A8F80F2000F007F800F09D
:100A30002BF8002010BD00000020024070B50446D5
:100A40000E4800784FF47A71B1FBF0F00C49096858
:100A5000B1FBF0F5284600F02BFF08B1012070BD76
:100A6000102C07D200222146501E00F047F80548FE
:100A7000046001E00120F2E70020F0E71800002008
:100A80001C0000201400002008B500BF1148806938
:100A900040F001000F4988610846806900F00100BC
:100AA000009000BF00BF00BF0846C06940F0805002
:100AB000C8610846C06900F08050009000BF00BFC8
:100AC00000BF0549486820F0E06040F000704860D1
:100AD00000BF08BD0010024000000140014608466A
:100AE000002809DB00F01F0301229A4043099B0004
:100AF00003F1E023C3F8002100BF70472DE9F05F48
:100B000080460D461646002701F01AFD0746394675
:100B10002A46334601F00700C0F1070ABAF1040F74
:100B200002D94FF0040A01E0C0F1070AD14600F1F2
:100B3000040ABAF1070F02D24FF0000A01E0A0F157
:100B4000030AD4464FF0010A0AFA09FAAAF1010A87
:100B50000AEA020A0AFA0CFA4FF0010B0BFA0CFB34
:100B6000ABF1010B0BEA030B4AEA0B0421464046AA
:100B700001F0EEFCBDE8F09F00BF00F00702064B5D
:100B800019684FF6FF031940044B0B4343EA022157
:100B9000014B196000BF70470CED00E00000FA0542
:100BA00070B504460D460CB9012070BD5A48006866
:100BB00000F00700A8420ED25748006820F0070056
:100BC0002843554908600846006800F00700A8421D
:100BD00001D00120E9E7207800F0020002281DD1B1
:100BE000207800F00400042805D14C48406840F407
:100BF000E0604A494860207800F00800082805D1E4
:100C00004648406840F46050444948604348406862
:100C100020F0F000A168084340494860207800F0C7
:100C2000010078B36068012806D13C48006800F4F0
:100C3000003090B90120B8E76068022806D1374833
:100C4000006800F0007040B90120AEE7334800684A
:100C500000F0020008B90120A7E73048406820F002
:100C60000300616808432D494860FFF7C1FE06464E
:100C700009E0FFF7BDFE801B41F28831884202D9AE
:100C8000032092E707E02548406800F00C00616807
:100C9000B0EB810FEDD12048006800F00700A842BA
:100CA0000ED91D48006820F0070028431A49086043
:100CB0000846006800F00700A84201D0012074E750
:100CC000207800F00400042807D11448406820F47C
:100CD000E060E168084311494860207800F00800AE
:100CE000082808D10D48406820F46050216940EA86
:100CF000C1000A49486000F019F808494968C1F381
:100D00000311074A515CC84006490860064800685C
:100D1000FFF794FE002048E7002002400010024048
:100D2000B02600081C00002014000020F0B585B09B
:100D30000FF26C0C9CE8E01001A8A0E8E0101CA5E4
:100D40002D68009500210022002300240020194D69
:100D5000696801F00C05F5B1042D02D0082D19D1F8
:100D600001E0154819E001ADC1F38346AC5D01F423
:100D7000803555B10F4D6D68C5F340451DF8052010
:100D80000D4D6543B5FBF2F302E00C4D04FB05F39A
:100D9000184602E000BF084800BF00BF05B0F0BD24
:100DA00002030405060708090A0B0C0D0E0F1010AC
:100DB000010200000010024000127A0000093D000C
:100DC000F8B504460CB90120F8BD207800F0010008
:100DD000002878D0F848406800F00C0004280CD0B7
:100DE000F548406800F00C00082811D1F24840682E
:100DF00000F48030B0F5803F0AD1EF48006800F47D
:100E0000003000285FD0606800285CD10120DBE75B
:100E100000BF6068B0F5803F06D1E748006840F445
:100E20008030E549086028E0606858B9E248006809
:100E300020F48030E04908600846006820F48020F3
:100E400008601AE06068B0F5A02F0BD1DA4800689E
:100E500040F48020D84908600846006840F480309B
:100E600008600AE0D448006820F48030D249086065
:100E70000846006820F48020086000BF606888B1E0
:100E8000FFF7B6FD054606E0FFF7B2FD401B6428FC
:100E900001D9032098E7C848006800F40030002812
:100EA000F2D010E0FFF7A4FD054606E0FFF7A0FD35
:100EB000401B642801D9032086E7BF48006800F47E
:100EC00000300028F2D1207800F00200022857D12B
:100ED000B948406800F00C0050B1B748406800F0D5
:100EE0000C00082818D1B448406800F4803098B944
:100EF000B148006800F0020020B12069012801D04B
:100F0000012061E7AC48006820F0F800616940EA20
:100F1000C100A949086033E02069E8B10120A74970
:100F20000860FFF765FD054606E0FFF761FD401B21
:100F3000022801D9032047E79F48006800F002001B
:100F40000028F2D09C48006820F0F800616940EA6F
:100F5000C1009949086013E0002098490860FFF734
:100F600047FD054606E0FFF743FD401B022801D977
:100F7000032029E79048006800F002000028F2D121
:100F8000207800F0080008282DD1A069B8B1012010
:100F90008B490860FFF72CFD054606E0FFF728FDAA
:100FA000401B022801D903200EE78348406A00F065
:100FB00002000028F2D0012001F030F913E00020F7
:100FC0007F490860FFF714FD054606E0FFF710FDB6
:100FD000401B022801D90320F6E67748406A00F05A
:100FE00002000028F2D1207800F00400042873D118
:100FF00000277148C06900F0805070B900BF6E488A
:10100000C06940F080506C49C8610846C06900F072
:101010008050009000BF00BF01276A48006800F4BC
:101020008070B0B96748006840F480706549086016
:10103000FFF7DEFC054606E0FFF7DAFC401B6428FC
:1010400001D90320C0E65F48006800F480700028E2
:10105000F2D000BFE068012806D15748006A40F08E
:1010600001005549086227E0E06858B95248006A13
:1010700020F00100504908620846006A20F0040090
:10108000086219E0E06805280BD14B48006A40F07F
:101090000400494908620846006A40F001000862FD
:1010A0000AE04548006A20F001004349086208460A
:1010B000006A20F00400086200BFE068A0B1FFF7FA
:1010C00097FC054609E0FFF793FC401B41F288318D
:1010D000884202D9032077E622E03748006A00F010
:1010E00002000028EFD012E0FFF782FC054608E07E
:1010F000FFF77EFC401B41F28831884201D9032072
:1011000062E62D48006A00F002000028F0D1012FAD
:1011100005D12948C06920F080502749C86100BF27
:10112000E069C8B32448406800F00C00082860D08B
:10113000E069022848D1002020490866FFF758FCE2
:10114000054606E0FFF754FC401B022801D90320A6
:101150003AE61948006800F000700028F2D1206AD1
:10116000B0F5803F07D11448406820F40030A168F2
:10117000084311494860D4E9080108430E49496809
:1011800021F4741108430C49486001200B4908669A
:10119000FFF72EFC054607E03DE0FFF729FC401B6A
:1011A000022801D903200FE60348006800F0007010
:1011B0000028F2D02FE00000001002400000424260
:1011C0008004424200700040002014490866FFF786
:1011D0000FFC054606E0FFF70BFC401B022801D977
:1011E0000320F1E50E48006800F000700028F2D1FD
:1011F00011E0E069012800D1E6E50948466806F4F7
:101200008031206A814204D106F47011606A814203
:1012100001D00120D8E50020D6E5000000004242C0
:101220000010024010B504460CB9012010BD606AE0
:1012300038B96068B0F5827F00D105E00021E16136
:1012400002E00021216161610021A16294F8510056
:1012500028B9002084F85000204600F043F802200E
:1012600084F851002068006820F040002168086080
:10127000A08800F48270218901F404410843A18907
:1012800001F400610843217C01F002010843217D43
:1012900001F001010843218B01F400710843217F13
:1012A00001F0380108432021095D01F08001084365
:1012B000218D01F400510843216808600421A069D0
:1012C00001EA1040216848602068C06920F400608D
:1012D0002168C86100206065012084F85100002069
:1012E000A4E7000010B586B00446002002900390E9
:1012F000049005901949206888422DD100BF1848F4
:10130000806940F48050164988610846806900F47D
:101310008050019000BF00BF00BF0846806940F0C8
:10132000040088610846806900F00400019000BF55
:1013300000BFA0200290022003900320059002A984
:101340000848FFF7ADF94020029000200390049078
:1013500002A90448FFF7A4F906B010BD003001400F
:1013600000100240000801402DE9F8430446884679
:1013700016461D464FF000096068B0F5827F0DD11A
:10138000A06858B9042084F85100334642464146CB
:101390002046009500F077F9BDE8F88300BF94F887
:1013A0005000012801D10220F6E7012084F8500006
:1013B00000BFFFF71DFB074694F85100012802D03B
:1013C0004FF002097EE0B8F1000F00D016B94FF0DF
:1013D000010977E0042084F8510000206065C4F81A
:1013E0003880A687E6872063A086E0862064606454
:1013F000A068B0F5004F0BD12068006820F04000D5
:10140000216808602068006820F480402168086036
:101410002068006800F04000402805D0206800687F
:1014200040F0400021680860E068F8B91AE02068E0
:10143000806800F0010050B12068007BA16B08704B
:10144000A06B401CA063E08F401EE0870AE0FFF71E
:10145000CFFAC01BA84201D3681C00B915B94FF0E0
:1014600003092FE0E08F0028E1D11EE01AE0206898
:10147000806800F0010050B12068C068A16B08804E
:10148000A06B801CA063E08F401EE0870AE0FFF79E
:10149000AFFAC01BA84201D3681C00B915B94FF0C0
:1014A00003090FE0E08F0028E1D13A4629462046A3
:1014B00000F0C8FE08B120206065606D08B14FF0F3
:1014C000010900BF012084F8510000BF002084F80A
:1014D000500000BF48465FE72DE9F84F04468846B4
:1014E00016461D464FF0000A00BF94F85000012830
:1014F00002D10220BDE8F88F012084F8500000BF1F
:10150000FFF776FA0746B14694F85100012802D059
:101510004FF0020AADE0B8F1000F00D016B94FF05D
:10152000010AA6E0032084F8510000206065C4F899
:101530003080A686E686A063A087E087606420648A
:10154000A068B0F5004F0BD12068006820F0400083
:10155000216808602068006840F4804021680860C5
:101560002068006800F04000402805D0206800682E
:1015700040F0400021680860E068B0F5006F2FD1AE
:10158000606810B1B9F1010F09D1206B00882168A2
:10159000C860206B801C2063E08E401EE0861BE04C
:1015A0002068806800F0020002280AD1206B0088C1
:1015B0002168C860206B801C2063E08E401EE0869E
:1015C0000AE0FFF715FAC01BA84201D3681C00B956
:1015D00015B94FF0030A4CE0E08E0028E0D12EE070
:1015E000606810B1B9F1010F09D1206B0078216852
:1015F0000873206B401C2063E08E401EE0861BE0D9
:101600002068806800F0020002280AD1206B007870
:1016100021680873206B401C2063E08E401EE0862A
:101620000AE0FFF7E5F9C01BA84201D3681C00B926
:1016300015B94FF0030A1CE0E08E0028E0D13A46CD
:101640002946204600F03AFE08B120206065A068D7
:1016500050B900BF002000902068C068009020684A
:101660008068009000BF00BF606D08B14FF0010AB4
:1016700000BF012084F8510000BF002084F8500012
:1016800000BF504636E72DE9FF5F04468846914685
:101690001D460E9E012002900020019000BF94F88C
:1016A0005000012803D1022004B0BDE8F09F0120C2
:1016B00084F8500000BFFFF79BF9074694F851B03B
:1016C00060680390AA46BBF1010F0BD00398B0F5F8
:1016D000827F04D1A06810B9BBF1040F02D00220B0
:1016E0000190DBE0B8F1000F03D0B9F1000F00D09A
:1016F00015B901200190D1E094F85100042802D0DE
:10170000052084F8510000206065C4F83890E58712
:10171000A587C4F83080E586A586206460642068CB
:10172000006800F04000402805D02068006840F0C4
:10173000400021680860E068B0F5006F4AD1606839
:1017400010B1BAF1010F09D1206B00882168C8607F
:10175000206B801C2063E08E401EE08633E0206812
:10176000806800F00200022810D1E08E70B102986B
:1017700001280BD1206B00882168C860206B801C79
:101780002063E08E401EE086002002902068806882
:1017900000F0010068B1E08F58B12068C068A16B0B
:1017A0000880A06B801CA063E08F401EE0870120B2
:1017B0000290FFF71DF9C01BB04204D3701C10B19A
:1017C000032001906AE0E08E0028C8D1E08F002855
:1017D000C5D14AE0606810B1BAF1010F09D1206BA0
:1017E000007821680873206B401C2063E08E401E47
:1017F000E08634E02068806800F00200022810D102
:10180000E08E70B1029801280BD1206B007821681E
:101810000873206B401C2063E08E401EE086002091
:1018200002902068806800F0010068B1E08F58B134
:101830002068C068A16B0870A06B401CA063E08F9B
:10184000401EE08701200290FFF7D2F8C01BB04293
:1018500001D3701C00B916B9032001901EE0E08E80
:101860000028C7D1E08F0028C4D13A46314620462F
:1018700000F024FD20B101200190202060650DE0E2
:10188000A06850B900BF002000902068C068009098
:1018900020688068009000BF00BF00BF012084F86E
:1018A000510000BF002084F8500000BF0198FBE603
:1018B00070B504462546681EB0F1807F01D3012033
:1018C0000FE0681E4FF0E02148610F214FF0FF301C
:1018D00000F03EFE00204FF0E02188610720086103
:1018E000002070BD7047704730B502460B4600BF00
:1018F00092F83C00012801D1022030BD012082F87D
:101900003C0000BF022082F83D0010684468106867
:10191000816824F070041868044310684460104D16
:101920001068A8420BD01068B0F1804F07D00D4D61
:101930001068A84203D00C4D1068A84205D121F0D0
:1019400080015868014310688160012082F83D00E1
:1019500000BF002082F83C0000BF00BFCDE70000C0
:10196000002C0140000400400008004010B504466F
:101970000CB9012010BD94F83D0028B9002084F86E
:101980003C00204600F026F8022084F83D00211D8E
:10199000206800F05BFD012084F8460000BF84F859
:1019A0003E0001213F2001554020015541200155B5
:1019B00000BF00BF012084F84200432001554420AD
:1019C00001554520015500BF012084F83D0000204D
:1019D000D0E7000038B504460D492068884215D18B
:1019E00000BF0C48806940F400600A4988610846DD
:1019F000806900F40060009000BF00BF0022114623
:101A00001920FFF77BF81920FFF768F838BD0000B0
:101A1000002C014000100240014691F83D000128D1
:101A200001D001207047022081F83D000868C0689D
:101A300040F001000B68D860124B086898420BD048
:101A40000868B0F1804F07D00F4B0868984203D068
:101A50000E4B086898420CD10868806800F00702B5
:101A6000062A0CD00868006840F001000B68186076
:101A700005E00868006840F001000B68186000206D
:101A8000D0E70000002C01400004004000080040A6
:101A90002DE9F04104460D4600BF94F83C000128B2
:101AA00002D10220BDE8F081012084F83C0000BF93
:101AB000022084F83D002068866826F0770626F428
:101AC0007F46206886602868502833D00CDC2028A8
:101AD00050D004DC00284BD0102851D149E03028E8
:101AE00049D040284CD139E060282DD0702807D04B
:101AF000B0F5805F03D0B0F5005F41D10DE040E06C
:101B0000D5E902136A68206800F0DAFC206886686C
:101B100046F077062068866033E0D5E902136A68EC
:101B2000206800F0CDFC2068806840F48040216887
:101B3000886026E0EA686968206800F0D8FC5021D7
:101B4000206800F0C8FC1CE0EA686968206800F0C2
:101B5000E1FC6021206800F0BEFC12E0EA686968E0
:101B6000206800F0C4FC4021206800F0B4FC08E0CC
:101B700000BF00BF00BF2968206800F0ACFC00E097
:101B800000BF00BF012084F83D0000BF002084F8A2
:101B90003C0000BF00BF85E7704710B504462068D1
:101BA0000069C0F34000D8B12068C068C0F34000AD
:101BB000B0B16FF002002168086101202077206831
:101BC000806900F0030018B12046FFF7E5FF05E04B
:101BD000204600F0ADF8204600F0ABF8002020775A
:101BE00020680069C0F38000D8B12068C068C0F3E5
:101BF0008000B0B16FF004002168086102202077F6
:101C00002068806900F4407018B12046FFF7C4FFD7
:101C100005E0204600F08CF8204600F08AF800200D
:101C2000207720680069C0F3C000D8B12068C06880
:101C3000C0F3C000B0B16FF0080021680861042053
:101C400020772068C06900F0030018B12046FFF734
:101C5000A3FF05E0204600F06BF8204600F069F88D
:101C60000020207720680069C0F30010D8B12068F8
:101C7000C068C0F30010B0B16FF0100021680861B7
:101C8000082020772068C06900F4407018B1204611
:101C9000FFF782FF05E0204600F04AF8204600F0FA
:101CA00048F8002020772068006900F0010058B152
:101CB0002068C06800F0010030B16FF001002168B9
:101CC0000861204600F036F820680069C0F3C010B3
:101CD00058B12068C068C0F3C01030B16FF0800008
:101CE000216808612046FFF7FDFD20680069C0F308
:101CF000801058B12068C068C0F3801030B16FF018
:101D0000400021680861204600F015F8206800694D
:101D1000C0F3401058B12068C068C0F3401030B123
:101D20006FF02000216808612046FFF7DCFD10BD40
:101D3000704770477047704700BFFEE700B585B039
:101D40000020019002900390049000BF2E4880690B
:101D500040F004002C4988610846806900F00400C6
:101D6000009000BF00BF00BF0846806940F0080037
:101D700088610846806900F00800009000BF00BF3D
:101D8000002248F218012148FEF72CFE00223221E1
:101D90001F48FEF727FE48F218000190012002902C
:101DA000002003900220049001A91848FEF778FC57
:101DB00001200190174802900020039001A91448C7
:101DC000FEF76EFC2220019001200290002003907B
:101DD0000220049001A90E48FEF762FC1020019039
:101DE0000120029003900220049001A90848FEF708
:101DF00057FC002211460620FEF780FE0620FEF763
:101E00006DFE05B000BD000000100240000801405A
:101E1000000C01400000211010B50E480E4908606A
:101E20004FF48270486000210B488160C1600161FD
:101E300041614FF4007181612021C1610021016283
:101E4000416281620A21C162FFF7ECF908B1FEF735
:101E5000BEFB10BD003001402000002000B587B05F
:101E60000020039004900590069001900290154880
:101E70001549086041F6FF00486000211248816062
:101E800040F6B831C1600021016141618161FFF715
:101E90006DFD08B1FEF79BFB4FF48050039003A942
:101EA0000948FFF7F5FD08B1FEF791FB002001900E
:101EB000029001A90448FFF717FD08B1FEF787FB60
:101EC00007B000BD002C01407800002000BFFEE7F5
:101ED00000BFFEE710B50024002000F08DF8044696
:101EE00044F003042146002000F0FCF80122082100
:101EF0000548FEF777FD9620FEF74CFB00F03CF816
:101F000000F05AF810BD00000008014070B501262D
:101F100001240025072000F06FF8064600BF0F20BF
:101F2000FEF738FB40F2DC50FEF734FB072000F0F0
:101F300063F80646681CC5B206F0400008B90A2DD1
:101F4000EDDD0F20FEF726FB05220949612000F098
:101F500081F80F20FEF71EFB05480478402107207A
:101F600000F0C0F80348047000F006F8204670BD89
:101F7000030000200900002008B50CA000680090B4
:101F8000002210210A48FEF72DFD4FF47A7301223A
:101F900069460848FFF7A0FA0120FEF7FBFA012284
:101FA00010210348FEF71EFD08BD0000E2000000FE
:101FB000000801402000002008B50CA00068009037
:101FC000002210210A48FEF70DFD4FF47A7301221A
:101FD00069460848FFF780FA0120FEF7DBFA012284
:101FE00010210348FEF7FEFC08BD0000E1000000E0
:101FF000000801402000002001B584B000200390BB
:10200000002210211148FEF7EDFC4FF47A700123F5
:1020100003AA04A900900E48FFF735FB9DF81000B5
:1020200007280AD0FF2002904FF47A70012303AAF8
:1020300002A900900648FFF726FB01221021034861
:10204000FEF7D0FC9DF80C0005B000BD0008014073
:102050002000002037B50C461546002210210B4801
:10206000FEF7C0FC4FF47A73012269460848FFF777
:1020700033FA4FF47A732A4621460548FFF774F97C
:10208000012210210148FEF7ADFC3EBD00080140D1
:102090002000002008B510A0006800900022102148
:1020A0000E48FEF79FFC4FF47A73012269460C48F4
:1020B000FFF712FA0120FEF76DFA732000904FF43B
:1020C0007A73012269460648FFF706FA01221021B9
:1020D0000248FEF787FC08BD5000000000080140E0
:1020E0002000002013B59DF8000040F02000009073
:1020F000002210210B48FEF775FC4FF47A73012281
:1021000069460948FFF7E8F94FF47A73012201A9FB
:102110000548FFF7E1F9012210210248FEF762FCB1
:102120001CBD0000000801402000002037B50C460F
:1021300015469DF8000040F020000090002210217C
:102140000C48FEF74FFC4FF47A73012269460A48A7
:10215000FFF7C2F90120FEF71DFA4FF47A732A4601
:1021600021460548FFF7B8F9012210210148FEF782
:1021700039FC3EBD000801402000002010B50022BF
:1021800008212348FEF72EFC41F28830FEF702FAC0
:102190003A210020FFF7A6FF41F28830FEF7FAF956
:1021A00002210120FFF79EFF02210846FFF79AFF58
:1021B00001210320FFF796FF5F210420FFF792FF24
:1021C000FFF768FF00211D20FFF78CFF00211C2076
:1021D000FFF788FF70210720FFF784FF4C210520BF
:1021E000FFF780FF2E210620FFF77CFF032209491D
:1021F0001020FFF79BFF032206490B20FFF796FFF5
:1022000005211220FFF76EFFFFF764FE10BD0000EE
:1022100000080140000000207047000008B5084990
:102220000968C9084FF47A72B1FBF2F14143009199
:1022300000BF00BF00994A1E00920029F9D108BDD5
:102240001C000020F8B504460E4615466068B0F53F
:10225000827F0DD1A068B0F5004F03D0A068B0F523
:10226000806F05D12068006820F040002168086078
:102270006068B0F5827F11D1A068B0F5806F0DD194
:102280003346002201212046009500F02BF898B13A
:10229000606D40F0200060650320F8BD33460022E9
:1022A00080212046009500F01DF828B1606D40F0B7
:1022B000200060650320F0E70020EEE7F8B5044653
:1022C0000D4616462B46002280212046009600F03F
:1022D00009F828B1606D40F0200060650320F8BD6A
:1022E0000020FCE72DE9F84F04460D4690461E46B7
:1022F000DDF82890FEF77CFBA0EB0900371AFEF70B
:1023000077FB82462C480068C0F3CB3078430090BE
:1023100045E0701C002842D0FEF76AFBA0EB0A00E3
:10232000B84200D2A7BB2068406820F0E0002168D6
:1023300048606068B0F5827F0DD1A068B0F5004FAD
:1023400003D0A068B0F5806F05D12068006820F048
:10235000400021680860A06AB0F5005F0DD100BFA1
:102360002068006820F40050216808602068006838
:1023700040F400502168086000BF012084F851003B
:1023800000BF002084F8500000BF0320BDE8F88F94
:10239000FFE7009800B900270098401E00902068D1
:1023A00080682840A84201D1012000E0002040457B
:1023B000AFD10020EAE700001C000020704710B5F4
:1023C000FEF71CFB10BD00B58FB0282105A8FEF755
:1023D00003F814216846FDF7FFFF02200590012055
:1023E000099010200A9002200C9000210D914FF4CA
:1023F00060110E9105A8FEF7E3FC08B1FEF7E7F8BF
:102400000F20009002200190002002904FF4806085
:1024100003900020049002216846FEF7C1FB08B13A
:10242000FEF7D5F80FB000BD7047000010B52021B1
:102430000448FEF7CDFAFFF7A1FE0348FFF7ADFB16
:1024400010BD0000000C01407800002010B50268AB
:10245000184B984208D0B0F1804F05D0164B9842E7
:1024600002D0164B984203D122F070024B681A43F7
:10247000104B984208D0B0F1804F05D00E4B9842D7
:1024800002D00E4B984203D122F44072CB681A431B
:1024900022F080034C6943EA040202608B68C36245
:1024A0000B688362034B984201D10B6903630123DC
:1024B000436110BD002C01400004004000080040B2
:1024C00030B50C46816821F47F4142EA032525435B
:1024D0002943816030BD0A46816821F0700142F0D5
:1024E000070319438160704700214162704730B58E
:1024F0000B461446026A056A25F0010505628169EA
:1025000021F0F00141EA041122F00A021A4381612C
:10251000026230BD30B50B461446056A25F0100541
:1025200005628169026A21F4704141EA043122F0B6
:10253000A00242EA03128161026230BD00BFFEE7E1
:1025400002480068C0F30220704700000CED00E074
:1025500010B5002804DB0A07130E054A135406E0E1
:102560000A07140E034A00F00F031B1FD45410BDBA
:1025700000E400E018ED00E030380A2801D2012024
:10258000704700207047000000BFFEF743FAFFF7D6
:102590001AFFFFF7D3FBFFF73FFCFFF75FFC28486C
:1025A000FFF73AFAFFF7EAFD012210212548FEF76E
:1025B00019FAC820FEF70EF840E04FF49670FEF7C7
:1025C00009F80020FFF718FD1F4908700846027837
:1025D0001EA12348FDF7FCFD1B4802781BA12048E3
:1025E000FDF7F6FD0120FFF707FD174908700846C3
:1025F00002781CA11A48FDF7EBFD0220FFF7FCFC56
:1026000011490870084602781AA11548FDF7E0FD47
:102610000720FFF7F1FC0C490870084602781AA160
:102620000F48FDF7D5FD0620FFF7E6FC06490870C8
:102630000846027819A10A48FDF7CAFDBDE7000067
:1026400078000020000C01400C000020434F4E4653
:1026500049473A203078253032580D0A00000000F2
:10266000C0000020454E5F41413A2030782530328D
:10267000580D0A00454E5F5258414444523A2030AA
:1026800078253032580D0A005354415455533A209E
:102690003078253032580D0A0000000052465F5352
:1026A000455455503A203078253032580D0A0000F4
:1026B00000000000000000000102030406070809F2
:1026C0000000000001020304303132333435363764
:1026D0003839414243444546403058003031323366
:1026E0003435363738396162636465664030780066
:1026F00004000008000000000000000200010000CB
:102700001000000024270008000000202000000026
:1027100028010008442700082000002018070000B6
:1027200044010008B3B401000000000000010000F3
:102730000003000000000000100000000100000085
:042740000024F4007D
:04000005080000ED02
:00000001FF
