:020000040800F2
:10000000B807002091010008AD2C00086D2A0008F7
:10001000A92C0008F9060008393300080000000088
:1000200000000000000000000000000099310008FE
:10003000BD07000800000000F52F00089B310008F4
:10004000AB010008AB010008AB010008AB010008E0
:10005000AB010008AB010008F1070008AB01000884
:10006000AB010008AB010008AB010008FD06000869
:10007000AB010008AB010008AB010008AB010008B0
:10008000AB010008AB010008AB010008AB010008A0
:10009000AB010008AB010008AB010008AB01000890
:1000A000AB01000829320008AB010008AB010008D1
:1000B000AB010008AB010008AB010008AB01000870
:1000C000AB010008AB010008AB010008AB01000860
:1000D000AB010008AB010008AB010008AB01000850
:1000E000AB010008AB010008AB01000800F002F80A
:1000F00000F03FF80AA090E8000C82448344AAF183
:100100000107DA4501D100F034F8AFF2090EBAE880
:100110000F0013F0010F18BFFB1A43F0010318473B
:10012000103C0000303C0000103A24BF78C878C171
:10013000FAD8520724BF30C830C144BF04680C60ED
:10014000704700000023002400250026103A28BF35
:1001500078C1FBD8520728BF30C148BF0B60704739
:10016000782900F07180002070471FB51FBD10B5C1
:1001700010BD00F0D2F91146FFF7F7FF03F002F9C6
:1001800000F0F0F903B4FFF7F2FF03BC00F0F8F958
:100190000948804709480047FEE7FEE7FEE7FEE71B
:1001A000FEE7FEE7FEE7FEE7FEE7FEE70448054957
:1001B000054A064B7047000025320008ED00000894
:1001C000B8010020B8070020B8030020B8030020C1
:1001D0000FB41CB5074B06AA7B44694600900598EE
:1001E00000F083F90020694600F092F91CBC5DF82C
:1001F00014FB00003503000070B5044685690068F3
:10020000C10601D5302600E02026C00707D070BD0A
:10021000D4E9012130469047206A401C20626D1EBF
:10022000F6D570BD70B5044685690078C00707D162
:1002300070BDD4E9012120209047206A401C206233
:100240006D1EF6D570BD000070B504460D46214602
:100250001068AFF300802188090502D50F4A7A445F
:1002600002E00E4A7A440E32002104F1240305E034
:1002700000F00F060009965D5E54491C0028F7D176
:1002800020780023000704D5702D02D009B1022385
:1002900011322046BDE8704000F0C8B8923A000024
:1002A0002DE9F05F894604464FF0000ADFF824B1DB
:1002B000FB44C0F820A02046E168884700287DD094
:1002C000252806D0D4E901219047206A401C2062ED
:1002D000F1E700255F462046E1688847202806466A
:1002E00007DB312E05D2B81910F8200C08B10543F0
:1002F000F1E7A80701D525F00405C4F81CA00027E4
:10030000C4F818A02A2E09D0304603F033F838B3C9
:1003100004EB8708303EC8F8186019E059F8041B50
:10032000204604EB87029161E1688847012F064669
:1003300018D1E069002820DA25F020051DE0D8F862
:10034000180000EB800006EB40003038C8F81800B9
:100350002046E1688847064603F00CF80028EED1F5
:10036000012F0AD02E2E08D12046E16888477F1C35
:100370000646022F45F02005C4DBA069002803DAF9
:10038000404245F00105A061E80701D025F01005C5
:10039000A6B1A6F14100192802D8203645F400651F
:1003A0004A463146204625604D46FFF7D9FE60B1EA
:1003B000012807D0ED1D25F0070000E007E000F15F
:1003C000080978E705F1040975E730467AE7206AFD
:1003D000BDE8F09F683A00004FF0000200B51346F8
:1003E00094469646203922BFA0E80C50A0E80C5055
:1003F000B1F12001BFF4F7AF090728BFA0E80C5006
:1004000048BF0CC05DF804EB890028BF40F8042BFE
:1004100008BF704748BF20F8022B11F0804F18BF6B
:1004200000F8012B70477047704770472DE9F0477F
:100430000D4699469246044600F124080168880654
:1004400004D5E06921F01001216000E00120A842FC
:1004500001DD471B00E00027A1697A1902EB0900C2
:10046000081AA0612078C00602D42046FFF7C4FE17
:10047000002608E0D4E901211AF806009047206A16
:10048000401C761C20624E45F4DB2078C0060AD55D
:100490002046FFF7B1FE06E0D4E901213020904765
:1004A000206A401C2062381EA7F10107F4DC07E037
:1004B000D4E9012118F805009047206A401C206209
:1004C000281EA5F10105F3DC2046FFF7ABFE2078DE
:1004D000000602D50220BDE8F0870120FBE70000FE
:1004E00001694A1C02610878704700B58FB0CDE9F8
:1004F00001310021059105497944CDE903101146E8
:100500006846FFF7CDFE0FB000BD0000E5FFFFFF1E
:100510000A6802F8010B0A607047754600F02CF873
:10052000AE4605006946534620F00700854618B0E0
:1005300020B5FFF73BFEBDE820404FF000064FF02E
:1005400000074FF000084FF0000B21F00701AC4608
:10055000ACE8C009ACE8C009ACE8C009ACE8C00927
:100560008D46704710B50446AFF300802046BDE8C5
:100570001040FFF707BE00000048704758010020F8
:1005800001491820ABBEFEE726000200704770B597
:10059000044600252068806800F0010018B3206838
:1005A000806820F001002168886000F081FF054626
:1005B00013E000F07DFF401B02280ED92068806800
:1005C00000F0010048B1A06A40F01000A062E06AAB
:1005D00040F00100E062012070BD2068806800F0FA
:1005E00001000028E5D10020F6E770B505466C6AE9
:1005F000A06A00F05000E0B9A06A40F40070A06268
:100600002068806800F46020B0F5602F0DD1207B59
:1006100058B9A06A20F48070A062A06A00F48050EB
:1006200018B9A06A40F00100A062204600F024FA48
:1006300003E0206A016B2846884770BD70B5054607
:100640006C6AA06A40F04000A062E06A40F00400DA
:10065000E062204600F012FA70BD70B50446656A8B
:10066000284600F00AFA70BD38B50446002500207F
:1006700000902068806800F0010078BB20688068E6
:1006800040F0010021688860194800681949B0FBF2
:10069000F1F0009002E00098401E009000980028C1
:1006A000F9D100F005FF054619E000F001FF401BFD
:1006B000022814D92068806800F0010078B9A06A87
:1006C00040F01000A062E06A40F00100E06200BF6C
:1006D000002084F8240000BF012038BD05E0206818
:1006E000806800F001000028DFD00020F5E700005E
:1006F0002C00002040420F0000BFFEE72DE9F04132
:100700001A4800F077FB1A49088803F071F806468A
:1007100032460B460020174902F012FF044602F051
:10072000D1FE1549086012494988480003F0F2F9E2
:10073000054611480168284603F004FA04460F49AB
:1007400003F026F90E4908600846006803F0F4F843
:1007500004460C4A0C4B03F05FF804D2002210212F
:100760000A4800F09FFEBDE8F08100006000002014
:10077000100000200032B3401400002000F07F453C
:10078000180000209A99999999990940000C014004
:1007900030B590F840500124AC40C56B6C600468E3
:1007A00063604468102C04D10468A2600468E160AE
:1007B00003E00468A1600468E26030BD7047000097
:1007C00001B5094800680949B0FBF1F00921B0FB07
:1007D000F1F000994843009000BF0098411E00913D
:1007E0000028FAD108BD00002C00002040420F0074
:1007F00010B5012000F0A6FC10BD72B600BFFEE7E8
:10080000F8B5044600260020009000BF94F82400AC
:10081000012801D10220F8BD012084F8240000BF86
:100820002046FFF7B4FE0646002E6CD1A06A20F4E5
:10083000885040F00200A062022000F011FF35490C
:100840000968B1FBF0F04000009002E00098401E03
:10085000009000980028F9D12046FFF705FF206896
:10086000806840F008002168886000F021FE05469D
:1008700016E000F01DFE401B0A2811D92068806890
:1008800000F0080060B1A06A20F0020040F0100003
:10089000A06200BF002084F8240000BF0120BAE756
:1008A0002068806800F008000028E2D12068806895
:1008B00040F004002168886000F0FAFD054616E06B
:1008C00000F0F6FD401B0A2811D92068806800F06E
:1008D000040060B1A06A20F0020040F01000A062A5
:1008E00000BF002084F8240000BF012093E72068A7
:1008F000806800F004000028E2D1A06A20F0020025
:1009000040F00100A06200BF002084F8240000BF76
:10091000304680E72C00002038B502460023002036
:10092000009000BF92F82400012801D1022038BDB8
:10093000012082F8240000BF4868072812D21068FE
:10094000406B0C79641E04EB84051F24AC40A0436B
:100950000D796D1E05EB85050C68AC4020431468CD
:10096000606327E048680D2812D21068006B0C798C
:10097000E41F04EB84051F24AC40A0430D79ED1F58
:1009800005EB85050C68AC4020431468206311E03A
:100990001068C06A0C790D3C04EB84051F24AC4040
:1009A000A0430D790D3D05EB85050C68AC40204357
:1009B0001468E06208680A2812D31068C0680C78CE
:1009C0000A3C04EB44050724AC40A0430D780A3DE3
:1009D00005EB45058C68AC4020431468E0600FE0EF
:1009E000106800690C7804EB44050724AC40A04370
:1009F0000D7805EB45058C68AC40204314682061F8
:100A00000868102802D00868112827D1174C1068F0
:100A1000A0421ED11068806800F40000F0B9106890
:100A2000806840F400001468A0600868102815D1A0
:100A30000F4800680F4CB0FBF4F000EB8000400062
:100A4000009002E00098401E009000980028F9D124
:100A500004E0906A40F020009062012300BF002073
:100A600082F8240000BF184661E70000002401401E
:100A70002C00002040420F00704770477047000074
:100A80002DE9F0410446002700250026A84614B9A8
:100A90000120BDE8F081A06810B1207D00B100BF49
:100AA000A06A30B90020E06284F82400204600F0FB
:100AB00089F82046FFF76BFD0746A06A00F010009A
:100AC000002873D1002F71D1A06A20F4885040F023
:100AD0000200A062E16960680843217B40EA4100AE
:100AE0000643A068B0F5807F02D0A068012802D13B
:100AF0004FF4807000E000200543207D012811D1D3
:100B0000207B38B9A069401E4FF4006141EA4030B3
:100B1000054307E0A06A40F02000A062E06A40F0D0
:100B20000100E0622068406820F4694028432168A1
:100B30004860206880682149084030432168886007
:100B4000A068B0F5807F02D0A068012802D14FF4E0
:100B5000807000E00020B0F5807F03D1208A401E25
:100B60004FEA00582068C06A20F4700040EA08008C
:100B70002168C8622068806811490840B04208D1E5
:100B80000020E062A06A20F0020040F00100A062B4
:100B900011E0A06A20F0020040F01000A062E06ABC
:100BA00040F00100E062012705E0FFE7A06A40F0A5
:100BB0001000A062012738466BE70000FDF7E1FF57
:100BC000FE0E1FFF10B586B0044600200290039071
:100BD000049005902249206888423ED100BF2148F8
:100BE000806940F400701F4988610846806900F4FC
:100BF0000070019000BF00BF00BF0846806940F050
:100C0000040088610846806900F00400019000BF7C
:100C100000BF022002900320039002A9124800F0B6
:100C20009FFA1248124908600020486000211048CD
:100C300081608021C16049000161890041612021FA
:100C400081610021C16100F0A3F908B1FFF7D5FD72
:100C500000BF07482062446200BF06B010BD00001C
:100C6000002401400010024000080140080002403A
:100C7000600000202DE9F04104460D46164600278D
:100C800057492068884203D056492068884205D1D8
:100C90005348001D006800F4702000E00020002888
:100CA0007ED100BF94F82400012802D10220BDE8C3
:100CB000F081012084F8240000BF2046FFF7D4FC17
:100CC0000746002F6DD1A06A40F60161884340F4C9
:100CD0008070A06243492068884209D14048001DC5
:100CE000006800F4702008B9012002E0002000E054
:100CF000012078B1A06A20F48010A06220684068CA
:100D000000F4806000B3A06A20F4005040F48050EA
:100D1000A06219E0A06A40F48010A0623049206807
:100D2000884203D02F492068884205D12C48001DF5
:100D3000006800F4806000E0002028B1A06A20F480
:100D4000005040F48050A062A06A00F4805020B1AE
:100D5000E06A20F00600E06201E00020E06200BFEF
:100D6000002084F8240000BF1F48216A88621F48C1
:100D7000216AC8621E48216A08636FF00200216878
:100D800008602068806840F480702168886022686C
:100D900002F14C0133462A46206A00F02DF901E0A9
:100DA0001AE014E02068806800F46020B0F5602F3D
:100DB00006D12068806840F4A000216888600CE0BB
:100DC0002068806840F480102168886005E000BFDA
:100DD000002084F8240000E00127384667E700007F
:100DE0000024014000280140EB0500085B060008D4
:100DF0003D06000870B50446E06B0568206806688B
:100E000094F84010042088402840002846D006F07E
:100E10000400002842D02068006800F0200028B9B3
:100E20002068006820F004002168086057492068A5
:100E3000884201D1042027E05449143120688842B7
:100E400001D1402020E0514928312068884201D159
:100E5000001519E04D493C312068884202D14FF419
:100E6000804011E0494950312068884202D14FF456
:100E7000802009E0454964312068884202D14FF45E
:100E8000800001E04FF08060404908394860E06A26
:100E900000287AD02046E16A884776E094F840102E
:100EA000022088402840A0B306F0020088B32068E2
:100EB000006800F0200040B92068006820F00A00B7
:100EC00021680860012084F82100304920688842A8
:100ED00001D1022028E02D4914312068884201D137
:100EE000202021E0294928312068884201D140157D
:100EF0001AE026493C312068884202D14FF4005064
:100F000012E0224950312068884203D14FF400306A
:100F10000AE017E01D4964312068884202D14FF48D
:100F2000001001E04FF0007018490839486000BF18
:100F3000002084F8200000BFA06A30B32046A16AD8
:100F4000884722E094F84010082088402840E0B10B
:100F500006F00800C8B12068006820F00E00216883
:100F6000086094F8401001208840E16B486001203F
:100F7000A06384F8210000BF002084F8200000BF97
:100F8000206B10B12046216B884770BD08000240DD
:100F90000146002209B901207047164B0868C01AA3
:100FA0001423B0FBF3F08000086412480838C863CB
:100FB000022081F821000868026843F6F07082433D
:100FC000D1E901031843CB6818430B6918434B69F7
:100FD00018438B691843CB691843024308680260C1
:100FE00000208863012081F82100002081F8200082
:100FF00000BFD1E7080002402DE9F04104460D464C
:1010000016461F464FF0000800BF94F82000012844
:1010100002D10220BDE8F081012084F8200000BF49
:1010200094F8210001282CD1022084F8210000200E
:10103000A0632068006820F00100216808603B463A
:10104000324629462046FFF7A3FBE06A30B120680C
:10105000006840F00E00216808600BE0206800681E
:1010600020F00400216808602068006840F00A0051
:10107000216808602068006840F00100216808606D
:1010800006E000BF002084F8200000BF4FF00208F7
:101090004046BFE770B5044600F00AFA064625460A
:1010A000681C10B104480078054400BF00F000FA45
:1010B000801BA842FAD370BD2800002070B50446FA
:1010C0001C4802F00FF9012C30D1002509E0642002
:1010D000FFF776FB0121184800F0D2F900B170BD8E
:1010E0006D1C642DF3DB01F0FFFD14490870084608
:1010F00000786F280AD1012202210F4800F0D2F9AE
:101100000122D1030E4800F0CDF910E00B48007821
:1011100085280CD100220221074800F0C3F90022E3
:101120004FF40041064800F0BDF900E000BF00BFE9
:10113000D5E70000002C0140000C01401C000020FD
:101140000008014010B5044604480068204020B162
:10115000024804602046FFF7B1FF10BD14040140AF
:101160002DE9F8470346002294466EE14FF001084E
:1011700008FA02F4D1F8008008EA0400A0427DD108
:10118000DFF8DCA2D1F80480A8EB0A09D0453AD0F8
:1011900014DCB8F1030F50D009DCB8F1000F31D0E6
:1011A000B8F1010F1CD0B8F1020F49D120E0B8F11D
:1011B000110F18D0B8F1120F42D11EE0B9F5881FF7
:1011C00025D006DCB9F5803F20D0B9F5801F37D196
:1011D0001AE0B9F5001F18D0B9F5041F30D117E097
:1011E000D1F80CC02DE0D1F80C8008F1040C28E0F7
:1011F000D1F80C8008F1080C23E0D1F80C8008F13C
:101200000C0C1EE000BF00BF00BF00BF00BF00BF4E
:10121000D1F80880B8F1000F02D14FF0040C0BE0B8
:10122000D1F80880B8F1010F03D14FF0080C1C6110
:1012300002E04FF0080C5C6103E04FF0000C00E0AE
:1012400000BF00BFFF2801D8984601E003F1040861
:101250004646FF2802D84FEA820803E0A2F10808B8
:101260004FEA88084746D6F800804FF00F0909FA80
:1012700007F928EA09080CFA07F900E088E048EACB
:101280000908C6F80080D1F8048008F08058B8F149
:10129000805F7DD100BFDFF8CC81D8F8188048F09E
:1012A0000108DFF8C091C9F81880C846D8F818803E
:1012B00008F00108CDF8008000BF00BF4FEAB93840
:1012C0004FEA920958F829504FEA82784FEA187984
:1012D0004FF00F0808FA09F825EA0805DFF88881B9
:1012E000434502D14FF0000816E0DFF88081434506
:1012F00002D14FF001080FE0DFF87481434502D1BD
:101300004FF0020808E0DFF86C81434502D14FF04E
:10131000030801E04FF004084FEA82794FEA197997
:1013200008FA09F848EA0505DFF84C814FEA920906
:1013300048F82950D1F8048008F48038B8F5803F87
:101340000AD1DFF83881D8F8008048EA0008DFF8D1
:101350002C91C9F8008009E0DFF82081D8F80080DE
:1013600028EA0008DFF81491C9F80080D1F8048059
:1013700008F40038B8F5003F10D1DFF8008108F11B
:101380000408D8F8008048EA0008DFF8F09000E090
:101390005AE009F10409C9F800800DE0DFF8DC80AB
:1013A00008F10408D8F8008028EA0008DFF8CC909B
:1013B00009F10409C9F80080D1F8048008F4801804
:1013C000B8F5801F0ED1DFF8B48008F10808D8F80E
:1013D000008048EA0008DFF8A49009F10809C9F87C
:1013E00000800DE0DFF8948008F10808D8F800804C
:1013F00028EA0008DFF8849009F10809C9F800809C
:10140000D1F8048008F40018B8F5001F0ED1DFF8F9
:101410006C8008F10C08D8F8008048EA0008DFF872
:101420005C9009F10C09C9F800800DE0DFF84C80F0
:1014300008F10C08D8F8008028EA0008DFF83C9092
:1014400009F10C09C9F80080521CD1F8008028FA73
:1014500002F8B8F1000F7FF489AEBDE8F88700000C
:10146000000011100010024000080140000C014073
:101470000010014000140140080001400004014038
:10148000024693680B400BB1012000E0002070473A
:1014900010B5C26821EA020302EA010443EA0443E8
:1014A000036110BD0AB1016101E00B0403617047E3
:1014B00001480068704700002000002003480068D1
:1014C000034909780844014908607047200000205A
:1014D0002800002010B50848006840F010000649B8
:1014E0000860032000F0A8F80F2000F007F800F0D3
:1014F0002BF8002010BD00000020024070B504460B
:101500000E4800784FF47A71B1FBF0F00C4909688D
:10151000B1FBF0F5284601F065F808B1012070BD77
:10152000102C07D200222146501E00F047F8054833
:10153000046001E00120F2E70020F0E7280000202D
:101540002C0000202400002008B500BF114880694D
:1015500040F001000F4988610846806900F00100F1
:10156000009000BF00BF00BF0846C06940F0805037
:10157000C8610846C06900F08050009000BF00BFFD
:1015800000BF0549486820F0E06040F00070486006
:1015900000BF08BD0010024000000140014608469F
:1015A000002809DB00F01F0301229A4043099B0039
:1015B00003F1E023C3F8002100BF70472DE9F05F7D
:1015C00080460D461646002701F0B8FE074639460C
:1015D0002A46334601F00700C0F1070ABAF1040FAA
:1015E00002D94FF0040A01E0C0F1070AD14600F128
:1015F000040ABAF1070F02D24FF0000A01E0A0F18D
:10160000030AD4464FF0010A0AFA09FAAAF1010ABC
:101610000AEA020A0AFA0CFA4FF0010B0BFA0CFB69
:10162000ABF1010B0BEA030B4AEA0B0421464046DF
:1016300001F08CFEBDE8F09F00BF00F00702064BF2
:1016400019684FF6FF031940044B0B4343EA02218C
:10165000014B196000BF70470CED00E00000FA0577
:101660002DE9F04385B006463BA30FCB01AC0FC478
:101670003DA0006800904FF00008002500270024DE
:10168000A146012E30D0022E55D0102E5ED1374803
:101690004468006800F0807000B301A8C4F383417F
:1016A000475C04F4803070B130484068C0F340407B
:1016B0001DF8008004F4803040B12D48B0FBF8F0F4
:1016C00000FB07F502E02B4807FB00F527484068C0
:1016D00000F48000B0F5800F01D1A94603E0680056
:1016E0000321B0FBF1F932E02048046A04F44070B1
:1016F000B0F5807F05D104F0020010B14FF400492D
:1017000018E004F44070B0F5007F07D11748406A34
:1017100000F0020010B149F640490BE004F44070BB
:10172000B0F5407F06D11148006800F4003008B1E0
:101730004FF224490BE000F083F90C494968C1F3EA
:101740008131491C4900B0FBF1F900E000BF00BF46
:10175000484605B0BDE8F083020304050607080902
:101760000A0B0C0D0E0F10100102000000100240B9
:1017700000127A0000093D00F8B504460026002555
:10178000207800F0010000286BD000274348C06992
:1017900000F0805070B900BF4048C06940F08050F0
:1017A0003E49C8610846C06900F08050009000BF03
:1017B00000BF01273A48006800F48070B0B938488B
:1017C000006840F4807036490860FFF771FE0646F5
:1017D00006E0FFF76DFE801B642801D90320F8BDE9
:1017E0002F48006800F480700028F2D02B48006A6F
:1017F00000F440752DB3A08800F44070A84220D0BA
:101800002648006A20F4407501202649086000201F
:1018100008602248056205F0010090B1FFF748FE1C
:10182000064608E0FFF744FE801B41F288318842FB
:1018300001D90320D3E71948006A00F0020000280C
:10184000F0D01648006A20F44070616808431349DC
:101850000862012F04D10846C06920F08050C86199
:1018600000BF207800F00200022807D10B48406832
:1018700020F44040A168084308494860207800F0FF
:101880001000102807D10548406820F48000E16866
:101890000843024948600020A1E700000010024010
:1018A000007000404004424270B504460D460CB939
:1018B000012070BD5A48006800F00700A8420ED20F
:1018C0005748006820F0070028435549086008463B
:1018D000006800F00700A84201D00120E9E7207865
:1018E00000F0020002281DD1207800F00400042836
:1018F00005D14C48406840F4E0604A49486020788F
:1019000000F00800082805D14648406840F46050BF
:10191000444948604348406820F0F000A16808430B
:1019200040494860207800F0010078B360680128E1
:1019300006D13C48006800F4003090B90120B8E7B7
:101940006068022806D13748006800F0007040B98E
:101950000120AEE73348006800F0020008B901201A
:10196000A7E73048406820F00300616808432D492C
:101970004860FFF79DFD064609E0FFF799FD801BD3
:1019800041F28831884202D9032092E707E02548D6
:10199000406800F00C006168B0EB810FEDD1204889
:1019A000006800F00700A8420ED91D48006820F02A
:1019B000070028431A4908600846006800F007003D
:1019C000A84201D0012074E7207800F00400042828
:1019D00007D11448406820F4E060E16808431149E9
:1019E0004860207800F00800082808D10D484068B9
:1019F00020F46050216940EAC1000A49486000F0C3
:101A00002FF808494968C1F30311074A515CC840DF
:101A10000649086006480068FFF770FD002048E7A7
:101A20000020024000100240DC3C00082C00002096
:101A30002400002001480068704700002C000020AE
:101A400000B5FFF7F7FF04494968C1F3C221034A13
:101A5000515CC84000BD000000100240EC3C000892
:101A6000F0B585B00FF26C0C9CE8E01001A8A0E87E
:101A7000E0101CA52D680095002100220023002401
:101A80000020194D696801F00C05F5B1042D02D054
:101A9000082D19D101E0154819E001ADC1F38346C5
:101AA000AC5D01F4803555B10F4D6D68C5F340450F
:101AB0001DF805200D4D6543B5FBF2F302E00C4D1A
:101AC00004FB05F3184602E000BF084800BF00BF52
:101AD00005B0F0BD02030405060708090A0B0C0D4A
:101AE0000E0F1010010200000010024000127A00D8
:101AF00000093D00F8B504460CB90120F8BD207876
:101B000000F00100002878D0F848406800F00C0090
:101B100004280CD0F548406800F00C00082811D1CA
:101B2000F248406800F48030B0F5803F0AD1EF48B9
:101B3000006800F4003000285FD0606800285CD1A5
:101B40000120DBE700BF6068B0F5803F06D1E748C1
:101B5000006840F48030E549086028E0606858B9C2
:101B6000E248006820F48030E049086008460068D8
:101B700020F4802008601AE06068B0F5A02F0BD137
:101B8000DA48006840F48020D849086008460068B8
:101B900040F4803008600AE0D448006820F48030C7
:101BA000D24908600846006820F48020086000BF21
:101BB000606888B1FFF77CFC054606E0FFF778FC1B
:101BC000401B642801D9032098E7C848006800F446
:101BD00000300028F2D010E0FFF76AFC054606E06E
:101BE000FFF766FC401B642801D9032086E7BF4845
:101BF000006800F400300028F2D1207800F00200E4
:101C0000022857D1B948406800F00C0050B1B748DD
:101C1000406800F00C00082818D1B448406800F46F
:101C2000803098B9B148006800F0020020B1206906
:101C3000012801D0012061E7AC48006820F0F800DD
:101C4000616940EAC100A949086033E02069E8B150
:101C50000120A7490860FFF72BFC054606E0FFF7C7
:101C600027FC401B022801D9032047E79F48006852
:101C700000F002000028F2D09C48006820F0F80034
:101C8000616940EAC1009949086013E00020984961
:101C90000860FFF70DFC054606E0FFF709FC401B56
:101CA000022801D9032029E79048006800F00200CB
:101CB0000028F2D1207800F0080008282DD1A06972
:101CC000B8B101208B490860FFF7F2FB054606E03A
:101CD000FFF7EEFB401B022801D903200EE78348E3
:101CE000406A00F002000028F2D0012001F084F9DF
:101CF00013E000207F490860FFF7DAFB054606E0A5
:101D0000FFF7D6FB401B022801D90320F6E67748EF
:101D1000406A00F002000028F2D1207800F00400B0
:101D2000042873D100277148C06900F0805070B951
:101D300000BF6E48C06940F080506C49C8610846D9
:101D4000C06900F08050009000BF00BF01276A48C2
:101D5000006800F48070B0B96748006840F4807093
:101D600065490860FFF7A4FB054606E0FFF7A0FB06
:101D7000401B642801D90320C0E65F48006800F4D6
:101D800080700028F2D000BFE068012806D15748D3
:101D9000006A40F001005549086227E0E06858B940
:101DA0005248006A20F00100504908620846006A63
:101DB00020F00400086219E0E06805280BD14B48C8
:101DC000006A40F00400494908620846006A40F091
:101DD000010008620AE04548006A20F0010043491A
:101DE00008620846006A20F00400086200BFE0684C
:101DF000A0B1FFF75DFB054609E0FFF759FB401B6B
:101E000041F28831884202D9032077E622E0374840
:101E1000006A00F002000028EFD012E0FFF748FB54
:101E2000054608E0FFF744FB401B41F28831884239
:101E300001D9032062E62D48006A00F00200002864
:101E4000F0D1012F05D12948C06920F080502749E1
:101E5000C86100BFE069C8B32448406800F00C00C6
:101E6000082860D0E069022848D10020204908668F
:101E7000FFF71EFB054606E0FFF71AFB401B022892
:101E800001D903203AE61948006800F000700028E4
:101E9000F2D1206AB0F5803F07D11448406820F4A1
:101EA0000030A168084311494860D4E9080108439B
:101EB0000E49496821F4741108430C494860012017
:101EC0000B490866FFF7F4FA054607E03DE0FFF727
:101ED000EFFA401B022801D903200FE603480068EF
:101EE00000F000700028F2D02FE000000010024047
:101EF0000000424280044242007000400020144929
:101F00000866FFF7D5FA054606E0FFF7D1FA401B51
:101F1000022801D90320F1E50E48006800F00070A6
:101F20000028F2D111E0E069012800D1E6E5094876
:101F3000466806F48031206A814204D106F47011AB
:101F4000606A814201D00120D8E50020D6E500007A
:101F5000000042420010024010B504460CB90120B6
:101F600010BD606A38B96068B0F5827F00D105E0C5
:101F70000021E16102E00021216161610021A16293
:101F800094F8510028B9002084F85000204600F051
:101F900043F8022084F851002068006820F04000D7
:101FA00021680860A08800F48270218901F404414E
:101FB0000843A18901F400610843217C01F002017A
:101FC0000843217D01F001010843218B01F40071D8
:101FD0000843217F01F0380108432021095D01F009
:101FE00080010843218D01F40051084321680860F5
:101FF0000421A06901EA1040216848602068C06996
:1020000020F400602168C86100206065012084F828
:1020100051000020A4E7000010B586B0044600205F
:1020200002900390049005901949206888422DD1B0
:1020300000BF1848806940F48050164988610846FE
:10204000806900F48050019000BF00BF00BF0846C7
:10205000806940F0040088610846806900F004004F
:10206000019000BF00BFA020029002200390032037
:10207000059002A90848FFF773F84020029000205D
:102080000390049002A90448FFF76AF806B010BD57
:102090000030014000100240000801402DE9F843E3
:1020A0000446884616461D464FF000096068B0F5A4
:1020B000827F0DD1A06858B9042084F851003346BE
:1020C000424641462046009500F077F9BDE8F88386
:1020D00000BF94F85000012801D10220F6E701204A
:1020E00084F8500000BFFFF7E3F9074694F8510069
:1020F000012802D04FF002097EE0B8F1000F00D0B5
:1021000016B94FF0010977E0042084F8510000204F
:102110006065C4F83880A687E6872063A086E086DD
:1021200020646064A068B0F5004F0BD1206800689F
:1021300020F04000216808602068006820F480409A
:10214000216808602068006800F04000402805D041
:102150002068006840F0400021680860E068F8B935
:102160001AE02068806800F0010050B12068007B10
:10217000A16B0870A06B401CA063E08F401EE0873D
:102180000AE0FFF795F9C01BA84201D3681C00B90B
:1021900015B94FF003092FE0E08F0028E1D11EE0D0
:1021A0001AE02068806800F0010050B12068C06823
:1021B000A16B0880A06B801CA063E08F401EE087AD
:1021C0000AE0FFF775F9C01BA84201D3681C00B9EB
:1021D00015B94FF003090FE0E08F0028E1D13A462E
:1021E0002946204600F01CFF08B120206065606D84
:1021F00008B14FF0010900BF012084F8510000BF71
:10220000002084F8500000BF48465FE72DE9F84FF2
:102210000446884616461D464FF0000A00BF94F853
:102220005000012802D10220BDE8F88F012084F877
:10223000500000BFFFF73CF90746B14694F8510043
:10224000012802D04FF0020AADE0B8F1000F00D033
:1022500016B94FF0010AA6E0032084F851000020CF
:102260006065C4F83080A686E686A063A087E08714
:1022700060642064A068B0F5004F0BD1206800684E
:1022800020F04000216808602068006840F4804029
:10229000216808602068006800F04000402805D0F0
:1022A0002068006840F0400021680860E068B0F5F0
:1022B000006F2FD1606810B1B9F1010F09D1206B07
:1022C00000882168C860206B801C2063E08E401E5F
:1022D000E0861BE02068806800F0020002280AD136
:1022E000206B00882168C860206B801C2063E08E12
:1022F000401EE0860AE0FFF7DBF8C01BA84201D3CE
:10230000681C00B915B94FF0030A4CE0E08E0028B4
:10231000E0D12EE0606810B1B9F1010F09D1206B56
:10232000007821680873206B401C2063E08E401EFB
:10233000E0861BE02068806800F0020002280AD1D5
:10234000206B007821680873206B401C2063E08EAE
:10235000401EE0860AE0FFF7ABF8C01BA84201D39D
:10236000681C00B915B94FF0030A1CE0E08E002884
:10237000E0D13A462946204600F08EFE08B12020E2
:102380006065A06850B900BF002000902068C06858
:10239000009020688068009000BF00BF606D08B1A9
:1023A0004FF0010A00BF012084F8510000BF002057
:1023B00084F8500000BF504636E72DE9FF5F044621
:1023C000884691461D460E9E0120029000200190F5
:1023D00000BF94F85000012803D1022004B0BDE8EA
:1023E000F09F012084F8500000BFFFF761F8074616
:1023F00094F851B060680390AA46BBF1010F0BD06E
:102400000398B0F5827F04D1A06810B9BBF1040F26
:1024100002D002200190DBE0B8F1000F03D0B9F147
:10242000000F00D015B901200190D1E094F85100BF
:10243000042802D0052084F8510000206065C4F80B
:102440003890E587A587C4F83080E586A5862064A6
:1024500060642068006800F04000402805D02068D3
:10246000006840F0400021680860E068B0F5006F47
:102470004AD1606810B1BAF1010F09D1206B008810
:102480002168C860206B801C2063E08E401EE086BF
:1024900033E02068806800F00200022810D1E08E4E
:1024A00070B1029801280BD1206B00882168C860A8
:1024B000206B801C2063E08E401EE086002002908E
:1024C0002068806800F0010068B1E08F58B1206892
:1024D000C068A16B0880A06B801CA063E08F401EC9
:1024E000E08701200290FEF7E3FFC01BB04204D357
:1024F000701C10B1032001906AE0E08E0028C8D162
:10250000E08F0028C5D14AE0606810B1BAF1010F30
:1025100009D1206B007821680873206B401C206370
:10252000E08E401EE08634E02068806800F0020003
:10253000022810D1E08E70B1029801280BD1206BD7
:10254000007821680873206B401C2063E08E401ED9
:10255000E086002002902068806800F0010068B1E9
:10256000E08F58B12068C068A16B0870A06B401C58
:10257000A063E08F401EE08701200290FEF798FFE5
:10258000C01BB04201D3701C00B916B903200190E2
:102590001EE0E08E0028C7D1E08F0028C4D13A4663
:1025A0003146204600F078FD20B101200190202026
:1025B00060650DE0A06850B900BF00200090206861
:1025C000C068009020688068009000BF00BF00BF16
:1025D000012084F8510000BF002084F8500000BFA3
:1025E0000198FBE670B504462546681EB0F1807F71
:1025F00001D301200FE0681E4FF0E02148610F2158
:102600004FF0FF3000F0A2FE00204FF0E021886183
:1026100007200861002070BD7047704730B5024642
:102620000B4600BF92F83C00012801D1022030BDCA
:10263000012082F83C0000BF022082F83D001068B3
:1026400044681068816824F07004186804431068B6
:102650004460104D1068A8420BD01068B0F1804F54
:1026600007D00D4D1068A84203D00C4D1068A84249
:1026700005D121F080015868014310688160012074
:1026800082F83D0000BF002082F83C0000BF00BF80
:10269000CDE70000002C014000040040000800408D
:1026A00010B504460CB9012010BD94F83D0028B9BE
:1026B000002084F83C00204600F026F8022084F830
:1026C0003D00211D206800F0BFFD012084F8460078
:1026D00000BF84F83E0001213F20015540200155F4
:1026E0004120015500BF00BF012084F84200432073
:1026F0000155442001554520015500BF012084F8B3
:102700003D000020D0E7000038B504460D492068A0
:10271000884215D100BF0C48806940F400600A4926
:1027200088610846806900F40060009000BF00BF27
:10273000002211461920FEF741FF1920FEF72EFF57
:1027400038BD0000002C014000100240014691F805
:102750003D00012801D001207047022081F83D0092
:102760000868C06840F001000B68D860124B086828
:1027700098420BD00868B0F1804F07D00F4B086823
:10278000984203D00E4B086898420CD108688068C4
:1027900000F00702062A0CD00868006840F001002B
:1027A0000B68186005E00868006840F001000B68DD
:1027B00018600020D0E70000002C01400004004019
:1027C000000800402DE9F04104460D4600BF94F892
:1027D0003C00012802D10220BDE8F081012084F8EC
:1027E0003C0000BF022084F83D002068866826F087
:1027F000770626F47F46206886602868502833D004
:102800000CDC202850D004DC00284BD0102851D1FB
:1028100049E0302849D040284CD139E060282DD0FB
:10282000702807D0B0F5805F03D0B0F5005F41D1CC
:102830000DE040E0D5E902136A68206800F03EFD33
:102840002068866846F077062068866033E0D5E920
:1028500002136A68206800F031FD2068806840F447
:1028600080402168886026E0EA686968206800F096
:102870003CFD5021206800F02CFD1CE0EA686968EE
:10288000206800F045FD6021206800F022FD12E084
:10289000EA686968206800F028FD4021206800F09F
:1028A00018FD08E000BF00BF00BF2968206800F0E5
:1028B00010FD00E000BF00BF012084F83D0000BF14
:1028C000002084F83C0000BF00BF85E7704710B5CA
:1028D000044620680069C0F34000D8B12068C06891
:1028E000C0F34000B0B16FF0020021680861012020
:1028F00020772068806900F0030018B12046FFF7B8
:10290000E5FF05E0204600F0ADF8204600F0ABF80A
:102910000020207720680069C0F38000D8B12068CB
:10292000C068C0F38000B0B16FF004002168086196
:10293000022020772068806900F4407018B120469A
:10294000FFF7C4FF05E0204600F08CF8204600F0B9
:102950008AF80020207720680069C0F3C000D8B151
:102960002068C068C0F3C000B0B16FF008002168F3
:102970000861042020772068C06900F0030018B1C6
:102980002046FFF7A3FF05E0204600F06BF8204645
:1029900000F069F80020207720680069C0F300107B
:1029A000D8B12068C068C0F30010B0B16FF010005B
:1029B00021680861082020772068C06900F4407011
:1029C00018B12046FFF782FF05E0204600F04AF8E4
:1029D000204600F048F8002020772068006900F0C9
:1029E000010058B12068C06800F0010030B16FF0FC
:1029F000010021680861204600F036F8206800696F
:102A0000C0F3C01058B12068C068C0F3C01030B126
:102A10006FF08000216808612046FFF7FDFD206807
:102A20000069C0F3801058B12068C068C0F38010FE
:102A300030B16FF0400021680861204600F015F8C1
:102A400020680069C0F3401058B12068C068C0F326
:102A5000401030B16FF02000216808612046FFF778
:102A6000DCFD10BD704770477047704700BFFEE740
:102A70000EB5002000900190029018481849086097
:102A800081151748816001210173002101754FF400
:102A90006021C16100201249486002211048016193
:102AA000FDF7EEFF08B1FDF7A8FE11200090012010
:102AB00001900220029069460948FDF72DFF08B1F8
:102AC000FDF79BFE0120009002200190694604481A
:102AD000FDF722FF08B1FDF790FE0EBD0024014076
:102AE0003000002008B500BF0A48406940F00100EE
:102AF000084948610846406900F00100009000BFA5
:102B000000BF002211460B20FEF758FD0B20FEF7F8
:102B100045FD08BD0010024000B585B000200190C1
:102B200002900390049000BF2E48806940F004009A
:102B30002C4988610846806900F00400009000BFBD
:102B400000BF00BF0846806940F008008861084661
:102B5000806900F00800009000BF00BF002248F22A
:102B600018012148FEF79EFC002232211F48FEF783
:102B700099FC48F218000190012002900020039077
:102B80000220049001A91848FEF7EAFA01200190FA
:102B9000174802900020039001A91448FEF7E0FABC
:102BA0002220019001200290002003900220049036
:102BB00001A90E48FEF7D4FA1020019001200290DE
:102BC00003900220049001A90848FEF7C9FA0022E8
:102BD00011460620FEF7F2FC0620FEF7DFFC05B0EA
:102BE00000BD00000010024000080140000C014040
:102BF0000000211010B50E480E4908604FF4827095
:102C0000486000210B488160C160016141614FF45F
:102C1000007181612021C1610021016241628162F4
:102C20000A21C162FFF798F908B1FDF7E6FD10BD72
:102C300000300140A400002000B587B000200390C0
:102C4000049005900690019002901548154908607F
:102C500041F6FF00486000211248816040F6B8311B
:102C6000C1600021016141618161FFF719FD08B177
:102C7000FDF7C3FD4FF48050039003A90948FFF707
:102C8000A1FD08B1FDF7B9FD00200190029001A956
:102C90000448FFF7C3FC08B1FDF7AFFD07B000BD66
:102CA000002C0140FC00002000BFFEE700BFFEE753
:102CB00010B50024002000F08DF8044644F0030411
:102CC0002146002000F0FCF8012208210548FEF70B
:102CD000E9FB9620FDF774FD00F03CF800F05AF88F
:102CE00010BD00000008014070B501260124002538
:102CF000072000F06FF8064600BF0F20FDF760FDCB
:102D000040F2DC50FDF75CFD072000F063F806465A
:102D1000681CC5B206F0400008B90A2DEDDD0F2091
:102D2000FDF74EFD05220949612000F081F80F20D2
:102D3000FDF746FD054804784021072000F0C0F863
:102D40000348047000F006F8204670BD0300002020
:102D50000900002008B50CA0006800900022102196
:102D60000A48FEF79FFB4FF47A7301226946084830
:102D7000FFF74CFA0120FDF723FD01221021034843
:102D8000FEF790FB08BD0000E200000000080140D3
:102D9000A400002008B50CA00068009000221021BB
:102DA0000A48FEF77FFB4FF47A7301226946084810
:102DB000FFF72CFA0120FDF703FD01221021034843
:102DC000FEF770FB08BD0000E100000000080140B4
:102DD000A400002001B584B000200390002210213F
:102DE0001148FEF75FFB4FF47A70012303AA04A990
:102DF00000900E48FFF7E1FA9DF8100007280AD06E
:102E0000FF2002904FF47A70012303AA02A90090D8
:102E10000648FFF7D2FA012210210348FEF742FBD1
:102E20009DF80C0005B000BD00080140A400002082
:102E300037B50C461546002210210B48FEF732FB31
:102E40004FF47A73012269460848FFF7DFF94FF41F
:102E50007A732A4621460548FFF720F901221021FE
:102E60000148FEF71FFB3EBD00080140A400002002
:102E700008B510A000680090002210210E48FEF74F
:102E800011FB4FF47A73012269460C48FFF7BEF933
:102E90000120FDF795FC732000904FF47A73012216
:102EA00069460648FFF7B2F9012210210248FEF7F1
:102EB000F9FA08BD5000000000080140A4000020FD
:102EC00013B59DF8000040F0200000900022102172
:102ED0000B48FEF7E7FA4FF47A7301226946094876
:102EE000FFF794F94FF47A73012201A90548FFF71F
:102EF0008DF9012210210248FEF7D4FA1CBD000012
:102F000000080140A400002037B50C4615469DF886
:102F1000000040F020000090002210210C48FEF735
:102F2000C1FA4FF47A73012269460A48FFF76EF935
:102F30000120FDF745FC4FF47A732A4621460548E7
:102F4000FFF764F9012210210148FEF7ABFA3EBDFC
:102F500000080140A400002010B5002208212348E9
:102F6000FEF7A0FA41F28830FDF72AFC3A21002052
:102F7000FFF7A6FF41F28830FDF722FC0221012075
:102F8000FFF79EFF02210846FFF79AFF0121032069
:102F9000FFF796FF5F210420FFF792FFFFF768FF1E
:102FA00000211D20FFF78CFF00211C20FFF788FF68
:102FB00070210720FFF784FF4C210520FFF780FFD9
:102FC0002E210620FFF77CFF032209491020FFF77E
:102FD0009BFF032206490B20FFF796FF05211220D5
:102FE000FFF76EFFFFF764FE10BD00000008014010
:102FF000000000207047000008B508490968C908AA
:103000004FF47A72B1FBF2F14143009100BF00BF6F
:1030100000994A1E00920029F9D108BD2C00002019
:10302000F8B504460E4615466068B0F5827F0DD1AE
:10303000A068B0F5004F03D0A068B0F5806F05D14F
:103040002068006820F04000216808606068B0F5E2
:10305000827F11D1A068B0F5806F0DD13346002278
:1030600001212046009500F02BF898B1606D40F0EA
:10307000200060650320F8BD3346002280212046F1
:10308000009500F01DF828B1606D40F020006065EB
:103090000320F0E70020EEE7F8B504460D4616469B
:1030A0002B46002280212046009600F009F828B126
:1030B000606D40F0200060650320F8BD0020FCE753
:1030C0002DE9F84F04460D4690461E46DDF828903F
:1030D000FEF7EEF9A0EB0900371AFEF7E9F9824690
:1030E0002C480068C0F3CB307843009045E0701C5A
:1030F000002842D0FEF7DCF9A0EB0A00B84200D26B
:10310000A7BB2068406820F0E00021684860606844
:10311000B0F5827F0DD1A068B0F5004F03D0A06854
:10312000B0F5806F05D12068006820F0400021686C
:103130000860A06AB0F5005F0DD100BF206800688C
:1031400020F40050216808602068006840F40050B6
:103150002168086000BF012084F8510000BF0020F2
:1031600084F8500000BF0320BDE8F88FFFE7009807
:1031700000B900270098401E009020688068284011
:10318000A84201D1012000E000204045AFD100203D
:10319000EAE700002C000020704710B5FEF78EF91A
:1031A00010BD00B593B0282109A8FDF715F9142129
:1031B00004A8FDF711F900200090019002900390FF
:1031C0000220099001200D9010200E9002201090F6
:1031D000002111914FF46011129109A8FEF78AFCA9
:1031E00008B1FDF70AFB0F20049002200590002093
:1031F00006904FF48060079000200890022104A8F8
:10320000FEF752FB08B1FDF7F8FA022000904FF4E8
:10321000404002906846FEF7AFFA08B1FDF7EDFABC
:1032200013B000BD7047000010B520210448FEF720
:103230002FF9FFF791FE0348FFF749FB10BD00008F
:10324000000C0140FC00002010B50268184B9842A9
:1032500008D0B0F1804F05D0164B984202D0164BE3
:10326000984203D122F070024B681A43104B9842E7
:1032700008D0B0F1804F05D00E4B984202D00E4BD3
:10328000984203D122F44072CB681A4322F08003A3
:103290004C6943EA040202608B68C3620B68836274
:1032A000034B984201D10B6903630123436110BDB5
:1032B000002C0140000400400008004030B50C46DE
:1032C000816821F47F4142EA032525432943816037
:1032D00030BD0A46816821F0700142F007031943AE
:1032E0008160704700214162704730B50B4614463B
:1032F000026A056A25F001050562816921F0F00185
:1033000041EA041122F00A021A438161026230BDCF
:1033100030B50B461446056A25F010050562816933
:10332000026A21F4704141EA043122F0A00242EA2B
:1033300003128161026230BD00BFFEE702480068EF
:10334000C0F30220704700000CED00E010B500282B
:1033500004DB0A07130E054A135406E00A07140E8D
:10336000034A00F00F031B1FD45410BD00E400E01B
:1033700018ED00E030380A2801D201207047002003
:103380007047000000BFFEF7A5F8FFF70AFFFFF740
:10339000C3FBFFF72FFCFFF74FFCFFF7A3FBFFF783
:1033A00067FB2A48FFF7D2F9FFF7D6FD012210216B
:1033B0002748FEF777F82748FDF722FA0222264928
:1033C0002448FDF757FCC820FDF764FE3CE00020D0
:1033D000FFF700FD214908700846027820A1254822
:1033E000FCF7F6FE1D4802781DA12248FCF7F0FE0E
:1033F0000120FFF7EFFC19490870084602781EA16A
:103400001C48FCF7E5FE0220FFF7E4FC13490870B6
:10341000084602781CA11748FCF7DAFE0720FFF7E0
:10342000D9FC0E490870084602781CA11148FCF727
:10343000CFFE0620FFF7CEFC084908700846027848
:103440001BA10C48FCF7C4FEC1E70000FC000020F3
:10345000000C014030000020100000200E00002071
:10346000434F4E4649473A203078253032580D0AAE
:103470000000000044010020454E5F41413A2030E9
:1034800078253032580D0A00454E5F525841444469
:10349000523A203078253032580D0A0053544154A6
:1034A00055533A203078253032580D0A000000007C
:1034B00052465F53455455503A20307825303258A3
:1034C0000D0A000021F00042A2F16052B2F5801F07
:1034D00001F0004328BFD2F17F6C0BD95FEA001CDA
:1034E00043EAC20242EB507018BF704728BF20F079
:1034F00001007047B2F5801FBCBF184670474FEA05
:10350000410C1CF5001F02D2084600F0E2BB70B56A
:1035100000F0BEF900000089FFF7F6BF4FF0004051
:10352000A0F580007047491058BFC1F140415B10C1
:1035300058BFC3F140438B42EFF300807047000057
:103540002DE9C04130B4DFF8A0C23CEA111418BF25
:103550003CEA131400F0EC8081EA03051CEA111424
:1035600044EAD57418BF1CEA131500F0C780A4EB19
:1035700005044FF0004545EAC12145EAC32341EA6D
:10358000505143EA525304F17F74994204F50034D8
:103590004FEAC0204FEAC22208BF904200F09C8050
:1035A0004FEA13650FF24016765D4FEA134506FBAE
:1035B00005F7C7F1807706FB07F74FEAD737A7FB78
:1035C00003687642C8F58038A7FB06CE38BFA8F15D
:1035D000010807FB08E64FF0000EA6FB028CE6FB95
:1035E00003CEDCF1000CCEF1004E38BFAEF1010E7F
:1035F000A6FB0C584FF000074FF00005E6FB0E87C6
:10360000A1FB08C6A0FB07CE16EB0E0645F1000590
:10361000E1FB076515F1E04E7EBFA4F580345FEA5B
:1036200046066D4116F1800745F100054FEA172760
:103630004FEA066647EA0567A6F1DE46B6F1805F07
:103640004FEA15251FD9384624F0010C05EBC4714B
:10365000BCF1FE6F01EB0C1102D8F0BCBDE800819B
:1036600024425CBF01F5801E9EEAC47F02D4F0BCF8
:10367000BDE80081244238D4F0BCA1F1C041BDE8CE
:10368000004100F053B94FEAD22242EA43524FEAD6
:10369000D323A7FB02864FEAD02040EA415007FB24
:1036A00003661EEA0E0F4FEAD12105FB026658BFE2
:1036B000A6EB0056B6EB00564FEA520E4EEAC37E1A
:1036C00018EB0E0E56EB530EBDD518EB02085E41FB
:1036D0007F1C55F10005B6E74FF480154FF0000749
:1036E0004FF000064FF00008ADE7F0BC4FF00000CF
:1036F00001F1C04101F00041BDE8008111EA0C1F59
:103700000CEA131500D00CE013EA0C1F00F0258022
:103710004FF00000F0BC81EA030101F00041BDE878
:103720000081F0BCBDE8004181EA030100F0FEB871
:10373000F0BCBDE8004170B500F0AAF8097EFC3E7F
:1037400000F007B881EA03014FF0000001F00041EA
:10375000704781EA030100F0E9B8F0BCBDE8004120
:103760004FF0000021497047FFFDFBF9F7F5F4F237
:10377000F0EEEDEBE9E8E6E4E3E1E0DEDDDBDAD80C
:10378000D7D5D4D3D1D0CFCDCCCBCAC8C7C6C5C46A
:10379000C2C1C0BFBEBDBCBBBAB9B8B7B6B5B4B381
:1037A000B2B1B0AFAEADACABAAA9A8A8A7A6A5A46C
:1037B000A3A3A2A1A09F9F9E9D9C9C9B9A99999830
:1037C0009797969595949393929191908F8F8E8ED3
:1037D0008D8C8C8B8B8A8989888887878685858460
:1037E00084838382828181800000FF070000F87F4C
:1037F000B0FA80F310FA03F10AD0C3F11D0303F508
:1038000080634FEA41504FEA035202EBD1217047E7
:103810004FF000007047000051EA030C17D41CF56C
:10382000801F58BFBCF5801F00F10680994218BF69
:10383000704708BF9042704707D711F5801F58BFE7
:1038400013F5801F19D499427047894270471CF5BF
:10385000801F08D5BCF5801FF7D58B4218BF704775
:1038600008BF824270474FF4001C1CEB410F38BF69
:103870001CEB430F01D28B42704770B500F008F883
:10388000922449004FF000514FF08053FFF74BBE98
:103890000EF1020E2EF0030E5EF8046B364205D4D4
:1038A000012A43EB030515F5001F12D8012841EB4F
:1038B000010C1CF5001F0CD80ED14FEAD17C15F578
:1038C000001F0CEB4C0C0CF1020C08BF4CEBD37C32
:1038D00004E04FF0080C01E04FEAD37C0CEB4C0500
:1038E00026FA05F606F00706B6F1040C06D20EEB32
:1038F000860CBDE870404CF0010C6047DFE80CF02E
:10390000090B02024FF000414FF00000A1F5002129
:1039100070BD19461046012851EB010418BFD4F5BB
:10392000001484BF002001F0004170BD0808A0F51C
:1039300000114FEA3101704743004FEAD30C4FEAC0
:103940003C0C43401FBF40070CF1605113F0FE4F89
:1039500070471CF0006F03D100200CF0004170474D
:103960000CF0004343EA507010B540EACC0000F080
:103970006AF900BF000000924FEA0001FFF7D6BFCE
:103980004FF000414FF00000A1F50021704700000A
:103990004FF47F0C1CEAD0121EBF1CEAD11392EA2E
:1039A0000C0F93EA0C0F00F0858090EA010F48BFDE
:1039B00042F4807240F4000C41F400002CF07F418E
:1039C00020F07F4000B58142A2EB03020FF2081CF9
:1039D000ACEB504EC0F100009EF800E04FEA4E0EF6
:1039E00000FB0EFC38BF49004FEA2C1C02F5FA021E
:1039F0000CFB0EF34FEACE1E4FEA112C4FEAC12109
:103A00000EEB635E42EB22420EFB0CFC4FEA1C53B2
:103A100000FB03114FEA112C4FEA01310EFB0CFCA5
:103A20004FEADC4C00FB0C11C14228BF09184CEBDB
:103A300003335DF804EB10EB410143EBC250B2F5E8
:103A40007C0F38BF704729D512F0F00F1CBF00F172
:103A5000C04000F0004070470081828384858687E3
:103A600088898B8C8D8E8F919293959697999A9C3D
:103A70009D9FA0A2A3A5A7A8AAACAEB0B2B3B5B7AC
:103A8000B9BCBEC0C2C5C7C9CCCED1D4D7D9DCDF82
:103A9000E2E6E9ECF0F3F7FAFE0000004FEA400C32
:103AA0000CF1807CBCF17E4F28BF7047B0F1C04064
:103AB00000F00FB990EA010F0CEAD11348BF42F4AD
:103AC0008072624538BF634507D213F47F0F16D06A
:103AD00080EA010000F00040704710B500F0B3F834
:103AE000097EFC3E00F005B880EA010000F00040CD
:103AF000704780EA010000F0004000F0EAB812F4DC
:103B00007F0F04BF0248704780EA010000F0E1B86F
:103B10000000C07F10F0004148BF4042B0FA80F37F
:103B200010FA03F2C3F19D030BD051EAC35101EB2C
:103B30001220530638BF704700F1010008BF20F083
:103B4000010070474FF47F0C1CEAD0121EBF1CEA24
:103B5000D11392EA0C0F93EA0C0F00F0478090EA21
:103B6000010F48BF42F480724FF0004C4CEA002035
:103B70004CEA012102EB0302A0FB0113A2F50002B3
:103B8000002918BF43F001035B0028BF4FEA33034D
:103B900042EB22425FEA132C4CEBC2502EBFBCEB2F
:103BA000436FB2F57C0F70474FEA036CBCF1004FD6
:103BB00008BF20F00100B2F57C0F38BF70470BD56D
:103BC00082F0FF0212F5803FC8BF704700F1C0408D
:103BD000D8BF00F00040704700F5000C5FEA4C0CC5
:103BE00048BF7047B0F1C04000F073B890EA010FD1
:103BF0000CEAD11348BF42F48072624538BF634576
:103C000004D280EA010000F00040704710B500F0D7
:103C10001AF800BF8900013E00F007B800F009B8AB
:103C20005FEA410C5FEA1C6C08D080EA010000F0FA
:103C300050B85FEA400C5FEA1C6CF6D14FF00040D0
:103C4000A0F5800070470EF1020E2EF0030E5EF814
:103C5000044B244204D44FEA4102B2F17F4F11D801
:103C60004FEA4003B3F17F4F0CD80ED14FEAD07C1E
:103C7000B2F17F4F0CEB4C0C0CF1020C08BF4CEB7B
:103C8000D17C04E04FF0080C01E04FEAD17C0CEB52
:103C90004C0324FA03F404F00704B4F1040C06D234
:103CA0000EEB840CBDE810404CF0010C6047DFE8DF
:103CB0000CF0070802024FF00040A0F5800010BD94
:103CC0000846420018BFD2F1807288BF00F0004061
:103CD00010BDFF2141EAD050C00570470000000030
:103CE00000000000010203040607080900000000AC
:103CF000010203043031323334353637383941422A
:103D0000434445464030580030313233343536373D
:103D100038396162636465664030780004000008E9
:103D20000000000000000002000100001000000080
:103D3000503D00080000002030000000280100086D
:103D4000803D000830000020880700004401000882
:103D5000B3B40100000000000001000000000000FA
:103D60000000000000000000000000000300000050
:103D70000000000010000000010000000024F4001A
:04000005080000ED02
:00000001FF
