:020000040800F2
:10000000680500209D0100085B1700081D16000808
:1000100059170008A9020008AD20000800000000E0
:10002000000000000000000000000000E51C0008C7
:10003000AB02000800000000F91A0008E71C0008E5
:10004000B7010008B7010008B7010008B7010008B0
:10005000B7010008B7010008B7010008B7010008A0
:10006000B7010008B7010008B7010008B701000890
:10007000B7010008B7010008B7010008B701000880
:10008000B7010008B7010008B7010008B701000870
:10009000B7010008B7010008B7010008B701000860
:1000A000B7010008B7010008B7010008B701000850
:1000B000B7010008B701000800000000B701000800
:1000C000B70100080000000000000000B7010008B0
:1000D00000000000B7010008B7010008B7010008E0
:1000E000B7010008B7010008000000000000000090
:1000F0000000000000000000000000000000000000
:1001000000000000000000000000000000000000EF
:100110000000000000000000B7010008B70100085F
:1001200000000000000000000000000000000000CF
:1001300000000000000000000000000000000000BF
:10014000B7010008B701000800000000000000002F
:10015000000000000000000000000000000000009F
:10016000000000000000000000000000000000008F
:10017000000000000000000000000000000000007F
:1001800000000000B7010008DFF80CD000F07AF89A
:10019000004800478525000868050020064880477C
:1001A00006480047FEE7FEE7FEE7FEE7FEE7FEE75C
:1001B000FEE7FEE7FEE7FEE7611D00088901000893
:1001C0002DE9F05F0546002092469B46884606468C
:1001D000814640241BE0284641464746224600F01F
:1001E00020F853465A46C01A914110D3114618467A
:1001F000224600F038F82D1A67EB01084F462246D8
:100200000120002100F02FF817EB00094E41201EBD
:10021000A4F10104DFDC484631462A464346BDE8E6
:10022000F09F202A04DB203A21FA02F000217047D7
:1002300021FA02F3D040C2F120029140084319464E
:100240007047D2B201E000F8012B491EFBD2704783
:100250000022F6E710B513460A4604461946FFF792
:10026000F0FF204610BD202A04DB203A00FA02F1FC
:10027000002070479140C2F1200320FA03F3194394
:1002800090407047064C074D06E0E06840F00103DF
:1002900094E8070098471034AC42F6D3FFF778FF94
:1002A0005026000870260008FEE7704701B5064892
:1002B00006490068B0FBF1F00099484300900098AF
:1002C000411E0091FBD208BD14000020405489005B
:1002D0007047000070B5044600F0D0F80546601C79
:1002E00002D004480078044400F0C8F8401BA04243
:1002F000FAD370BD080000202DE9F84F0022DFF886
:1003000058A14FF003084FF00F090AF1040B9CE0CD
:10031000012595402B40002B7ED04C68012C05D048
:10032000022C03D0112C01D0122C10D1866854005D
:1003300008FA04F7BE43CF68A74037438760446894
:10034000AC430D79C5F30015954025434560C4685D
:10035000570008FA07F5AC438E68BE402643C660D6
:100360004C68022C01D0122C12D1D40800EB840C62
:10037000DCF820605407E40E09FA04FE26EA0E06B3
:10038000D1F810E00EFA04FE4EEA060ECCF820E09A
:100390000468AC430D7905F00305BD4025430560B5
:1003A0004C68E40050D52D4CA56945F00105A561C8
:1003B000A46904F001040094294C22F003052E19CD
:1003C000B7689407250F09FA05F4A743B0F1904FD9
:1003D00004D0244CA04203D101240CE000240AE004
:1003E000214CA04201D1022405E0204CA04201D1C1
:1003F000032400E00524AC403C43B460DAF800403C
:100400009C434D68ED0300D51C43CAF80040DBF85F
:1004100000409C434D6800E016E0AD0300D51C434E
:10042000CBF800400C4D08352C689C434E68F60212
:1004300000D51C432C60084D0C352C689C434E683D
:10044000B60200D51C432C60521C0B6833FA02F430
:100450007FF45EAFBDE8F88F000401400010024059
:10046000000001400004004800080048000C00485B
:10047000002A01D08161704781627047014880681D
:10048000704700000800002002488168027811448B
:10049000816070470800002010B50748016841F0EE
:1004A00010010160032000F061F8002000F006F860
:1004B00000F026F8002010BD0020024070B5044670
:1004C0000D4D4FF47A712878B1FBF0F00B490968B3
:1004D000B1FBF0F001F026F808B1012070BD102C3E
:1004E00007D200222146501E00F020F86C60002048
:1004F00070BD012070BD0000080000201400002025
:1005000008B50948816941F001018161816901F003
:1005100001010091C16941F08051C161C06900F0E1
:100520008050009008BD000000100240F0B40D465D
:100530000D4B1B68C3F30223C3F10704042C00D93D
:100540000424191D072901D2002300E0DB1E012627
:1005500006FA04F1491E294099409E40761E164035
:100560003143F0BC01F0B8BD0CED00E000F0070134
:10057000054A10684FF6FF03184040EA012003497E
:1005800008431060704700000CED00E00000FA0521
:100590002DE9F84F044600262068584DC0036FD55A
:1005A000E869C00008D4E86940F08050E861E86973
:1005B00000F0805000900126514F3868C00513D4D8
:1005C000386840F480703860FFF758FF804608E0D4
:1005D000FFF754FFA0EB0800642802D90320BDE810
:1005E000F88F3868C005F3D5286A00F4407078B3F6
:1005F000A18801F4407181424DD0286A20F44070F6
:100600004FF4803292FAA2F1B1FA81F18B003D49A8
:100610004FF001080B44C3F8008492FAA2F2B2FA38
:1006200082F201EB82010023C1F800342862C00786
:1006300031D0FFF723FF074641F2883A4FF0020915
:1006400007E0FFF71BFFC01B504502D90320C6E798
:1006500021E099FAA9F0B0FA80F040F0400041465C
:10066000B8EB501F01D128680CE099FAA9F0B0FA54
:1006700080F040F04000B9EB501F02D1286A01E041
:1006800015E0686A99FAA9F2B2FA82F202F01F0242
:1006900091400842D5D0286A616820F44070084330
:1006A0002862012E03D1E86920F08050E8612078AB
:1006B000C00705D0286BA16820F003000843286319
:1006C0002078800605D5286BE16820F010000843EB
:1006D00028632078000605D5E86A216920F4F870BF
:1006E0000843E8622088C00405D5286B616920F4BE
:1006F000807008432863002071E70000001002406A
:1007000000700040000042422DE9F04704460D46CB
:10071000002C17D0DFF89481D8F8000000F0070013
:10072000A84211D2D8F8000020F007002843C8F8EA
:100730000000D8F8000000F00700A84204D0012013
:10074000BDE8F0870120FBE72078594E800705D5EA
:100750007068A16820F0F000084370602078C0073E
:1007600065D06068012201280CD0022822D0022323
:1007700093FAA3F1B1FA81F141F02001490931D096
:10078000316830E04FF4003393FAA3F1B1FA81F10C
:1007900041F02001490901D0316800E0716A93FA03
:1007A000A3F3B3FA83F303F01F039A40114225D158
:1007B0000120C5E74FF0007393FAA3F1B1FA81F17C
:1007C00041F02001490901D0316800E0716A93FAD3
:1007D000A3F3B3FA83F303F01F039A4011420DD140
:1007E0000120ADE7716A93FAA3F3B3FA83F303F040
:1007F0001F039A40114201D10120A1E7716821F045
:10080000030101437160FFF739FE074641F2883961
:1008100006E0FFF733FEC01B484501D903208FE7F0
:100820007068616800F00C00B0EB810FF1D1D8F86E
:10083000000000F00700A8420ED9D8F8000020F010
:1008400007002843C8F80000D8F8000000F00700AF
:10085000A84201D0012073E72078400705D57068D1
:10086000E16820F4E060084370602078000706D556
:100870007068216920F4605040EAC100706000F0A7
:1008800051F87168F02292FAA2F201F0F001B2FA86
:1008900082F2D140074A515CC840074908600748C6
:1008A0000068FFF70BFE00204AE70000002002402E
:1008B0000010024038260008140000200C00002020
:1008C00001480068704700001400002000B5FFF7E1
:1008D000F7FF074949684FF4E06292FAA2F201F487
:1008E000E061B2FA82F2D140024A515CC84000BDD8
:1008F000001002404826000800B5FFF7E1FF074955
:1009000049684FF4605292FAA2F201F46051B2FACF
:1009100082F2D140024A515CC84000BD0010024042
:100920004826000810B5164B5968164801F00C020D
:10093000042A20D0082A1ED14FF4701494FAA4F48B
:1009400001F47012B4FA84F4E2400F4CA45CDA6A49
:100950000F2393FAA3F302F00F02B3FA83F3DA4002
:10096000094B10339A5CC90306D500231946FFF7DB
:1009700027FCA0FB040110BD0448A4FB000110BD2E
:100980000010024000127A001826000800093D00FD
:100990002DE9F84F0446002C12D02078F84EC007FD
:1009A0004FF001055ED070684FF40038C0F381004D
:1009B00001280BD07068C0F38100022803D01EE02C
:1009C0000120BDE8F88F7068C00318D598FAA8F028
:1009D000B0FA80F040F02000400901D0306800E01B
:1009E000706A98FAA8F1B1FA81F101F01F0105FAD5
:1009F00001F1084275D06068A0BB0120E1E76068A2
:100A0000B0F5803F17D0D8B1B0F5A02F21D0306815
:100A100020F480303060306820F480203060F06A4C
:100A2000A16820F00F000843F0626068C0B3FFF7D0
:100A300025FD07461EE0306840F480303060EEE768
:100A4000306820F480303060306820F480203060DE
:100A5000E5E7306840F480203060306840F4803052
:100A60003060DCE73DE0FFF709FDC01B642801D9D9
:100A70000320A6E798FAA8F0B0FA80F040F0200032
:100A8000400901D0306800E0706A98FAA8F1B1FA24
:100A900081F101F01F0105FA01F10842E3D020E0E5
:100AA000FFE7FFF7EBFC074606E0FFF7E7FCC01B9C
:100AB000642801D9032084E798FAA8F0B0FA80F0FE
:100AC00040F02000400901D0306800E0706A98FAD8
:100AD000A8F1B1FA81F101F01F0105FA01F1084214
:100AE000E3D12078DFF89C8280074FF0000B4FF0B5
:100AF000020732D570684FF0F80A10F00C0F07D0DB
:100B00007068C0F38100022828D17068C00325D422
:100B100097FAA7F0B0FA80F040F02000400901D029
:100B2000306800E0706A97FAA7F1B1FA81F101F03C
:100B30001F0105FA01F1084204D02069012801D003
:100B400001203EE730689AFAAAF26169B2FA82F2AD
:100B500020F0F8009140084330605CE0206990B3D9
:100B600095FAA5F0B0FA80F048F82050FFF786FC1F
:100B7000814607E0FFF782FCA0EB0900022801D9BB
:100B800003201EE797FAA7F0B0FA80F040F02000AB
:100B9000400901D0306800E0706A97FAA7F1B1FA15
:100BA00081F101F01F0105FA01F10842E2D030683D
:100BB0009AFAAAF26169B2FA82F220F0F800914042
:100BC0000843306027E0FFE795FAA5F0B0FA80F01F
:100BD00048F820B0FFF752FC814607E0FFF74EFCD3
:100BE000A0EB0900022801D90320EAE697FAA7F052
:100BF000B0FA80F040F02000400901D0306800E0F9
:100C0000706A97FAA7F1B1FA81F101F01F0105FAB4
:100C100001F10842E2D1207800076DD5A069A8B3A0
:100C200095FAA5F0B0FA80F008EB8000C0F8805487
:100C3000FFF724FC814607E0FFF720FCA0EB09004A
:100C4000022801D90320BCE697FAA7F0B0FA80F099
:100C500040F06000B5EB501F01D130680BE097FA0F
:100C6000A7F0B0FA80F040F06000B7EB501F01D160
:100C7000306A00E0706A97FAA7F1B1FA81F101F0E9
:100C80001F0205FA02F10842D6D035E0FFE795FAD7
:100C9000A5F0B0FA80F008EB8000C0F880B4FFF750
:100CA000EDFB814607E0FFF7E9FBA0EB0900022816
:100CB00001D9032085E697FAA7F0B0FA80F040F05A
:100CC0006000B5EB501F01D130680BE097FAA7F038
:100CD000B0FA80F040F06000B7EB501F01D1306AED
:100CE00000E0706A97FAA7F1B1FA81F101F01F02F2
:100CF00005FA02F10842D6D1207840076ED54FF0B0
:100D00000009F069C00009D4F06940F08050F0613A
:100D1000F06900F0805000904FF001091A48016816
:100D2000C90513D4016841F480710160FFF7A6FB87
:100D3000824607E0FFF7A2FBA0EB0A00642801D976
:100D400003203EE610480068C005F3D5E06801289E
:100D500010D0D8B1052822D0306A20F001003062CE
:100D6000306A20F004003062E068B0B3FFF786FB21
:100D7000824627E0306A40F001003062F4E700006C
:100D8000001002400000424200700040306A20F033
:100D900001003062306A20F004003062E4E7306A1B
:100DA00040F004003062306A40F001003062DBE75E
:100DB000FFF764FBA0EB0A0141F28830814201D9C0
:100DC0000320FEE597FAA7F0B0FA80F040F040006B
:100DD000B5EB501F03D130680DE017E04CE097FAF7
:100DE000A7F0B0FA80F040F04000B7EB501F01D1FF
:100DF000306A00E0706A97FAA7F1B1FA81F101F068
:100E00001F0105FA01F21042D2D02EE0FFF736FBA7
:100E1000824609E0FFF732FBA0EB0A0141F288307D
:100E2000814201D90320CCE597FAA7F0B0FA80F00F
:100E300040F04000B5EB501F01D130680BE097FA4D
:100E4000A7F0B0FA80F040F04000B7EB501F01D19E
:100E5000306A00E0706A97FAA7F1B1FA81F101F007
:100E60001F0105FA01F21042D4D1B9F1010F03D1EB
:100E7000F06920F08050F061E06980B37168C1F3DF
:100E80008101022977D04FF080794FF00077022856
:100E900009D099FAA9F0B0FA80F048F820B0FFF72D
:100EA000EDFA04465DE099FAA9F0B0FA80F048F84E
:100EB00020B0FFF7E3FA824607E0FFF7DFFAA0EB86
:100EC0000A00022801D903207BE597FAA7F0B0FABF
:100ED00080F040F02000400902D0306801E068E076
:100EE000706A97FAA7F1B1FA81F101F01F0105FAD2
:100EF00001F10842E1D1D4E908100843716821F4F6
:100F000074110843706099FAA9F0B0FA80F048F8BB
:100F10002050FFF7B3FA044606E0FFF7AFFA001BD4
:100F2000022801D903204CE597FAA7F0B0FA80F027
:100F300040F02000400901D0316800E0716A97FA62
:100F4000A7F0B0FA80F000F01F0005FA00F00142AF
:100F5000E3D02EE0FFF792FA001B022801D903200C
:100F60002FE597FAA7F0B0FA80F040F02000400992
:100F700002D0316801E00BE0716A97FAA7F0B0FA8D
:100F800080F000F01F0005FA00F00142E2D110E00D
:100F900001280CD07068226A00F48031914204D19B
:100FA000616A00F47010884203D0012009E5012035
:100FB00007E5002005E570B50446002C09D0606AFD
:100FC000002540B125616561A56294F85D0040B1DE
:100FD0000CE0012070BD6068B0F5827FF4D0E5615F
:100FE000F2E784F85C50204600F056F8022084F8BE
:100FF0005D002068016821F040010160E1684FF464
:10100000E062914201D9002001E04FF48050B1F537
:10101000706F02D0914200D0A562A188228901F4AC
:10102000827102F404421143227C02F00202114355
:10103000227D02F001021143228B02F4007211435F
:10104000227F02F03802114394F8202002F080023F
:101050001143228D02F40052114322681160A169EC
:10106000042202EA114194F8242000F4805002F096
:101070001002114394F8342002F008021143A289AF
:1010800002F470621143014320684160256601202B
:1010900084F85D00002070BD10B586B004461421B0
:1010A00001A8FFF7D5F81349206888421FD11248DC
:1010B000816941F480518161816901F4805100911D
:1010C000416941F400314161406900F40030009011
:1010D000E020019002200290002003900320049061
:1010E0000520059001A94FF09040FFF705F906B0E3
:1010F00010BD000000300140001002402DE9F84F03
:1011000004468B4692461D46002694F85C00012852
:101110000DD04FF0010984F85C90FFF7AFF9074656
:1011200094F85D00B046012804D00226BEE00220FB
:10113000BDE8F88FBBF1000F1CD05FEA0A0019D0A0
:10114000032084F85D00C4F86080C4F838B0A4F8C7
:101150003CA0A4F83EA0C4F84080A4F84480A4F8C1
:101160004680C4F85080C4F84C80A068B0F5004FA9
:1011700002D00BE0012699E02068016821F04001CF
:1011800001602068016841F48041016020680168C5
:10119000490603D4016841F040010160E068B0F500
:1011A000E06F2BD9606810B1BAF1010F20D1A06BAC
:1011B00021680088C860A06B801CA063E08F401E7F
:1011C000E08715E020688168890709D5A16B098847
:1011D000C160A06B801CA063E08F401EE08707E029
:1011E000FFF74CF9C01BA84201D3681C04D11DB104
:1011F000E08F0028E6D145E0032657E0606810B193
:10120000BAF1010F3BD1E08F01280AD9A06B216808
:101210000088C860A06B801CA063E08F801EE08700
:101220002DE0A06B216800780873A06B401CA063C0
:10123000E08F401EE08722E020688168890716D58C
:10124000E18F012909D9A16B0988C160A06B801CBD
:10125000A063E08F801EE08711E0A16B0978017325
:10126000A06B401CA063E08F401EE08707E0FFF703
:1012700005F9C01BA84201D3681C0ED16DB1E08FE7
:101280000028D9D13A462946204600F036FC08B15C
:1012900020202066A06810B105E0032606E0206843
:1012A000C16880680090206E00B1012684F85D90CE
:1012B00084F85C8030463BE72DE9F05F04460A9EE7
:1012C0008A4693461F4601254FF0000894F85C00BB
:1012D00001280ED0012084F85C00FFF7CFF881468A
:1012E00094F85D00616801280DD0B1F5827F07D1C7
:1012F00002E00220BDE8F09FA16809B9042802D0ED
:101300004FF0020804E1BAF1000F26D0BBF1000F44
:1013100023D0380021D094F85D00042802D00520A5
:1013200084F85D0000202066C4F840B0A4F8467040
:10133000A4F84470C4F838A0E787A787E064206564
:10134000E0684FF4E061884201D8012F08D9206895
:10135000426822F48052426007E04FF00108D7E073
:101360002068426842F48052426020680268520657
:1013700003D4026842F040020260E068884246D925
:10138000606808B1012F3AD1A06B21680088C8605D
:10139000A06B801CA063E08F401EE0872FE02068D8
:1013A000816889070DD5E18F59B1012D09D1A16B54
:1013B0000988C160A06B801CA063E08F401EE0879D
:1013C000002520688168C9070ED0B4F8461059B1CD
:1013D000C068216C0880206C801C2064B4F8460032
:1013E000401EA4F846000125FFF748F8A0EB0900CD
:1013F000B04204D3701C02D04FF0030888E0E08FA5
:101400000028CCD1B4F846000028C8D176E0606846
:1014100008B1012F6BD1E08F01280AD9A06B216898
:101420000088C860A06B801CA063E08F801EE087EE
:101430005DE0A06B216800780873A06B401CA0637E
:10144000E08F401EE08752E02068816889071AD546
:10145000E18FC1B1012D16D1E18F012909D9A16B0D
:101460000988C160A06B801CA063E08F801EE087AC
:1014700008E0A16B09780173A06B401CA063E08FAA
:10148000401EE087002520688168C90726D0B4F88F
:10149000461019B3B4F84610012913D9C06854F89E
:1014A000401F08802068801C2060E088801EE0804B
:1014B000E088403C012810D82068416841F4805100
:1014C00041600AE0007B216C0870206C401C2064A5
:1014D000B4F84600401EA4F846000125FEF7CEFFF2
:1014E000A0EB0900B04201D3701C18D1BEB1E08F4F
:1014F0000028A9D1B4F846000028A5D14A463146B3
:10150000204600F0FAFA18B14FF0010820202066BA
:1015100001205C346070002020704046EAE64FF005
:101520000308F5E710B5401EB0F1807F01D301201C
:1015300010BD4FF0E02460610F21601700F0CCFD7A
:101540000020A06107202061002010BD10B50446D6
:10155000002C02D0A06F10B107E0012010BD0020C8
:1015600084F87400204600F027F82420A067206843
:10157000016821F001010160204600F08DFC012886
:1015800018D0606A10B1204600F0F2FB2068416874
:1015900021F4904141602068816821F02A01816036
:1015A0002068016841F0010101602046BDE810405B
:1015B00000F042BC012010BD10B586B004461421D5
:1015C00001A8FEF745FE13492068884220D1124841
:1015D000816941F480418161816901F48041009118
:1015E000416941F400314161406900F400300090EC
:1015F0004FF4C0600190022002900020039003206D
:1016000004900720059001A94FF09040FEF774FE6A
:1016100006B010BD0038014000100240FEE7000097
:10162000F0B587B0142102A8FEF712FE25484169E3
:1016300041F480014161416901F4800101914169F6
:1016400041F400314161416901F400310191416986
:1016500041F480214161406900F4802001904FF005
:101660009046002218213046FEF702FF164F002256
:1016700008213846FEF7FCFE022002900024039465
:101680000125049502A93046FEF736FE1820029087
:1016900003950494059402A93046FEF72DFE280216
:1016A00002900394049402A93046FEF725FE082018
:1016B000029003950494059402A93846FEF71CFE97
:1016C00007B0F0BD001002400004004810B51248F9
:1016D000104901604FF482714160002181604FF434
:1016E000E062C260016141614FF4007282612022B8
:1016F000C2610162416281620722C2620163082104
:101700004163FFF758FC002803D0BDE81040FEF706
:10171000DFBD10BD003001407C00002010B50D4839
:101720000B4901604FF41641416000218160C160A6
:1017300001610C2242618161C16101624162FFF776
:1017400005FF002803D0BDE81040FEF7C1BD10BD65
:1017500000380140E0000020FEE7704710B500208F
:1017600000F0A8F840F00301002000F025F9012264
:1017700008214FF09040FEF77BFE9620FEF796FD85
:1017800000F058F8BDE8104000F074B810B50446F9
:10179000204600F03BF8002000F08CF840F00200FA
:1017A00020F00101002000F007F99620FEF77EFDF1
:1017B00001222146A02000F0D1F84FF090440122F0
:1017C00008212046FEF754FE0F20FEF76FFD002291
:1017D00008212046FEF74CFE072000F06BF881063A
:1017E00004D52021072000F0E7F807E0C00605D562
:1017F0001021072000F0E0F800F03CF8082000F08D
:1018000059F8BDE81040FFF7A9BF000010B503224A
:101810000749102000F0F4F8002208214FF0904012
:10182000FEF726FE00F006F8BDE8104000F022B8F2
:101830000100002038B50DA0006800904FF09044E2
:10184000002210212046FEF713FE4FF47A73012286
:1018500069460748FFF752FC0120FEF727FD0122E9
:1018600010212046FEF704FE38BD0000E200000013
:101870007C00002038B50DA0006800904FF0904427
:10188000002210212046FEF7F3FD4FF47A73012267
:1018900069460748FFF732FC0120FEF707FD0122E9
:1018A00010212046FEF7E4FD38BD0000E1000000F5
:1018B0007C00002031B584B0002003904FF09045AB
:1018C000002210212846FEF7D3FD4FF47A7401233D
:1018D00003AA04A90C480094FFF7EEFC9DF8101031
:1018E000072908D0FF210291012303AA02A9064873
:1018F0000094FFF7E1FC012210212846FEF7B8FD15
:101900009DF80C0005B030BD7C00002038B511A05A
:10191000006800904FF09044002210212046FEF70E
:10192000A7FD4FF47A752B46012269460A48FFF756
:10193000E5FB0120FEF7BAFC732100912B46012242
:1019400069460548FFF7DAFB012210212046FEF721
:101950008FFD38BD500000007C000020F7B50E461A
:1019600017464FF09044002208212046FEF780FDE4
:10197000002210212046FEF77BFD4FF47A752B469E
:10198000012269460B48FFF7B9FB0120FEF78EFCE8
:101990002B463A4631460748FFF7B0FB012210219B
:1019A0002046FEF765FD012208212046FEF760FD76
:1019B000FEBD00007C00002073B59DF8000040F0E3
:1019C000200000904FF09044002210212046FEF7A6
:1019D0004FFD4FF47A752B46012269460748FFF701
:1019E0008DFB2B46012201A90448FFF787FB01224A
:1019F00010212046FEF73CFD7CBD00007C0000204D
:101A0000F7B50E4617469DF8000040F02000009004
:101A10004FF09044002210212046FEF729FD4FF49C
:101A20007A752B46012269460848FFF767FB0120BB
:101A3000FEF73CFC2B463A4631460448FFF75EFB76
:101A4000012210212046FEF713FDFEBD7C00002080
:101A500010B5002208214FF09040FEF709FD41F239
:101A600088342046FEF722FC0A210020FFF7A4FF5D
:101A70002046FEF71BFC01210846FFF79DFF0121D0
:101A80000220FFF799FF01210320FFF795FF5F2157
:101A90000420FFF791FFFFF739FF00211D20FFF71A
:101AA0008BFF00211C20FFF787FF70210720FFF725
:101AB00083FF4C210520FFF77FFF2E210620FFF733
:101AC0007BFF03220A491020FFF79AFF03220849EF
:101AD0000A20FFF795FF01211120FFF76DFFFFF7A7
:101AE0003DFE0122BDE8104008210248FEF7C0BCBF
:101AF00001000020000400487047F8B504460E4677
:101B00001546334600224FF4C0512046009500F0A0
:101B100027F828B1206E40F0200020660320F8BD91
:101B20003346002280212046009500F07DF828B140
:101B3000206E40F0200020660320F8BD33460022CE
:101B40004FF4C0612046009500F00AF828B1206EDD
:101B500040F0200020660320F8BD0020F8BD000002
:101B60002DE9F84F04460E46174698460A9DFEF7A3
:101B700085FC401BA8EB0005FEF780FC8146294848
:101B80000068C0EBC00000EB8000000D68430090CF
:101B90004FF4C06A3FE0564501D107B9007BB8F168
:101BA000FF3F38D0FEF76AFCA0EB0900A84203D241
:101BB00015B1009858B32BE02068416821F0E0018E
:101BC00041606068B0F5827F0BD1A068B0F5004F2E
:101BD00002D0B0F5806F04D12068016821F0400187
:101BE0000160A06AB0F5005F09D12068016821F4A6
:101BF000005101602068016841F40051016001203A
:101C00005C346070002020700320BDE8F88F002550
:101C10000098401E0090206881683140B942BAD1D6
:101C20000020F2E7140000202DE9F84304460F4697
:101C300091461E46089DFEF721FC401B351AFEF713
:101C40001DFC804626480068C0F3CB3068430090F6
:101C50003AE0701C38D0FEF711FCA0EB0800A84257
:101C600003D215B1009858B32BE02068416821F0E9
:101C7000E00141606068B0F5827F0BD1A068B0F5EB
:101C8000004F02D0B0F5806F04D12068016821F0C8
:101C900040010160A06AB0F5005F09D120680168C9
:101CA00021F4005101602068016841F40051016095
:101CB00001205C346070002020700320BDE8F883B0
:101CC00000250098401E00902068806837EA0000D8
:101CD00004D000204845BCD10020EFE70120F9E7FF
:101CE000140000207047FEF7CFBB70B596B02821D6
:101CF0000CA8FEF7ADFA142107A8FEF7A9FA1821DF
:101D000001A8FEF7A5FA01250C9528040D900024E2
:101D10000E9410950226139614904FF4E01015902F
:101D20000CA8FEF735FE08B1FEF7D2FA0F20079097
:101D3000089609944FF480600A900B94022107A83A
:101D4000FEF7E2FC08B1FEF7C3FA0195039401A87F
:101D5000FEF71EFC002801D0FEF7BAFA16B070BDDF
:101D60000248016841F470010160704788ED00E0AD
:101D700090F82410C90706D001684A68836A22F4E3
:101D800000321A434A6090F82410890706D501688A
:101D90004A68C36A22F480321A434A6090F82410D9
:101DA000490706D501684A68036B22F480221A436A
:101DB0004A6090F82410090706D501684A68436B09
:101DC00022F400421A434A6090F82410C90606D54E
:101DD00001688A68836B22F480521A438A6090F803
:101DE0002410890606D501688A68C36B22F4005264
:101DF0001A438A6090F82410490611D501684A6890
:101E0000036C22F480121A434A60016CB1F5801F02
:101E100006D101684A68436C22F4C0021A434A6042
:101E200090F82410090606D501684A68806C22F4EF
:101E3000002202434A607047F8B504460025C4F802
:101E40008050FEF71BFB0746206800686FF07E4657
:101E500000070AD53B4600224FF4001120460096A9
:101E600000F0D0F808B10320F8BD206800684007F2
:101E70000AD53B4600224FF480012046009600F030
:101E8000C1F808B10320F8BD2020A067E0672566EF
:101E900084F874500020F8BD70B504460025A16890
:101EA0002069E269014360691043014320680268C8
:101EB0004E4B1A400A43026020684168E26821F4F0
:101EC000405111434160A069216A01432068826842
:101ED00022F430620A43826045492068884214D166
:101EE0004448006B10F0030007D0012809D00228F5
:101EF00009D0032803D0102012E0002010E00220B7
:101F00000EE004200CE008200AE03B49884201D1A1
:101F1000002005E03949884201D1002000E010206E
:101F2000E3694FF40041364A4FF6EF768B422FD1EA
:101F3000092814D2DFE800F005090D130F1313135D
:101F40001500FEF7C3FC01460BE0FEF7D5FC014689
:101F500007E0114605E0FEF7E5FC014601E000213F
:101F60000125D9B36068490001EB5001B1FBF0F0E5
:101F700080B2A0F11001B14208D84FF6F0710140D3
:101F8000C0F3420001432068C16029E0012527E039
:101F9000092814D2DFE800F005090D130F131313FD
:101FA0001500FEF793FC01460BE0FEF7A5FC014689
:101FB00007E0114605E0FEF7B5FC014601E000210F
:101FC000012559B1606801EB5001B1FBF0F080B21E
:101FD000A0F11001B14202D82168C86000E00125DB
:101FE00000206066A066284670BD0000F369FFEF20
:101FF000003801400010024000440040004800400A
:1020000000127A002DE9F0470446089D0E46174657
:1020100098464FF0000A4FF020093BE0681C39D089
:10202000FEF72CFAA0EB0800A84221D805B32068DF
:10203000016849072ED5C069C04300052AD421682C
:102040004FF4006008622068016821F4D0710160DB
:102050002068816821F001018160C4F87890C4F89B
:102060007C90C4F8809084F874A00320BDE8F087C9
:102070002068016821F4D07101602068816821F036
:1020800001018160C4F87890C4F87C9084F874A051
:102090000320EBE72068C06936EA000004D0002086
:1020A000B842BBD00020E1E70120F9E7FEE70000DD
:1020B0000FB4084B10B504A902AA039800F02CF83D
:1020C000044602A9002000F058FA204610BC5DF832
:1020D00014FB00007B2500080907090E002804DB1B
:1020E00000F1E02080F80014704700F00F0000F1CC
:1020F000E02080F8141D704702E008C8121F08C1D4
:10210000002AFAD170477047002001E001C1121F78
:10211000002AFBD1704700002DE9FF4F8DB00F461C
:102120000546002606E025280BD0DDE90F12904772
:102130006D1C761C28780028F5D111B03046BDE81A
:10214000F08F0024A246A1460122EC4900E004439E
:1021500015F8013F203B02FA03F00842F7D1287836
:102160002A2810D06FF02F022878A0F13001092919
:1021700014D80AEB8A0102EB410144F0020400EB9F
:10218000010A6D1CF0E701CF5FEA000A03D544F4B1
:102190000054CAF1000A44F002046D1C28782E286D
:1021A00017D115F8010F44F004042A280ED06FF05F
:1021B0002F022878A0F1300109290AD809EB8901FA
:1021C00002EB410100EB01096D1CF2E757F8049B9B
:1021D0006D1C28786C280FD006DC4C2817D0682896
:1021E0000DD06A2814D104E0742810D07A280FD1B9
:1021F0000DE044F400140AE044F4801401E044F4D7
:1022000040146978814202D104F580146D1C6D1C64
:102210002A786E2A1FD00CDC632A31D004DC002A15
:102220008BD0582A11D1A3E0642A68D0692A0CD136
:1022300065E0732A2ED004DC6F2A73D0702A04D193
:102240009BE0752A6FD0782A6ED01046DDE90F1218
:102250009047761C50E1C4F30250022806D00328B0
:1022600009D0042801CF09D0066045E101CFF1175C
:10227000C0E9006140E101CF06803DE106703BE12D
:1022800017F8040B8DF8000000208DF80100EB46D4
:10229000012003E057F804BB4FF0FF3061074FF017
:1022A000000102D40DE008F10101884649450FDA2A
:1022B0008045F8DB1BF808100029F4D108E008F18C
:1022C000010188468142FADB1BF808100029F6D18B
:1022D000DDE90F23AAEB08008146214600F036F91C
:1022E000304400EB080604E0DDE90F121BF8010B97
:1022F0009047B8F10108F7D221464846F7E00A2195
:10230000C4F302534FF0000B0891022B04D001CF0D
:10231000C117032B09D00AE0FF1D27F00707F7E8D4
:10232000020108E032E01FE020E000B2C117042BF8
:1023300001D140B2C117031E71F1000307DA4FF05B
:10234000000CD0EB0C006CEB01012D2302E0230507
:1023500004D52B238DF82430012303E0E30701D0BB
:102360002023F7E7984658E00A2110E010210EE0FC
:1023700010204FF0000B08900CE010214FF0000BE4
:1023800044F004044FF00809089103E008214FF0DD
:10239000000B0891C4F30253022B04D001CF00219B
:1023A000032B06D006E0FF1D27F00707F7E8020120
:1023B00003E080B2042B00D1C0B24FF00008230725
:1023C0002BD5702A07D0DDF820C08CF0100C5CEA09
:1023D0000B0C05D00EE040238DF82430012308E0DB
:1023E00050EA010306D030238DF824308DF82520E3
:1023F00002239846DDF820C08CF0080C5CEA0B0C38
:102400000BD150EA010301D1630706D530238DF8C3
:1024100024304FF00108A9F10109582A04D038A24C
:102420000B9208AA0A920BE03AA2F9E75B46089AD7
:10243000FDF7C6FE0B9B9B5C0A9A521E0A92137014
:1024400050EA0102F2D10A98ADEB000000F1200B36
:10245000600702D524F4803401E04FF00109D9452A
:1024600002DDA9EB0B0000E0002000EB0B01414472
:102470000890AAEB010AE00306D4DDE90F23214608
:10248000504600F063F806444FF0000908E009A93F
:1024900011F80900DDE90F12904709F10109761CD6
:1024A000C145F4DBE0030CD5DDE90F23214650469E
:1024B00000F04CF8064404E0DDE90F1230209047AC
:1024C000761C0899481E08900029F5DC08E00A9857
:1024D0000A990078491C0A91DDE90F129047761C91
:1024E000BBF10001ABF1010BF1DC21465046DDE907
:1024F0000F2300F019F806446D1C1BE609280100A3
:102500003031323334353637383961626364656669
:10251000000000003031323334353637383941422B
:1025200043444546000000002DE9F04104460025E3
:102530001E461746880404D405E039462020B047DB
:102540006D1C641EF9D52846BDE8F0812DE9F041E7
:10255000044600251E469046C80301D5302700E0FA
:102560002027880404D505E041463846B0476D1C55
:10257000641EF9D52846BDE8F0810A68531C0B603B
:10258000107070471CB56F25019585260096FDF7E4
:1025900083FFFFF7AAFBFFF743F8FFF797F8FFF772
:1025A000BDF8FFF755FAC820FDF794FEDFF8488024
:1025B000124C4FF47A773846FDF78CFE0122082141
:1025C0004046FDF755FF25700C48FFF7DFF8384609
:1025D000FDF780FE002208214046FDF749FF2670E6
:1025E0000648FFF7D3F80020FFF764F9024604A17C
:1025F0000848FFF75DFDDEE7000400480400002006
:10260000434F4E4649473A203078253032580D0A1C
:102610000000000018000020020304050607080956
:102620000A0B0C0D0E0F101001020304050607081B
:10263000090A0B0C0D0E0F10000000000000000036
:102640000102030406070809000000000102030458
:10265000702600080000002018000000F820000884
:1026600088260008180000205005000008210008F6
:1026700000B3B401000000000100000010000000E1
:082680000000000000127A00C6
:040000050800018965
:00000001FF
