:020000040800F2
:10000000680500209D0100084B1700082D16000808
:1000100049170008A902000891200008000000000C
:10002000000000000000000000000000C91C0008E3
:10003000AB02000800000000DD1A0008CB1C00081D
:10004000B7010008B7010008B7010008B7010008B0
:10005000B7010008B7010008B7010008B7010008A0
:10006000B7010008B7010008B7010008B701000890
:10007000B7010008B7010008B7010008B701000880
:10008000B7010008B7010008B7010008B701000870
:10009000B7010008B7010008B7010008B701000860
:1000A000B7010008B7010008B7010008B701000850
:1000B000B7010008B701000800000000B701000800
:1000C000B70100080000000000000000B7010008B0
:1000D00000000000B7010008B7010008B7010008E0
:1000E000B7010008B7010008000000000000000090
:1000F0000000000000000000000000000000000000
:1001000000000000000000000000000000000000EF
:100110000000000000000000B7010008B70100085F
:1001200000000000000000000000000000000000CF
:1001300000000000000000000000000000000000BF
:10014000B7010008B701000800000000000000002F
:10015000000000000000000000000000000000009F
:10016000000000000000000000000000000000008F
:10017000000000000000000000000000000000007F
:1001800000000000B7010008DFF80CD000F07AF89A
:1001900000480047D1200008680500200648804735
:1001A00006480047FEE7FEE7FEE7FEE7FEE7FEE75C
:1001B000FEE7FEE7FEE7FEE7451D000889010008AF
:1001C0002DE9F05F0546002092469B46884606468C
:1001D000814640241BE0284641464746224600F01F
:1001E00020F853465A46C01A914110D3114618467A
:1001F000224600F038F82D1A67EB01084F462246D8
:100200000120002100F02FF817EB00094E41201EBD
:10021000A4F10104DFDC484631462A464346BDE8E6
:10022000F09F202A04DB203A21FA02F000217047D7
:1002300021FA02F3D040C2F120029140084319464E
:100240007047D2B201E000F8012B491EFBD2704783
:100250000022F6E710B513460A4604461946FFF792
:10026000F0FF204610BD202A04DB203A00FA02F1FC
:10027000002070479140C2F1200320FA03F3194394
:1002800090407047064C074D06E0E06840F00103DF
:1002900094E8070098471034AC42F6D3FFF778FF94
:1002A0006821000888210008FEE7704701B506486C
:1002B00006490068B0FBF1F00099484300900098AF
:1002C000411E0091FBD208BD14000020405489005B
:1002D0007047000070B5044600F0D8F80546601C71
:1002E00002D004480078044400F0D0F8401BA0423B
:1002F000FAD370BD080000202DE9F84F0022DFF886
:1003000058A14FF003084FF00F090AF1040B9CE0CD
:10031000012595402B40002B7ED04C68012C05D048
:10032000022C03D0112C01D0122C10D1866854005D
:1003300008FA04F7BE43CF68A74037438760446894
:10034000AC430D79C5F30015954025434560C4685D
:10035000570008FA07F5AC438E68BE402643C660D6
:100360004C68022C01D0122C12D1D40800EB840C62
:10037000DCF820605407E40E09FA04FE26EA0E06B3
:10038000D1F810E00EFA04FE4EEA060ECCF820E09A
:100390000468AC430D7905F00305BD4025430560B5
:1003A0004C68E40050D52D4CA56945F00105A561C8
:1003B000A46904F001040094294C22F003052E19CD
:1003C000B7689407250F09FA05F4A743B0F1904FD9
:1003D00004D0244CA04203D101240CE000240AE004
:1003E000214CA04201D1022405E0204CA04201D1C1
:1003F000032400E00524AC403C43B460DAF800403C
:100400009C434D68ED0300D51C43CAF80040DBF85F
:1004100000409C434D6800E016E0AD0300D51C434E
:10042000CBF800400C4D08352C689C434E68F60212
:1004300000D51C432C60084D0C352C689C434E683D
:10044000B60200D51C432C60521C0B6833FA02F430
:100450007FF45EAFBDE8F88F000401400010024059
:10046000000001400004004800080048000C00485B
:100470000069084201D00120704700207047002A1F
:1004800001D0816170478162704700000148806837
:10049000704700000800002002488168027811447B
:1004A000816070470800002010B50748016841F0DE
:1004B00010010160032000F061F8002000F006F850
:1004C00000F026F8002010BD0020024070B5044660
:1004D0000D4D4FF47A712878B1FBF0F00B490968A3
:1004E000B1FBF0F001F026F808B1012070BD102C2E
:1004F00007D200222146501E00F020F86C60002038
:1005000070BD012070BD0000080000201400002014
:1005100008B50948816941F001018161816901F0F3
:1005200001010091C16941F08051C161C06900F0D1
:100530008050009008BD000000100240F0B40D464D
:100540000D4B1B68C3F30223C3F10704042C00D92D
:100550000424191D072901D2002300E0DB1E012617
:1005600006FA04F1491E294099409E40761E164025
:100570003143F0BC01F08DBD0CED00E000F007014F
:10058000054A10684FF6FF03184040EA012003496E
:1005900008431060704700000CED00E00000FA0511
:1005A0002DE9F84F044600262068584DC0036FD54A
:1005B000E869C00008D4E86940F08050E861E86963
:1005C00000F0805000900126514F3868C00513D4C8
:1005D000386840F480703860FFF758FF804608E0C4
:1005E000FFF754FFA0EB0800642802D90320BDE800
:1005F000F88F3868C005F3D5286A00F4407078B3E6
:10060000A18801F4407181424DD0286A20F44070E5
:100610004FF4803292FAA2F1B1FA81F18B003D4998
:100620004FF001080B44C3F8008492FAA2F2B2FA28
:1006300082F201EB82010023C1F800342862C00776
:1006400031D0FFF723FF074641F2883A4FF0020905
:1006500007E0FFF71BFFC01B504502D90320C6E788
:1006600021E099FAA9F0B0FA80F040F0400041464C
:10067000B8EB501F01D128680CE099FAA9F0B0FA44
:1006800080F040F04000B9EB501F02D1286A01E031
:1006900015E0686A99FAA9F2B2FA82F202F01F0232
:1006A00091400842D5D0286A616820F44070084320
:1006B0002862012E03D1E86920F08050E86120789B
:1006C000C00705D0286BA16820F003000843286309
:1006D0002078800605D5286BE16820F010000843DB
:1006E00028632078000605D5E86A216920F4F870AF
:1006F0000843E8622088C00405D5286B616920F4AE
:10070000807008432863002071E700000010024059
:1007100000700040000042422DE9F04704460D46BB
:10072000002C17D0DFF89481D8F8000000F0070003
:10073000A84211D2D8F8000020F007002843C8F8DA
:100740000000D8F8000000F00700A84204D0012003
:10075000BDE8F0870120FBE72078594E800705D5DA
:100760007068A16820F0F000084370602078C0072E
:1007700065D06068012201280CD0022822D0022313
:1007800093FAA3F1B1FA81F141F02001490931D086
:10079000316830E04FF4003393FAA3F1B1FA81F1FC
:1007A00041F02001490901D0316800E0716A93FAF3
:1007B000A3F3B3FA83F303F01F039A40114225D148
:1007C0000120C5E74FF0007393FAA3F1B1FA81F16C
:1007D00041F02001490901D0316800E0716A93FAC3
:1007E000A3F3B3FA83F303F01F039A4011420DD130
:1007F0000120ADE7716A93FAA3F3B3FA83F303F030
:100800001F039A40114201D10120A1E7716821F034
:10081000030101437160FFF739FE074641F2883951
:1008200006E0FFF733FEC01B484501D903208FE7E0
:100830007068616800F00C00B0EB810FF1D1D8F85E
:10084000000000F00700A8420ED9D8F8000020F000
:1008500007002843C8F80000D8F8000000F007009F
:10086000A84201D0012073E72078400705D57068C1
:10087000E16820F4E060084370602078000706D546
:100880007068216920F4605040EAC100706000F097
:1008900051F87168F02292FAA2F201F0F001B2FA76
:1008A00082F2D140074A515CC840074908600748B6
:1008B0000068FFF70BFE00204AE70000002002401E
:1008C0000010024050210008140000200C000020FD
:1008D00001480068704700001400002000B5FFF7D1
:1008E000F7FF074949684FF4E06292FAA2F201F477
:1008F000E061B2FA82F2D140024A515CC84000BDC8
:10090000001002406021000800B5FFF7E1FF074931
:1009100049684FF4605292FAA2F201F46051B2FABF
:1009200082F2D140024A515CC84000BD0010024032
:100930006021000810B5164B5968164801F00C02EA
:10094000042A20D0082A1ED14FF4701494FAA4F47B
:1009500001F47012B4FA84F4E2400F4CA45CDA6A39
:100960000F2393FAA3F302F00F02B3FA83F3DA40F2
:10097000094B10339A5CC90306D500231946FFF7CB
:100980001FFCA0FB040110BD0448A4FB000110BD26
:100990000010024000127A003021000800093D00DA
:1009A0002DE9F84F0446002C12D02078F84EC007ED
:1009B0004FF001055ED070684FF40038C0F381003D
:1009C00001280BD07068C0F38100022803D01EE01C
:1009D0000120BDE8F88F7068C00318D598FAA8F018
:1009E000B0FA80F040F02000400901D0306800E00B
:1009F000706A98FAA8F1B1FA81F101F01F0105FAC5
:100A000001F1084275D06068A0BB0120E1E7606891
:100A1000B0F5803F17D0D8B1B0F5A02F21D0306805
:100A200020F480303060306820F480203060F06A3C
:100A3000A16820F00F000843F0626068C0B3FFF7C0
:100A400025FD07461EE0306840F480303060EEE758
:100A5000306820F480303060306820F480203060CE
:100A6000E5E7306840F480203060306840F4803042
:100A70003060DCE73DE0FFF709FDC01B642801D9C9
:100A80000320A6E798FAA8F0B0FA80F040F0200022
:100A9000400901D0306800E0706A98FAA8F1B1FA14
:100AA00081F101F01F0105FA01F10842E3D020E0D5
:100AB000FFE7FFF7EBFC074606E0FFF7E7FCC01B8C
:100AC000642801D9032084E798FAA8F0B0FA80F0EE
:100AD00040F02000400901D0306800E0706A98FAC8
:100AE000A8F1B1FA81F101F01F0105FA01F1084204
:100AF000E3D12078DFF89C8280074FF0000B4FF0A5
:100B0000020732D570684FF0F80A10F00C0F07D0CA
:100B10007068C0F38100022828D17068C00325D412
:100B200097FAA7F0B0FA80F040F02000400901D019
:100B3000306800E0706A97FAA7F1B1FA81F101F02C
:100B40001F0105FA01F1084204D02069012801D0F3
:100B500001203EE730689AFAAAF26169B2FA82F29D
:100B600020F0F8009140084330605CE0206990B3C9
:100B700095FAA5F0B0FA80F048F82050FFF786FC0F
:100B8000814607E0FFF782FCA0EB0900022801D9AB
:100B900003201EE797FAA7F0B0FA80F040F020009B
:100BA000400901D0306800E0706A97FAA7F1B1FA05
:100BB00081F101F01F0105FA01F10842E2D030682D
:100BC0009AFAAAF26169B2FA82F220F0F800914032
:100BD0000843306027E0FFE795FAA5F0B0FA80F00F
:100BE00048F820B0FFF752FC814607E0FFF74EFCC3
:100BF000A0EB0900022801D90320EAE697FAA7F042
:100C0000B0FA80F040F02000400901D0306800E0E8
:100C1000706A97FAA7F1B1FA81F101F01F0105FAA4
:100C200001F10842E2D1207800076DD5A069A8B390
:100C300095FAA5F0B0FA80F008EB8000C0F8805477
:100C4000FFF724FC814607E0FFF720FCA0EB09003A
:100C5000022801D90320BCE697FAA7F0B0FA80F089
:100C600040F06000B5EB501F01D130680BE097FAFF
:100C7000A7F0B0FA80F040F06000B7EB501F01D150
:100C8000306A00E0706A97FAA7F1B1FA81F101F0D9
:100C90001F0205FA02F10842D6D035E0FFE795FAC7
:100CA000A5F0B0FA80F008EB8000C0F880B4FFF740
:100CB000EDFB814607E0FFF7E9FBA0EB0900022806
:100CC00001D9032085E697FAA7F0B0FA80F040F04A
:100CD0006000B5EB501F01D130680BE097FAA7F028
:100CE000B0FA80F040F06000B7EB501F01D1306ADD
:100CF00000E0706A97FAA7F1B1FA81F101F01F02E2
:100D000005FA02F10842D6D1207840076ED54FF09F
:100D10000009F069C00009D4F06940F08050F0612A
:100D2000F06900F0805000904FF001091A48016806
:100D3000C90513D4016841F480710160FFF7A6FB77
:100D4000824607E0FFF7A2FBA0EB0A00642801D966
:100D500003203EE610480068C005F3D5E06801288E
:100D600010D0D8B1052822D0306A20F001003062BE
:100D7000306A20F004003062E068B0B3FFF786FB11
:100D8000824627E0306A40F001003062F4E700005C
:100D9000001002400000424200700040306A20F023
:100DA00001003062306A20F004003062E4E7306A0B
:100DB00040F004003062306A40F001003062DBE74E
:100DC000FFF764FBA0EB0A0141F28830814201D9B0
:100DD0000320FEE597FAA7F0B0FA80F040F040005B
:100DE000B5EB501F03D130680DE017E04CE097FAE7
:100DF000A7F0B0FA80F040F04000B7EB501F01D1EF
:100E0000306A00E0706A97FAA7F1B1FA81F101F057
:100E10001F0105FA01F21042D2D02EE0FFF736FB97
:100E2000824609E0FFF732FBA0EB0A0141F288306D
:100E3000814201D90320CCE597FAA7F0B0FA80F0FF
:100E400040F04000B5EB501F01D130680BE097FA3D
:100E5000A7F0B0FA80F040F04000B7EB501F01D18E
:100E6000306A00E0706A97FAA7F1B1FA81F101F0F7
:100E70001F0105FA01F21042D4D1B9F1010F03D1DB
:100E8000F06920F08050F061E06980B37168C1F3CF
:100E90008101022977D04FF080794FF00077022846
:100EA00009D099FAA9F0B0FA80F048F820B0FFF71D
:100EB000EDFA04465DE099FAA9F0B0FA80F048F83E
:100EC00020B0FFF7E3FA824607E0FFF7DFFAA0EB76
:100ED0000A00022801D903207BE597FAA7F0B0FAAF
:100EE00080F040F02000400902D0306801E068E066
:100EF000706A97FAA7F1B1FA81F101F01F0105FAC2
:100F000001F10842E1D1D4E908100843716821F4E5
:100F100074110843706099FAA9F0B0FA80F048F8AB
:100F20002050FFF7B3FA044606E0FFF7AFFA001BC4
:100F3000022801D903204CE597FAA7F0B0FA80F017
:100F400040F02000400901D0316800E0716A97FA52
:100F5000A7F0B0FA80F000F01F0005FA00F001429F
:100F6000E3D02EE0FFF792FA001B022801D90320FC
:100F70002FE597FAA7F0B0FA80F040F02000400982
:100F800002D0316801E00BE0716A97FAA7F0B0FA7D
:100F900080F000F01F0005FA00F00142E2D110E0FD
:100FA00001280CD07068226A00F48031914204D18B
:100FB000616A00F47010884203D0012009E5012025
:100FC00007E5002005E570B50446002C09D0606AED
:100FD000002540B125616561A56294F85D0040B1CE
:100FE0000CE0012070BD6068B0F5827FF4D0E5614F
:100FF000F2E784F85C50204600F056F8022084F8AE
:101000005D002068016821F040010160E1684FF453
:10101000E062914201D9002001E04FF48050B1F527
:10102000706F02D0914200D0A562A188228901F49C
:10103000827102F404421143227C02F00202114345
:10104000227D02F001021143228B02F4007211434F
:10105000227F02F03802114394F8202002F080022F
:101060001143228D02F40052114322681160A169DC
:10107000042202EA114194F8242000F4805002F086
:101080001002114394F8342002F008021143A2899F
:1010900002F470621143014320684160256601201B
:1010A00084F85D00002070BD10B586B004461421A0
:1010B00001A8FFF7CDF81349206888421FD11248D4
:1010C000816941F480518161816901F4805100910D
:1010D000416941F400314161406900F40030009001
:1010E000E020019002200290002003900320049051
:1010F0000520059001A94FF09040FFF7FDF806B0DC
:1011000010BD000000300140001002402DE9F84FF2
:1011100004468B4692461D46002694F85C00012842
:101120000DD04FF0010984F85C90FFF7AFF9074646
:1011300094F85D00B046012804D00226BEE00220EB
:10114000BDE8F88FBBF1000F1CD05FEA0A0019D090
:10115000032084F85D00C4F86080C4F838B0A4F8B7
:101160003CA0A4F83EA0C4F84080A4F84480A4F8B1
:101170004680C4F85080C4F84C80A068B0F5004F99
:1011800002D00BE0012699E02068016821F04001BF
:1011900001602068016841F48041016020680168B5
:1011A000490603D4016841F040010160E068B0F5F0
:1011B000E06F2BD9606810B1BAF1010F20D1A06B9C
:1011C00021680088C860A06B801CA063E08F401E6F
:1011D000E08715E020688168890709D5A16B098837
:1011E000C160A06B801CA063E08F401EE08707E019
:1011F000FFF74CF9C01BA84201D3681C04D11DB1F4
:10120000E08F0028E6D145E0032657E0606810B182
:10121000BAF1010F3BD1E08F01280AD9A06B2168F8
:101220000088C860A06B801CA063E08F801EE087F0
:101230002DE0A06B216800780873A06B401CA063B0
:10124000E08F401EE08722E020688168890716D57C
:10125000E18F012909D9A16B0988C160A06B801CAD
:10126000A063E08F801EE08711E0A16B0978017315
:10127000A06B401CA063E08F401EE08707E0FFF7F3
:1012800005F9C01BA84201D3681C0ED16DB1E08FD7
:101290000028D9D13A462946204600F020FC08B162
:1012A00020202066A06810B105E0032606E0206833
:1012B000C16880680090206E00B1012684F85D90BE
:1012C00084F85C8030463BE72DE9F05F04460A9ED7
:1012D0008A4693461F4601254FF0000894F85C00AB
:1012E00001280ED0012084F85C00FFF7CFF881467A
:1012F00094F85D00616801280DD0B1F5827F07D1B7
:1013000002E00220BDE8F09FA16809B9042802D0DC
:101310004FF0020804E1BAF1000F26D0BBF1000F34
:1013200023D0380021D094F85D00042802D0052095
:1013300084F85D0000202066C4F840B0A4F8467030
:10134000A4F84470C4F838A0E787A787E064206554
:10135000E0684FF4E061884201D8012F08D9206885
:10136000426822F48052426007E04FF00108D7E063
:101370002068426842F48052426020680268520647
:1013800003D4026842F040020260E068884246D915
:10139000606808B1012F3AD1A06B21680088C8604D
:1013A000A06B801CA063E08F401EE0872FE02068C8
:1013B000816889070DD5E18F59B1012D09D1A16B44
:1013C0000988C160A06B801CA063E08F401EE0878D
:1013D000002520688168C9070ED0B4F8461059B1BD
:1013E000C068216C0880206C801C2064B4F8460022
:1013F000401EA4F846000125FFF748F8A0EB0900BD
:10140000B04204D3701C02D04FF0030888E0E08F94
:101410000028CCD1B4F846000028C8D176E0606836
:1014200008B1012F6BD1E08F01280AD9A06B216888
:101430000088C860A06B801CA063E08F801EE087DE
:101440005DE0A06B216800780873A06B401CA0636E
:10145000E08F401EE08752E02068816889071AD536
:10146000E18FC1B1012D16D1E18F012909D9A16BFD
:101470000988C160A06B801CA063E08F801EE0879C
:1014800008E0A16B09780173A06B401CA063E08F9A
:10149000401EE087002520688168C90726D0B4F87F
:1014A000461019B3B4F84610012913D9C06854F88E
:1014B000401F08802068801C2060E088801EE0803B
:1014C000E088403C012810D82068416841F48051F0
:1014D00041600AE0007B216C0870206C401C206495
:1014E000B4F84600401EA4F846000125FEF7CEFFE2
:1014F000A0EB0900B04201D3701C18D1BEB1E08F3F
:101500000028A9D1B4F846000028A5D14A463146A2
:10151000204600F0E4FA18B14FF0010820202066C0
:1015200001205C346070002020704046EAE64FF0F5
:101530000308F5E710B5401EB0F1807F01D301200C
:1015400010BD4FF0E02460610F21601700F0A1FD95
:101550000020A06107202061002010BD10B50446C6
:10156000002C02D0A06F10B107E0012010BD0020B8
:1015700084F87400204600F027F82420A067206833
:10158000016821F001010160204600F077FC01288C
:1015900018D0606A10B1204600F0DCFB206841687A
:1015A00021F4904141602068816821F02A01816026
:1015B0002068016841F0010101602046BDE810404B
:1015C00000F02CBC012010BD10B586B004461421DB
:1015D00001A8FEF73DFE13492068884220D1124839
:1015E000816941F480418161816901F48041009108
:1015F000416941F400314161406900F400300090DC
:101600004FF4C0600190022002900020039003205C
:1016100004900720059001A94FF09040FEF76CFE62
:1016200006B010BD0038014000100240FEE7000087
:1016300070B586B0142101A8FEF70AFE1E48416964
:1016400041F480014161416901F4800100914169E7
:1016500041F400314161416901F400310091416977
:1016600041F480214161406900F4802000904FF0F6
:10167000904600221C213046FEF701FF0220019017
:10168000002402940125039501A93046FEF734FE9B
:101690001C20019002950394049401A93046FEF7A2
:1016A0002BFE280201900294039401A93046FEF714
:1016B00023FE06B070BD00000010024010B51248B5
:1016C000104901604FF482714160002181604FF444
:1016D000E062C260016141614FF4007282612022C8
:1016E000C2610162416281620722C2620163082114
:1016F0004163FFF768FC002803D0BDE81040FEF707
:10170000E7BD10BD003001407C00002010B50D4841
:101710000B4901604FF41641416000218160C160B6
:1017200001610C2242618161C16101624162FFF786
:1017300015FF002803D0BDE81040FEF7C9BD10BD5D
:1017400000380140E0000020FEE7704710B500209F
:1017500000F0A8F840F00301002000F025F9012274
:1017600008214FF09040FEF78AFE9620FEF79EFD7E
:1017700000F058F8BDE8104000F074B810B5044609
:10178000204600F03BF8002000F08CF840F002000A
:1017900020F00101002000F007F99620FEF786FDF9
:1017A00005222146A02000F0D1F84FF090440122FC
:1017B00008212046FEF763FE0F20FEF777FD00228A
:1017C00008212046FEF75BFE072000F06BF881063B
:1017D00004D52021072000F0E7F807E0C00605D572
:1017E0001021072000F0E0F800F03CF8082000F09D
:1017F00059F80446FFF7AAFF204610BD10B5032292
:101800000749102000F0F4F8002208214FF0904022
:10181000FEF735FE00F006F8BDE8104000F022B8F3
:101820000000002038B50DA0006800904FF09044F3
:10183000002210212046FEF722FE4FF47A73012287
:1018400069460748FFF762FC0120FEF72FFD0122E1
:1018500010212046FEF713FE38BD0000E200000014
:101860007C00002038B50DA0006800904FF0904437
:10187000002210212046FEF702FE4FF47A73012267
:1018800069460748FFF742FC0120FEF70FFD0122E1
:1018900010212046FEF7F3FD38BD0000E1000000F6
:1018A0007C00002031B584B0002003904FF09045BB
:1018B000002210212846FEF7E2FD4FF47A7401233E
:1018C00003AA04A90C480094FFF7FEFC9DF8101031
:1018D000072908D0FF210291012303AA02A9064883
:1018E0000094FFF7F1FC012210212846FEF7C7FD06
:1018F0009DF80C0005B030BD7C00002038B511A06B
:10190000006800904FF09044002210212046FEF71E
:10191000B6FD4FF47A752B46012269460A48FFF757
:10192000F5FB0120FEF7C2FC732100912B4601223A
:1019300069460548FFF7EAFB012210212046FEF721
:101940009EFD38BD500000007C000020F7B50E461B
:1019500017464FF09044002208212046FEF78FFDE5
:10196000002210212046FEF78AFD4FF47A752B469F
:10197000012269460B48FFF7C9FB0120FEF796FCE0
:101980002B463A4631460748FFF7C0FB012210219B
:101990002046FEF774FD012208212046FEF76FFD68
:1019A000FEBD00007C00002073B59DF8000040F0F3
:1019B000200000904FF09044002210212046FEF7B6
:1019C0005EFD4FF47A752B46012269460748FFF702
:1019D0009DFB2B46012201A90448FFF797FB01223A
:1019E00010212046FEF74BFD7CBD00007C0000204E
:1019F000F7B50E4617469DF8000040F02000009015
:101A00004FF09044002210212046FEF738FD4FF49D
:101A10007A752B46012269460848FFF777FB0120BB
:101A2000FEF744FC2B463A4631460448FFF76EFB6E
:101A3000012210212046FEF722FDFEBD7C00002081
:101A400010B5002208214FF09040FEF718FD41F23A
:101A500088342046FEF72AFC0A210020FFF7A4FF65
:101A60002046FEF723FC01210846FFF79DFF0121D8
:101A70000220FFF799FF01210320FFF795FF5F2167
:101A80000420FFF791FFFFF739FF00211D20FFF72A
:101A90008BFF00211C20FFF787FF70210720FFF735
:101AA00083FF4C210520FFF77FFF00210620FFF771
:101AB0007BFF032208491020FFF79AFF0322064903
:101AC0000A20FFF795FF05211120FFF76DFFBDE804
:101AD0001040FFF73BBE0000000000207047F8B543
:101AE00004460E461546334600224FF4C0512046A8
:101AF000009500F027F828B1206E40F02000206605
:101B00000320F8BD3346002280212046009500F0D6
:101B10007DF828B1206E40F0200020660320F8BD3B
:101B2000334600224FF4C0612046009500F00AF8C9
:101B300028B1206E40F0200020660320F8BD002070
:101B4000F8BD00002DE9F84F04460E4617469846AA
:101B50000A9DFEF79BFC401BA8EB0005FEF796FCD8
:101B6000814629480068C0EBC00000EB8000000DF2
:101B7000684300904FF4C06A3FE0564501D107B971
:101B8000007BB8F1FF3F38D0FEF780FCA0EB0900E6
:101B9000A84203D215B1009858B32BE020684168E1
:101BA00021F0E00141606068B0F5827F0BD1A06850
:101BB000B0F5004F02D0B0F5806F04D12068016805
:101BC00021F040010160A06AB0F5005F09D12068F2
:101BD000016821F4005101602068016841F400515E
:101BE000016001205C346070002020700320BDE89B
:101BF000F88F00250098401E0090206881683140D1
:101C0000B942BAD10020F2E7140000202DE9F843D0
:101C100004460F4691461E46089DFEF737FC401BC2
:101C2000351AFEF733FC804626480068C0F3CB30F7
:101C3000684300903AE0701C38D0FEF727FCA0EB18
:101C40000800A84203D215B1009858B32BE02068D1
:101C5000416821F0E00141606068B0F5827F0BD1FE
:101C6000A068B0F5004F02D0B0F5806F04D12068B5
:101C7000016821F040010160A06AB0F5005F09D160
:101C80002068016821F4005101602068016841F476
:101C90000051016001205C3460700020207003203E
:101CA000BDE8F88300250098401E009020688068F9
:101CB00037EA000004D000204845BCD10020EFE7FF
:101CC0000120F9E7140000207047FEF7E5BB70B56E
:101CD00096B028210CA8FEF7BBFA142107A8FEF73E
:101CE000B7FA182101A8FEF7B3FA01250C952804CC
:101CF0000D9000240E9410950226139614904FF424
:101D0000E01015900CA8FEF74BFE08B1FEF7E0FAC4
:101D10000F200790089609944FF480600A900B9466
:101D2000022107A8FEF7F8FC08B1FEF7D1FA0195E9
:101D3000039401A8FEF734FC002801D0FEF7C8FA8E
:101D400016B070BD0248016841F47001016070472F
:101D500088ED00E090F82410C90706D001684A68B1
:101D6000836A22F400321A434A6090F824108907EB
:101D700006D501684A68C36A22F480321A434A6071
:101D800090F82410490706D501684A68036B22F4CD
:101D900080221A434A6090F82410090706D501688A
:101DA0004A68436B22F400421A434A6090F82410B8
:101DB000C90606D501688A68836B22F480521A43EB
:101DC0008A6090F82410890606D501688A68C36B7A
:101DD00022F400521A438A6090F82410490611D563
:101DE00001684A68036C22F480121A434A60016C4D
:101DF000B1F5801F06D101684A68436C22F4C00225
:101E00001A434A6090F82410090606D501684A680A
:101E1000806C22F4002202434A607047F8B5044601
:101E20000025C4F88050FEF731FB074620680068A3
:101E30006FF07E4600070AD53B4600224FF40011A2
:101E40002046009600F0D0F808B10320F8BD2068C5
:101E5000006840070AD53B4600224FF48001204627
:101E6000009600F0C1F808B10320F8BD2020A0675B
:101E7000E067256684F874500020F8BD70B504460C
:101E80000025A1682069E2690143606910430143AC
:101E9000206802684E4B1A400A430260206841687D
:101EA000E26821F4405111434160A069216A014375
:101EB0002068826822F430620A43826045492068C3
:101EC000884214D14448006B10F0030007D0012869
:101ED00009D0022809D0032803D0102012E00020E6
:101EE00010E002200EE004200CE008200AE03B494C
:101EF000884201D1002005E03949884201D1002003
:101F000000E01020E3694FF40041364A4FF6EF76C7
:101F10008B422FD1092814D2DFE800F005090D13F8
:101F20000F1313131500FEF7D9FC01460BE0FEF763
:101F3000EBFC014607E0114605E0FEF7FBFC01461D
:101F400001E000210125D9B36068490001EB50018F
:101F5000B1FBF0F080B2A0F11001B14208D84FF609
:101F6000F0710140C0F3420001432068C16029E0E4
:101F7000012527E0092814D2DFE800F005090D1338
:101F80000F1313131500FEF7A9FC01460BE0FEF733
:101F9000BBFC014607E0114605E0FEF7CBFC01461D
:101FA00001E00021012559B1606801EB5001B1FB4E
:101FB000F0F080B2A0F11001B14202D82168C860EF
:101FC00000E0012500206066A066284670BD000084
:101FD000F369FFEF00380140001002400044004068
:101FE0000048004000127A002DE9F0470446089DA1
:101FF0000E46174698464FF0000A4FF020093BE086
:10200000681C39D0FEF742FAA0EB0800A84221D89C
:1020100005B32068016849072ED5C069C043000593
:102020002AD421684FF4006008622068016821F416
:10203000D07101602068816821F001018160C4F8DD
:102040007890C4F87C90C4F8809084F874A0032041
:10205000BDE8F0872068016821F4D0710160206834
:10206000816821F001018160C4F87890C4F87C9007
:1020700084F874A00320EBE72068C06936EA00000A
:1020800004D00020B842BBD00020E1E70120F9E7EE
:10209000FEE70907090E002804DB00F1E02080F8C4
:1020A0000014704700F00F0000F1E02080F8141DCC
:1020B000704702E008C8121F08C1002AFAD1704711
:1020C0007047002001E001C1121F002AFBD17047B8
:1020D0001CB56F20019040F29A200090FEF7E4F9C1
:1020E000FFF7F5FDFFF7A4FAFFF7E8FAFFF70EFB9D
:1020F000FFF7A6FCC820FEF7EDF80C4C4FF090451A
:102100003C20FEF7E7F802212846FEF7B1F930B18E
:10211000BDF8000020800548FFF730FBF0E7BDF870
:10212000040020800148FFF729FBE9E718000020A0
:1021300002030405060708090A0B0C0D0E0F101008
:102140000102030405060708090A0B0C0D0E0F1007
:102150000000000000000000010203040607080957
:102160000000000001020304882100080000002094
:1021700018000000B2200008A0210008180000206C
:1021800050050000C2200008B3B4010000000000A8
:1021900001000000100000000000000000127A00A2
:040000050800018965
:00000001FF
