:020000040800F2
:10000000B80800209D010008131C0008D919000839
:10001000111C0008CD020008452600080000000061
:10002000000000000000000000000000992100080E
:10003000CF02000800000000311F00089B210008CB
:10004000B7010008B7010008B7010008B7010008B0
:10005000B7010008B7010008B7010008B7010008A0
:10006000B7010008B7010008B7010008B701000890
:10007000B7010008B7010008B7010008B701000880
:10008000B7010008B7010008B7010008B701000870
:10009000B7010008B7010008B7010008B701000860
:1000A000B7010008B7010008B7010008B701000850
:1000B000B7010008B7010008B7010008B701000840
:1000C000B7010008B7010008B7010008B701000830
:1000D000B7010008B7010008B7010008B701000820
:1000E000B7010008B7010008B7010008B701000810
:1000F000B7010008B7010008B7010008B701000800
:10010000000000000000000000000000B70100082F
:10011000B7010008B7010008B7010008B7010008DF
:10012000B7010008B7010008B7010008B7010008CF
:10013000B7010008B701000800000000000000003F
:10014000B7010008B7010008B7010008000000006F
:10015000000000000000000000000000000000009F
:100160000000000000000000B7010008B70100080F
:10017000B7010008000000000000000000000000BF
:1001800000000000B7010008DFF80CD000F08CF888
:10019000004800471D2B0008B8080020064880478B
:1001A00006480047FEE7FEE7FEE7FEE7FEE7FEE75C
:1001B000FEE7FEE7FEE7FEE72522000889010008CA
:1001C0002DE9F05F0546002092469B46884606468C
:1001D000814640241BE0284641464746224600F01F
:1001E00020F853465A46C01A914110D3114618467A
:1001F000224600F04AF82D1A67EB01084F462246C6
:100200000120002100F041F817EB00094E41201EAB
:10021000A4F10104DFDC484631462A464346BDE8E6
:10022000F09F202A04DB203A21FA02F000217047D7
:1002300021FA02F3D040C2F120029140084319464E
:10024000704740EA01039B0703D009E008C9121F69
:1002500008C0042AFAD203E011F8013B00F8013B80
:10026000521EF9D27047D2B201E000F8012B491EAC
:10027000FBD270470022F6E710B513460A46044643
:100280001946FFF7F0FF204610BD202A04DB203A74
:1002900000FA02F1002070479140C2F1200320FAD9
:1002A00003F3194390407047064C074D06E0E068A1
:1002B00040F0010394E8070098471034AC42F6D3AD
:1002C000FFF766FF282C0008482C0008FEE770475F
:1002D00001B5064806490068B0FBF1F000994843B3
:1002E00000900098411E0091FBD208BD1400002030
:1002F000405489007047000070B5044600F0DEF8F5
:100300000546601C02D004480078044400F0D6F88A
:10031000401BA042FAD370BD080000202DE9F84F21
:100320000022DFF860A14FF003084FF00F090AF137
:10033000040BA0E0012595402B40002B71D04C68A8
:10034000012C05D0022C03D0112C01D0122C10D17D
:100350008668540008FA04F7BE43CF68A7403743C5
:1003600087604468AC430D79C5F30015954025437B
:100370004560C468570008FA07F5AC438E68BE4074
:100380002643C6604C68022C01D0122C12D1D4082E
:1003900000EB840CDCF820605407E40E09FA04FE3C
:1003A00026EA0E06D1F810E00EFA04FE4EEA060E1A
:1003B000CCF820E00468AC430D7905F00305BD409E
:1003C000254305604C68E40054D52F4CA56945F0E1
:1003D0000105A561A46904F0010400942B4C22F0EE
:1003E00003052E19B7689407250F09FA05F4A743EA
:1003F000B0F1904F04D0264CA04203D1012412E06A
:10040000002410E0234CA04201D102240BE0224C36
:10041000A04201D1032406E0204CA04202D10424D2
:1004200001E027E00524AC403C43B460DAF800402A
:100430009C434D68ED0300D51C43CAF80040DBF82F
:1004400000409C434D68AD0300D51C43CBF80040F1
:100450000C4D08352C689C434E68F60200D51C43B1
:100460002C60084D0C352C689C434E68B60200D5B4
:100470001C432C60521C0B6833FA02F47FF45AAF11
:10048000BDE8F88F00040140001002400000014068
:100490000004004800080048000C00480010004814
:1004A000426921EA02030A4043EA0241816170473E
:1004B000002A01D0816170478162704701488068DD
:1004C000704700000800002002488168027811444B
:1004D000816070470800002010B50748016841F0AE
:1004E00010010160032000F061F8002000F006F820
:1004F00000F026F8002010BD0020024070B5044630
:100500000D4D4FF47A712878B1FBF0F00B49096872
:10051000B1FBF0F001F0E3F908B1012070BD102C3F
:1005200007D200222146501E00F020F86C60002007
:1005300070BD012070BD00000800002014000020E4
:1005400008B50948816941F001018161816901F0C3
:1005500001010091C16941F08051C161C06900F0A1
:100560008050009008BD000000100240F0B40D461D
:100570000D4B1B68C3F30223C3F10704042C00D9FD
:100580000424191D072901D2002300E0DB1E0126E7
:1005900006FA04F1491E294099409E40761E1640F5
:1005A0003143F0BC02F064B80CED00E000F007014C
:1005B000054A10684FF6FF03184040EA012003493E
:1005C00008431060704700000CED00E00000FA05E1
:1005D00070B586B00446002C04D094F8A90200251A
:1005E00018B107E0012006B070BD84F8A85220467B
:1005F00000F03EF8032084F8A902206802F01BF8FE
:10060000002101260DE001EB810004EBC000283041
:1006100046700170C181C570056145618561491CE5
:10062000C9B260688842EED800210DE001EB81007C
:1006300004EBC00000F5B47045700170C570056131
:1006400045618561491CC9B260688842EED81422B0
:1006500004F110016846FFF7F4FD94E80F0001F083
:10066000E1FF84F8245084F8A9620020BBE7000071
:1006700010B586B00446142101A8FFF7FBFD13490D
:100680002068884220D1124C606940F400306061DB
:10069000606900F4003000904FF4C05001900220D7
:1006A000029000200390032004900E20059001A9E1
:1006B0004FF09040FFF732FEE06940F40000E06147
:1006C000E06900F40000009006B010BD005C00403E
:1006D000001002402DE9F84F044600262068804DA6
:1006E000C0036FD5E869C00008D4E86940F08050C5
:1006F000E861E86900F0805000900126794F386881
:10070000C00513D4386840F480703860FFF7D6FE17
:10071000804608E0FFF7D2FEA0EB0800642802D96B
:100720000320BDE8F88F3868C005F3D5286A00F4C7
:10073000407078B3A18801F4407181424DD0286A9D
:1007400020F440704FF4803191FAA1F2B2FA82F2B3
:100750009300654A4FF001081344C3F8008491FAEE
:10076000A1F1B1FA81F102EB81010023C1F800345B
:100770002862C00731D0FFF7A1FE074641F2883A50
:100780004FF0020907E0FFF799FEC01B504502D960
:100790000320C6E721E099FAA9F0B0FA80F040F012
:1007A00040004146B8EB501F01D128680CE099FA8F
:1007B000A9F0B0FA80F040F04000B9EB501F02D130
:1007C000286A01E015E0686A99FAA9F2B2FA82F2A1
:1007D00002F01F0291400842D5D0286A616820F4D7
:1007E000407008432862012E03D1E86920F0805050
:1007F000E8612078C00705D0286BA16820F00300CD
:10080000084328632078800705D5286BE16820F429
:100810004030084328632078400705D5286B2169BC
:1008200020F44020084328632078800605D5286BF3
:10083000E16920F01000084328632068800305D593
:100840006868A16B20F48000084368602078400647
:1008500005D5286B216A20F0200008432863207802
:10086000000705D5286B616920F440100843286310
:100870002078C00605D5286BA16920F44000084304
:1008800028632088800505D56868E16A20F40000A7
:10089000084368602078000605D5E86A616A20F49C
:1008A000F8700843E8622088C00505D5E86AA16AA7
:1008B00020F478500843E8622088C00405D5286BEE
:1008C000216B20F48070084328632088800405D5BC
:1008D000286B616B20F4007008432863002020E738
:1008E0000010024000700040000042422DE9F04735
:1008F00004460D46002C17D0DFF89481D8F800008C
:1009000000F00700A84211D2D8F8000020F007003C
:100910002843C8F80000D8F8000000F00700A842FB
:1009200004D00120BDE8F0870120FBE72078594E74
:10093000800705D57068A16820F0F000084370605A
:100940002078C00765D06068012201280CD00228F9
:1009500022D0022393FAA3F1B1FA81F141F02001F0
:10096000490931D0316830E04FF4003393FAA3F1F4
:10097000B1FA81F141F02001490901D0316800E06C
:10098000716A93FAA3F3B3FA83F303F01F039A4057
:10099000114225D10120C5E74FF0007393FAA3F16E
:1009A000B1FA81F141F02001490901D0316800E03C
:1009B000716A93FAA3F3B3FA83F303F01F039A4027
:1009C00011420DD10120ADE7716A93FAA3F3B3FA96
:1009D00083F303F01F039A40114201D10120A1E7E4
:1009E000716821F0030101437160FFF767FD07465D
:1009F00041F2883906E0FFF761FDC01B484501D987
:100A000003208FE77068616800F00C00B0EB810F85
:100A1000F1D1D8F8000000F00700A8420ED9D8F8AC
:100A2000000020F007002843C8F80000D8F80000B4
:100A300000F00700A84201D0012073E720784007AA
:100A400005D57068E16820F4E060084370602078A4
:100A5000000706D57068216920F4605040EAC100A3
:100A6000706000F051F87168F02292FAA2F201F081
:100A7000F001B2FA82F2D140074A515CC8400749FE
:100A8000086007480068FFF739FD00204AE70000CA
:100A90000020024000100240102C0008140000202A
:100AA0000C0000200148006870470000140000207E
:100AB00000B5FFF7F7FF074949684FF4E06292FA83
:100AC000A2F201F4E061B2FA82F2D140024A515C32
:100AD000C84000BD00100240202C000800B5FFF700
:100AE000E1FF074949684FF4605292FAA2F201F41B
:100AF0006051B2FA82F2D140024A515CC84000BD56
:100B000000100240202C000810B5164B59681648FA
:100B100001F00C02042A20D0082A1ED14FF47014D0
:100B200094FAA4F401F47012B4FA84F4E2400F4C85
:100B3000A45CDA6A0F2393FAA3F302F00F02B3FA6C
:100B400083F3DA40094B10339A5CC90306D50023BE
:100B50001946FFF735FBA0FB040110BD0448A4FBB8
:100B6000000110BD0010024000127A00F02B0008B6
:100B700000093D002DE9F84F0446002C12D02078E2
:100B8000F84EC0074FF001055ED070684FF4003892
:100B9000C0F3810001280BD07068C0F381000228E7
:100BA00003D01EE00120BDE8F88F7068C00318D59F
:100BB00098FAA8F0B0FA80F040F02000400901D087
:100BC000306800E0706A98FAA8F1B1FA81F101F09A
:100BD0001F0105FA01F1084275D06068A0BB012031
:100BE000E1E76068B0F5803F17D0D8B1B0F5A02F2D
:100BF00021D0306820F480303060306820F48020CC
:100C00003060F06AA16820F00F000843F06260686D
:100C1000C0B3FFF753FC07461EE0306840F4803055
:100C20003060EEE7306820F480303060306820F4C7
:100C300080203060E5E7306840F480203060306824
:100C400040F480303060DCE73DE0FFF737FCC01B4C
:100C5000642801D90320A6E798FAA8F0B0FA80F03A
:100C600040F02000400901D0306800E0706A98FA36
:100C7000A8F1B1FA81F101F01F0105FA01F1084272
:100C8000E3D020E0FFE7FFF719FC074606E0FFF797
:100C900015FCC01B642801D9032084E798FAA8F04A
:100CA000B0FA80F040F02000400901D0306800E048
:100CB000706A98FAA8F1B1FA81F101F01F0105FA02
:100CC00001F10842E3D12078DFF89C8280074FF0E1
:100CD000000B4FF0020732D570684FF0F80A10F0A1
:100CE0000C0F07D07068C0F38100022828D170680B
:100CF000C00325D497FAA7F0B0FA80F040F02000A6
:100D0000400901D0306800E0706A97FAA7F1B1FAA3
:100D100081F101F01F0105FA01F1084204D02069B8
:100D2000012801D001203EE730689AFAAAF26169F1
:100D3000B2FA82F220F0F8009140084330605CE0A3
:100D4000206990B395FAA5F0B0FA80F048F82050E9
:100D5000FFF7B4FB814607E0FFF7B0FBA0EB09000B
:100D6000022801D903201EE797FAA7F0B0FA80F015
:100D700040F02000400901D0306800E0706A97FA26
:100D8000A7F1B1FA81F101F01F0105FA01F1084262
:100D9000E2D030689AFAAAF26169B2FA82F220F0DF
:100DA000F80091400843306027E0FFE795FAA5F08E
:100DB000B0FA80F048F820B0FFF780FB814607E0EA
:100DC000FFF77CFBA0EB0900022801D90320EAE62B
:100DD00097FAA7F0B0FA80F040F02000400901D067
:100DE000306800E0706A97FAA7F1B1FA81F101F07A
:100DF0001F0105FA01F10842E2D1207800076DD504
:100E0000A069A8B395FAA5F0B0FA80F008EB8000CD
:100E1000C0F88054FFF752FB814607E0FFF74EFB16
:100E2000A0EB0900022801D90320BCE697FAA7F03D
:100E3000B0FA80F040F06000B5EB501F01D130688F
:100E40000BE097FAA7F0B0FA80F040F06000B7EB43
:100E5000501F01D1306A00E0706A97FAA7F1B1FA29
:100E600081F101F01F0205FA02F10842D6D035E007
:100E7000FFE795FAA5F0B0FA80F008EB8000C0F823
:100E800080B4FFF71BFB814607E0FFF717FBA0EBE1
:100E90000900022801D9032085E697FAA7F0B0FAE5
:100EA00080F040F06000B5EB501F01D130680BE0DE
:100EB00097FAA7F0B0FA80F040F06000B7EB501F4F
:100EC00001D1306A00E0706A97FAA7F1B1FA81F1B6
:100ED00001F01F0205FA02F10842D6D1207840073E
:100EE0006ED54FF00009F069C00009D4F06940F0F8
:100EF0008050F061F06900F0805000904FF00109DF
:100F00001A480168C90513D4016841F48071016071
:100F1000FFF7D4FA824607E0FFF7D0FAA0EB0A0009
:100F2000642801D903203EE610480068C005F3D5C7
:100F3000E068012810D0D8B1052822D0306A20F00E
:100F400001003062306A20F004003062E068B0B323
:100F5000FFF7B4FA824627E0306A40F001003062C1
:100F6000F4E7000000100240000042420070004020
:100F7000306A20F001003062306A20F004003062F4
:100F8000E4E7306A40F004003062306A40F001006B
:100F90003062DBE7FFF792FAA0EB0A0141F28830FA
:100FA000814201D90320FEE597FAA7F0B0FA80F05C
:100FB00040F04000B5EB501F03D130680DE017E062
:100FC0004CE097FAA7F0B0FA80F040F04000B7EBA1
:100FD000501F01D1306A00E0706A97FAA7F1B1FAA8
:100FE00081F101F01F0105FA01F21042D2D02EE08A
:100FF000FFF764FA824609E0FFF760FAA0EB0A0106
:1010000041F28830814201D90320CCE597FAA7F05C
:10101000B0FA80F040F04000B5EB501F01D13068CD
:101020000BE097FAA7F0B0FA80F040F04000B7EB81
:10103000501F01D1306A00E0706A97FAA7F1B1FA47
:1010400081F101F01F0105FA01F21042D4D1B9F18A
:10105000010F03D1F06920F08050F061E06980B3A6
:101060007168C1F38101022977D04FF080794FF088
:101070000077022809D099FAA9F0B0FA80F048F870
:1010800020B0FFF71BFA04465DE099FAA9F0B0FA28
:1010900080F048F820B0FFF711FA824607E0FFF72A
:1010A0000DFAA0EB0A00022801D903207BE597FA8C
:1010B000A7F0B0FA80F040F02000400902D030687C
:1010C00001E068E0706A97FAA7F1B1FA81F101F0E6
:1010D0001F0105FA01F10842E1D1D4E908100843E3
:1010E000716821F474110843706099FAA9F0B0FA9C
:1010F00080F048F82050FFF7E1F9044606E0FFF7DA
:10110000DDF9001B022801D903204CE597FAA7F06E
:10111000B0FA80F040F02000400901D0316800E0D2
:10112000716A97FAA7F0B0FA80F000F01F0005FA94
:1011300000F00142E3D02EE0FFF7C0F9001B0228C7
:1011400001D903202FE597FAA7F0B0FA80F040F01C
:101150002000400902D0316801E00BE0716A97FA83
:10116000A7F0B0FA80F000F01F0005FA00F001428D
:10117000E2D110E001280CD07068226A00F48031BE
:10118000914204D1616A00F47010884203D00120BA
:1011900009E5012007E5002005E570B50446002CAF
:1011A00009D0606A002540B125616561A56294F8A7
:1011B0005D0040B10CE0012070BD6068B0F5827F39
:1011C000F4D0E561F2E784F85C50204600F05CF86A
:1011D000022084F85D002068016821F04001016070
:1011E000E1684FF4E062914201D9002001E04FF440
:1011F0008050B1F5706F02D0914200D0A562A188F5
:10120000228901F4827102F404421143227C02F02B
:1012100002021143227D02F001021143228B02F4EB
:1012200000721143227F02F03802114394F820200B
:1012300002F080021143228D02F400521143226811
:101240001160A169042202EA114194F8242000F4FB
:10125000805002F01002114394F8342002F008028A
:101260001143A28902F47062114301432068416076
:101270002068C16921F40061C1612566012084F8FC
:101280005D00002070BD000070B586B004461421DA
:1012900001A8FEF7EFFF224E216800222148022319
:1012A00003240525B1421CD1816941F4805181613B
:1012B000816901F480510091416941F4003141613B
:1012C000406900F400300090E02001900293039206
:1012D0000494059501A94FF09040FFF71FF806B060
:1012E00070BD114EB142FAD1C16941F48041C16172
:1012F000C16901F480410091416941F4802141615B
:10130000406900F480200090B000019002930392A5
:101310000494059501A90548FFF700F8DFE70000F0
:101320000030014000100240003800400004004836
:101330002DE9F84F04468A4691461D46002660680E
:101340004FF0040BB0F5827F01D1A06888B194F80A
:101350005C00012818D0012084F85C00FFF7AEF88B
:10136000074694F85D004FF0000801280ED00226D1
:1013700098E084F85DB04B465246514620460095B1
:1013800000F077F9BDE8F88F0220FBE7BAF1000F13
:1013900021D0B9F1000F1ED084F85DB0C4F8608090
:1013A000C4F840A0A4F84490A4F84690C4F838804B
:1013B000A4F83C80A4F83E80C4F84C80C4F8508067
:1013C000E0684FF4E061884207D92068426822F45F
:1013D0008052426006E0012664E02068426842F4E0
:1013E00080524260A068B0F5004F09D120680268C1
:1013F00022F0400202602068026822F4804202600B
:1014000020680268520603D4026842F0400202607B
:10141000E068884218D936E020688168C9070BD097
:10142000007B216C0870206C401C2064B4F84600DE
:10143000401EA4F8460007E0FFF740F8C01BA84292
:1014400001D3681C05D125B1B4F846000028E3D1CA
:101450001DE0032626E020688168C9070BD0C0681C
:10146000216C0880206C801C2064B4F84600401E6B
:10147000A4F8460007E0FFF721F8C01BA84201D3FB
:10148000681C16D1ADB1B4F846000028E3D13A4645
:101490002946204600F04DFD08B120202066206E30
:1014A00000B10126012084F85D0084F85C8030469C
:1014B00068E70326F6E72DE9F84F04468B46924687
:1014C0001D46002694F85C0001280DD04FF001095C
:1014D00084F85C90FEF7F2FF074694F85D00B04692
:1014E000012804D00226BEE00220BDE8F88FBBF13F
:1014F000000F1CD05FEA0A0019D0032084F85D00B9
:10150000C4F86080C4F838B0A4F83CA0A4F83EA0A9
:10151000C4F84080A4F84480A4F84680C4F8508001
:10152000C4F84C80A068B0F5004F02D00BE0012653
:1015300099E02068016821F040010160206801689D
:1015400041F48041016020680168490603D40168C4
:1015500041F040010160E068B0F5E06F2BD96068B0
:1015600010B1BAF1010F20D1A06B21680088C860CA
:10157000A06B801CA063E08F401EE08715E0206810
:101580008168890709D5A16B0988C160A06B801C9F
:10159000A063E08F401EE08707E0FEF78FFFC01BCF
:1015A000A84201D3681C04D11DB1E08F0028E6D108
:1015B00045E0032657E0606810B1BAF1010F3BD156
:1015C000E08F01280AD9A06B21680088C860A06B51
:1015D000801CA063E08F801EE0872DE0A06B216857
:1015E00000780873A06B401CA063E08F401EE0876A
:1015F00022E020688168890716D5E18F012909D981
:10160000A16B0988C160A06B801CA063E08F801E65
:10161000E08711E0A16B09780173A06B401CA06307
:10162000E08F401EE08707E0FEF748FFC01BA8429E
:1016300001D3681C0ED16DB1E08F0028D9D13A4694
:101640002946204600F0B4FC08B120202066A0689E
:1016500010B105E0032606E02068C16880680090AC
:10166000206E00B1012684F85D9084F85C803046DD
:101670003BE72DE9F05F04460A9E8A4693461F46E3
:1016800001254FF0000894F85C0001280ED00120DD
:1016900084F85C00FEF712FF814694F85D006168F3
:1016A00001280DD0B1F5827F07D102E00220BDE80C
:1016B000F09FA16809B9042802D04FF0020804E1A4
:1016C000BAF1000F26D0BBF1000F23D0380021D093
:1016D00094F85D00042802D0052084F85D00002005
:1016E0002066C4F840B0A4F84670A4F84470C4F86A
:1016F00038A0E787A787E0642065E0684FF4E061E1
:10170000884201D8012F08D92068426822F480520B
:10171000426007E04FF00108D7E02068426842F4D9
:101720008052426020680268520603D4026842F088
:1017300040020260E068884246D9606808B1012F23
:101740003AD1A06B21680088C860A06B801CA063A0
:10175000E08F401EE0872FE02068816889070DD563
:10176000E18F59B1012D09D1A16B0988C160A06B2E
:10177000801CA063E08F401EE08700252068816800
:10178000C9070ED0B4F8461059B1C068216C088062
:10179000206C801C2064B4F84600401EA4F846006B
:1017A0000125FEF78BFEA0EB0900B04204D3701CAC
:1017B00002D04FF0030888E0E08F0028CCD1B4F8C5
:1017C00046000028C8D176E0606808B1012F6BD1CF
:1017D000E08F01280AD9A06B21680088C860A06B3F
:1017E000801CA063E08F801EE0875DE0A06B216815
:1017F00000780873A06B401CA063E08F401EE08758
:1018000052E02068816889071AD5E18FC1B1012DA6
:1018100016D1E18F012909D9A16B0988C160A06B9C
:10182000801CA063E08F801EE08708E0A16B097830
:101830000173A06B401CA063E08F401EE087002571
:1018400020688168C90726D0B4F8461019B3B4F8E7
:101850004610012913D9C06854F8401F0880206839
:10186000801C2060E088801EE080E088403C0128E9
:1018700010D82068416841F4805141600AE0007B43
:10188000216C0870206C401C2064B4F84600401E97
:10189000A4F846000125FEF711FEA0EB0900B042B6
:1018A00001D3701C18D1BEB1E08F0028A9D1B4F8C3
:1018B00046000028A5D14A463146204600F078FB74
:1018C00018B14FF001082020206601205C346070C0
:1018D000002020704046EAE64FF00308F5E710B517
:1018E000401EB0F1807F01D3012010BD4FF0E024F5
:1018F00060610F21601700F0BBFE0020A06107208F
:101900002061002010BD10B50446002C02D0A06F4D
:1019100010B107E0012010BD002084F874002046BB
:1019200000F028F82420A0672068016821F0010158
:101930000160204600F012FD012818D0606A10B145
:10194000204600F077FC2068416821F49041416016
:101950002068816821F02A0181602068016841F0D7
:10196000010101602046BDE8104000F0C7BC012025
:1019700010BD000010B586B00446142101A8FEF782
:1019800079FC13492068884220D11248816941F4CA
:1019900080418161816901F480410091416941F494
:1019A00000314161406900F4003000904FF4C060A4
:1019B0000190022002900020039003200490072051
:1019C000059001A94FF09040FEF7A8FC06B010BDAD
:1019D0000038014000100240FEE700002DE9F0470A
:1019E00086B0142101A8FEF745FC4148416941F445
:1019F00000214161416901F400210091416941F4F4
:101A000080014161416901F480010091416941F423
:101A100000314161416901F400310091416941F4B3
:101A200080214161416901F480210091416941F4C3
:101A300000114161416901F400110091416941F4D3
:101A400080114161406900F4801000904FF090488F
:101A5000002218214046FEF72BFDDFF8989041F652
:101A60000206002231464846FEF722FDDFF888A034
:101A70004FF47F47002239465046FEF719FD0125F5
:101A8000019500240294039401A94046FEF746FC08
:101A90001820019002950394049401A94046FEF792
:101AA0003DFC019602950394049401A94846FEF773
:101AB00035FC019702950394049401A95046FEF762
:101AC0002DFCA80301900294022003900B4D01A964
:101AD0002846FEF723FC4FF4004101910294039441
:101AE00001A92846FEF71AFC06B0BDE8F087000001
:101AF000001002400004004800100048000C00489C
:101B000010B51248104901604FF482714160002104
:101B100081604FF4E062C260016141614FF4007284
:101B200082611022C2610162416281620722C26247
:101B3000016308214163FFF730FB002803D0BDE8B3
:101B40001040FEF7D7BB10BD003001407C000020E4
:101B500010B51248104901604FF4827141600021B4
:101B600081604FF4E062C260016141614FF4007234
:101B700082611822C2610162416281620722C262EF
:101B8000016308214163FFF708FB002803D0BDE88B
:101B90001040FEF7AFBB10BD00380040E000002051
:101BA00010B50D480B4901604FF4E131416000214F
:101BB0008160C16001610C2242618161C161016289
:101BC0004162FFF7A0FE002803D0BDE81040FEF7F9
:101BD00091BB10BD003801404401002010B50B48F6
:101BE00009490160082141600221816001610021F1
:101BF00081610162FEF7ECFC002803D0BDE81040D3
:101C0000FEF778BB10BD0000005C0040C80100205A
:101C1000FEE7704710B5002000F076F840F00301B1
:101C2000002000F0E5F8012208214FF09040FEF777
:101C30003FFC9620FEF74CFB00F026F8BDE8104074
:101C400000F042B810B5072000F05EF8400613D54A
:101C50000F20FEF73DFB01220A49612000F080F8C9
:101C60000F20FEF735FB4021072000F0C1F80720C8
:101C700000F04AF84006EBD4024800780149487069
:101C800010BD00000000002038B50DA000680090D5
:101C90004FF09044002210212046FEF709FC4FF43B
:101CA0007A73012269460748FFF705FC0120FEF719
:101CB0000FFB012210212046FEF7FAFB38BD000081
:101CC000E20000007C00002038B50DA00068009004
:101CD0004FF09044002210212046FEF7E9FB4FF41C
:101CE0007A73012269460748FFF7E5FB0120FEF7FA
:101CF000EFFA012210212046FEF7DAFB38BD000082
:101D0000E10000007C00002031B584B00020039089
:101D10004FF09045002210212846FEF7C9FB4FF4F2
:101D20007A74012303AA04A90C480094FFF7A1FCCC
:101D30009DF81010072908D0FF210291012303AA62
:101D400002A906480094FFF794FC012210212846BE
:101D5000FEF7AEFB9DF80C0005B030BD7C00002006
:101D6000F7B50E4617464FF090440022102120464A
:101D7000FEF79EFB4FF47A752B4601226946074811
:101D8000FFF799FB2B463A4631460448FFF7D0FA55
:101D9000012210212046FEF78BFBFEBD7C000020B7
:101DA00038B511A0006800904FF090440022102137
:101DB0002046FEF77DFB4FF47A752B4601226946DB
:101DC0000A48FFF778FB0120FEF782FA73210091A1
:101DD0002B46012269460548FFF76DFB01221021C1
:101DE0002046FEF765FB38BD500000007C00002057
:101DF00073B59DF8000040F0200000904FF0904433
:101E0000002210212046FEF753FB4FF47A752B4633
:101E1000012269460748FFF74EFB2B46012201A924
:101E20000448FFF748FB012210212046FEF740FB43
:101E30007CBD00007C000020F7B50E4617469DF8DB
:101E4000000040F0200000904FF09044002210214C
:101E50002046FEF72DFB4FF47A752B46012269468A
:101E60000848FFF728FB0120FEF732FA2B463A46D6
:101E700031460448FFF71FFB012210212046FEF7E0
:101E800017FBFEBD7C00002010B5002208214FF09A
:101E90009040FEF70DFB41F288342046FEF718FA19
:101EA0003A210020FFF7A4FF2046FEF711FA022195
:101EB0000120FFF79DFF02210846FFF799FF01214E
:101EC0000320FFF795FF5F210420FFF791FFFFF745
:101ED00067FF00211D20FFF78BFF00211C20FFF76B
:101EE00087FF40210720FFF783FF4C210520FFF7E4
:101EF0007FFF2E210620FFF77BFF03220A491020D7
:101F0000FFF79AFF032208490B20FFF795FF0121F5
:101F10001220FFF76DFFFFF77DFEBDE810404FF484
:101F200080710248FEF7BCBA020000200010004891
:101F300070472DE9F8430446884615464FF400469D
:101F400060684FF482797711484509D1A068B042A2
:101F500001D0B84204D12068016821F0400101603D
:101F60004346002280212046009500F0B7F830B1AA
:101F7000206E40F0200020660320BDE8F8836068F2
:101F8000484513D1A068B04201D0B8420ED14346B3
:101F900000224FF4C0612046009500F03BF828B1C4
:101FA000206E40F0200020660320E6E70020E4E7F2
:101FB000F8B504460E461546334600224FF4C0518C
:101FC0002046009500F026F828B1206E40F0200051
:101FD00020660320F8BD334600228021204600956C
:101FE00000F07CF828B1206E40F02000206603202D
:101FF000F8BD334600224FF4C0612046009500F042
:1020000009F828B1206E40F0200020660320F8BDBA
:102010000020F8BD2DE9F84F04460E4617469846B5
:102020000A9DFEF74BFA401BA8EB0005FEF746FAA7
:10203000814629480068C0EBC00000EB8000000D1D
:10204000684300904FF4C06A3FE0564501D107B99C
:10205000007BB8F1FF3F38D0FEF730FAA0EB090063
:10206000A84203D215B1009858B32BE0206841680C
:1020700021F0E00141606068B0F5827F0BD1A0687B
:10208000B0F5004F02D0B0F5806F04D12068016830
:1020900021F040010160A06AB0F5005F09D120681D
:1020A000016821F4005101602068016841F4005189
:1020B000016001205C346070002020700320BDE8C6
:1020C000F88F00250098401E0090206881683140FC
:1020D000B942BAD10020F2E7140000202DE9F843FC
:1020E00004460F4691461E46089DFEF7E7F9401B41
:1020F000351AFEF7E3F9804626480068C0F3CB3076
:10210000684300903AE0701C38D0FEF7D7F9A0EB96
:102110000800A84203D215B1009858B32BE02068FC
:10212000416821F0E00141606068B0F5827F0BD129
:10213000A068B0F5004F02D0B0F5806F04D12068E0
:10214000016821F040010160A06AB0F5005F09D18B
:102150002068016821F4005101602068016841F4A1
:102160000051016001205C34607000202070032069
:10217000BDE8F88300250098401E00902068806824
:1021800037EA000004D000204845BCD10020EFE72A
:102190000120F9E7140000207047FEF795B9000010
:1021A00030B59FB0282115A8FEF764F8142110A8B7
:1021B000FEF760F83C2101A8FEF75CF801211591BB
:1021C0000804169000241794199102251C951D905F
:1021D0004FF4E0101E9015A8FEF7CCFC08B1FEF7F6
:1021E00089F80F201090119512944FF4806013908D
:1021F0004FF4A0601490022110A8FEF777FB08B1FD
:10220000FEF778F80648019003940F9401A8FEF7B2
:1022100061FA002801D0FEF76DF81FB030BD000054
:10222000010002000248016841F47001016070473A
:1022300088ED00E090F82410C90706D001684A68CC
:10224000836A22F400321A434A6090F82410890706
:1022500006D501684A68C36A22F480321A434A608C
:1022600090F82410490706D501684A68036B22F4E8
:1022700080221A434A6090F82410090706D50168A5
:102280004A68436B22F400421A434A6090F82410D3
:10229000C90606D501688A68836B22F480521A4306
:1022A0008A6090F82410890606D501688A68C36B95
:1022B00022F400521A438A6090F82410490611D57E
:1022C00001684A68036C22F480121A434A60016C68
:1022D000B1F5801F06D101684A68436C22F4C00240
:1022E0001A434A6090F82410090606D501684A6826
:1022F000806C22F4002202434A607047F8B504461D
:102300000025C4F88050FEF7D9F807462068006819
:102310006FF07E4600070AD53B4600224FF40011BD
:102320002046009600F02AF908B10320F8BD206885
:10233000006840070AD53B4600224FF48001204642
:10234000009600F01BF908B10320F8BD2020A0671B
:10235000E067256684F874500020F8BD70B5044627
:102360000025A1682069E2690143606910430143C7
:102370002068026849F20C639A430A4302602068AD
:102380004168E26821F4405111434160A069216A2B
:1023900001432068826822F430620A438260704AF6
:1023A00020687049904213D1086B10F0030007D0E9
:1023B000012809D0022809D0032803D0102170E099
:1023C00001216EE002216CE004216AE0082168E04E
:1023D000654A904216D1086B10F440300AD0B0F52F
:1023E000803F0BD0B0F5003F0AD0B0F5403F03D09E
:1023F000102156E0002154E0022152E0042150E077
:1024000008214EE0594A904216D1086B10F4402042
:102410000AD0B0F5802F0BD0B0F5002F0AD0B0F560
:10242000402F03D010213CE000213AE0022138E0A7
:10243000042136E0082134E04D4A904216D1086B61
:1024400010F440100AD0B0F5801F0BD0B0F5001F7B
:102450000AD0B0F5401F03D0102122E0002120E077
:1024600002211EE004211CE008211AE0414A9042AA
:1024700016D1086B10F440000AD0B0F5800F0BD0D5
:10248000B0F5000F0AD0B0F5400F03D0102108E0DE
:10249000002106E0022104E0042102E0082100E01E
:1024A0001021E3694FF40040334A4FF6EF76834240
:1024B0002CD1092911D2DFE801F005080B100D100D
:1024C00010101200FEF7F4FA09E0FEF707FB06E031
:1024D000104604E0FEF718FB01E000200125C0B320
:1024E0004100606801EB5001B1FBF0F080B2A0F157
:1024F0001001B14208D84FF6F0710140C0F342001C
:1025000001432068C16026E0012524E0092911D299
:10251000DFE801F005080B100D1010101200FEF797
:10252000C7FA09E0FEF7DAFA06E0104604E0FEF723
:10253000EBFA01E00020012558B1616800EB510081
:10254000B0FBF1F080B2A0F11001B14202D82168D5
:10255000C86000E0012500206066A066284670BDC6
:102560000038014000100240004400400048004094
:10257000004C00400050004000127A002DE9F04766
:102580000446089D0E46174698464FF0000A4FF045
:1025900020093BE0681C39D0FDF790FFA0EB080054
:1025A000A84221D805B32068016849072ED5C06923
:1025B000C04300052AD421684FF4006008622068F7
:1025C000016821F4D07101602068816821F0010167
:1025D0008160C4F87890C4F87C90C4F8809084F846
:1025E00074A00320BDE8F0872068016821F4D07151
:1025F00001602068816821F001018160C4F8789051
:10260000C4F87C9084F874A00320EBE72068C069CC
:1026100036EA000004D00020B842BBD00020E1E739
:102620000120F9E7012120F8401F0021018081806D
:1026300001820020704730F8401F21F43F410180A3
:1026400000207047FEE700000FB4084B10B504A946
:1026500002AA039800F02CF8044602A9002000F01A
:1026600058FA204610BC5DF814FB0000132B00083C
:102670000907090E002804DB00F1E02080F80014AF
:10268000704700F00F0000F1E02080F8141D704743
:1026900002E008C8121F08C1002AFAD1704770472B
:1026A000002001E001C1121F002AFBD17047000089
:1026B0002DE9FF4F8DB00F460546002606E0252880
:1026C0000BD0DDE90F1290476D1C761C287800288E
:1026D000F5D111B03046BDE8F08F0024A246A146E6
:1026E0000122EC4900E0044315F8013F203B02FAC7
:1026F00003F00842F7D128782A2810D06FF02F0273
:102700002878A0F13001092914D80AEB8A0102EBDC
:10271000410144F0020400EB010A6D1CF0E701CF17
:102720005FEA000A03D544F40054CAF1000A44F0F9
:1027300002046D1C28782E2817D115F8010F44F0DB
:1027400004042A280ED06FF02F022878A0F130015F
:1027500009290AD809EB890102EB410100EB0109C3
:102760006D1CF2E757F8049B6D1C28786C280FD07D
:1027700006DC4C2817D068280DD06A2814D104E054
:10278000742810D07A280FD10DE044F400140AE028
:1027900044F4801401E044F440146978814202D189
:1027A00004F580146D1C6D1C2A786E2A1FD00CDC79
:1027B000632A31D004DC002A8BD0582A11D1A3E03F
:1027C000642A68D0692A0CD165E0732A2ED004DC13
:1027D0006F2A73D0702A04D19BE0752A6FD0782AB3
:1027E0006ED01046DDE90F129047761C50E1C4F31D
:1027F0000250022806D0032809D0042801CF09D0AE
:10280000066045E101CFF117C0E9006140E101CF69
:1028100006803DE106703BE117F8040B8DF80000DF
:1028200000208DF80100EB46012003E057F804BBBF
:102830004FF0FF3061074FF0000102D40DE008F1C6
:102840000101884649450FDA8045F8DB1BF808107E
:102850000029F4D108E008F1010188468142FADB41
:102860001BF808100029F6D1DDE90F23AAEB0800B8
:102870008146214600F036F9304400EB080604E0BA
:10288000DDE90F121BF8010B9047B8F10108F7D2F0
:1028900021464846F7E00A21C4F302534FF0000BEB
:1028A0000891022B04D001CFC117032B09D00AE0F5
:1028B000FF1D27F00707F7E8020108E032E01FE0FC
:1028C00020E000B2C117042B01D140B2C117031E92
:1028D00071F1000307DA4FF0000CD0EB0C006CEB49
:1028E00001012D2302E0230504D52B238DF824308C
:1028F000012303E0E30701D02023F7E7984658E0DF
:102900000A2110E010210EE010204FF0000B08907B
:102910000CE010214FF0000B44F004044FF00809C4
:10292000089103E008214FF0000B0891C4F3025313
:10293000022B04D001CF0021032B06D006E0FF1D9F
:1029400027F00707F7E8020103E080B2042B00D16B
:10295000C0B24FF0000823072BD5702A07D0DDF84E
:1029600020C08CF0100C5CEA0B0C05D00EE040236C
:102970008DF82430012308E050EA010306D030230B
:102980008DF824308DF8252002239846DDF820C0EC
:102990008CF0080C5CEA0B0C0BD150EA010301D15E
:1029A000630706D530238DF824304FF00108A9F1D4
:1029B0000109582A04D038A20B9208AA0A920BE007
:1029C0003AA2F9E75B46089AFDF7FAFB0B9B9B5C82
:1029D0000A9A521E0A92137050EA0102F2D10A9822
:1029E000ADEB000000F1200B600702D524F4803429
:1029F00001E04FF00109D94502DDA9EB0B0000E031
:102A0000002000EB0B0141440890AAEB010AE0030F
:102A100006D4DDE90F232146504600F063F8064452
:102A20004FF0000908E009A911F80900DDE90F12CB
:102A3000904709F10109761CC145F4DBE0030CD590
:102A4000DDE90F232146504600F04CF8064404E02F
:102A5000DDE90F1230209047761C0899481E089037
:102A60000029F5DC08E00A980A990078491C0A91C7
:102A7000DDE90F129047761CBBF10001ABF1010BB1
:102A8000F1DC21465046DDE90F2300F019F8064439
:102A90006D1C1BE6092801003031323334353637DE
:102AA000383961626364656600000000303132339A
:102AB000343536373839414243444546000000003A
:102AC0002DE9F041044600251E461746880404D42B
:102AD00005E039462020B0476D1C641EF9D5284614
:102AE000BDE8F0812DE9F041044600251E469046E0
:102AF000C80301D5302700E02027880404D505E06D
:102B000041463846B0476D1C641EF9D52846BDE8DD
:102B1000F0810A68531C0B6010707047FDF7DCFCF5
:102B2000FFF73EFBFEF75AFFFEF7EAFFFFF710F84C
:102B3000FFF736F8FFF752F8FFF7A6F9C820FDF7C0
:102B4000DBFB234FDFF88C804FF496654FF4006673
:102B500000242846FDF7D0FBFFF774F8641CE4B2AC
:102B6000852803D06F2801D00F2CF2D36F2805D011
:102B700085280ED0C0B101281CD020E001223146AA
:102B80004046FDF795FC012202213846FDF790FCF6
:102B900015E0002231464046FDF78AFC0022022162
:102BA0003846FDF785FC0AE04FF400714046FDF71A
:102BB00077FC04E04FF480414046FDF771FC0020B3
:102BC000FFF7A2F8024604A10848FFF73DFDBFE762
:102BD0000004004800100048434F4E4649473A2041
:102BE000307825303258726E000000001800002046
:102BF00002030405060708090A0B0C0D0E0F10103E
:102C00000102030405060708090A0B0C0D0E0F103C
:102C1000000000000000000001020304060708098C
:102C20000000000001020304482C000800000020FE
:102C30001800000090260008602C000818000020F2
:102C4000A0080000A02600080001B3B401000000A5
:102C500001000000100000000000000000127A00D7
:040000050800018965
:00000001FF
